S0170000617474696E792D6D65657365656B732E73726563F5
S11300000C943E000C945B000C945B000C945B001D
S11300100C945B000C945B000C945B000C945B00F0
S11300200C9496030C945B000C945B000C945B00A2
S11300300C945B000C944F040C945B000C945B00D8
S11300400C945B000C945B000C945B000C945B00C0
S11300500C945B000C945B000C945B000C945B00B0
S11300600C9445030C945B000C945B000C945B00B3
S11300700C945B000C945B000C945B0011241FBE79
S1130080CFEFCDBFDFE3DEBF18E3A0E0B8E3EEE1DE
S1130090F9E002C005900D92A230B107D9F72AE326
S11300A0A2E0B8E301C01D92A032B207E1F70E94BA
S11300B08F020C948D040C94000088ED84BF109280
S11300C06000809163008823E1F388ED84BF81E0C0
S11300D0809361000895E0E1F8E084E2848710826F
S11300E083EC81870895E0E0F4E08AE1818384E091
S11300F0828380E18583E0E2F8E081E380831182FA
S113010008958AE180930204109220080895E0E0A3
S1130110FAE0118281E082870895E0E0FAE081E06C
S1130120808382EE94E086A397A30895E0E0FAE04A
S1130130108216A217A20895E0EAF0E083E2808319
S113014083E08183089580E48093050481E48093AF
S1130150A006089580E180932604E0E0F6E0118291
S1130160128289E0868385E080830895E0E4FAE0E2
S1130170118281E0858383E0808388E893E184872A
S113018095870895E0E2F4E088E08283838B089504
S11301908FE080934104089583FF04C091E090931D
S11301A0450403C091E09093460482FF04C092E0AA
S11301B09093450403C092E09093460481FF04C0E9
S11301C094E09093450403C094E09093460480FF28
S11301D004C088E080934504089588E08093460431
S11301E0089580932408809123088823E4F70895D0
S11301F080E00E94F10080912408089580E18093BA
S11302000604089580E1809305040895CF930E9425
S1130210FE0085E00E94F1000E94F800C82F0E94B1
S11302200201C0FDF4CFCF910895CF93DF93C82F7F
S11302300E94FE008BE00E94F1008C2F0E94F100CE
S113024080E00E94F10080E00E94F10080E00E94C2
S1130250F1000E94F800C82FD0E00E94F80020E0CE
S1130260382FC20FD31F0E940201CE01DF91CF911C
S113027008951F93CF93DF93182FD62FC42F0E9476
S1130280FE008BE00E94F100812F0E94F1008D2F6F
S11302900E94F1008C2F0E94F10080E00E94F10086
S11302A00E94F800C82F0E9402018C2FDF91CF9189
S11302B01F910895CF93C82F0E947300C0931A38DA
S11302C081E0809318388C2F0E9415018093163892
S11302D0909317388091163890911738019661F4ED
S11302E01092183810921638109217380E94810014
S11302F080E00E94CC0006C0109214381092153889
S11303000E948D00CF9108950E9402010E94FE0078
S113031086E00E94F1000E9402010895CF93C82F45
S11303200E9484010E94FE0088ED0E94F1008C2F3F
S11303300E94F10080E00E94F10080E00E94F10040
S11303400E9402010E940601CF9108958FEF8093CD
S1130350003810920C3880E00E94CC0008958091FF
S113036000388F5F0E94CC0010920D3810920E3826
S113037081E080930C380895CF93DF93C82FD92F51
S11303800E9402010E9484010E94FE0082E00E94F9
S1130390F100809100380E94F1008D2F0E94F1003D
S11303A08C2F0E94F100DF91CF9108950F931F933A
S11303B0CF93DF938C0180910338909104380E948D
S11303C0BC01C0E0D0E00AC0E0911E3AF0911F3AAF
S11303D0EC0FFD1F80810E94F1002196C017D10708
S11303E098F30E9402018091033890910438029797
S11303F021F41092033810920438809103389091BC
S1130400043893958093033890930438DF91CF9107
S11304101F910F910895CF93DF93D82FC92F0E9476
S113042002010E9484010E94FE0082E00E94F10009
S1130430809100380E94F10080E00E94F10080E089
S11304400E94F1008D2F0E94F1008C2F0E94F10078
S11304500E940201DF91CF91089580E00E94CC00B8
S11304600E947300809100380E948E0181E0809385
S1130470023822E030E020930338309304382CE132
S113048038E320931C3930931D392EE139E320934E
S11304901E3A30931F3A10921638109217388093F0
S11304A0133810920C3810920A3810920B380895B1
S11304B00E9406018091073890910838892B71F0C9
S11304C080911C3990911D3980931E3A90931F3A64
S11304D080910738909108380E94D6010E94060145
S11304E080911638909117380E940B020E94960052
S11304F00E9481001092133880E00E94CC008FEF9C
S113050080930038109211381092123810921038DB
S11305101092103810920C3810920F380895F894F5
S11305200E945D000E9487000E949C000E94A3001C
S11305300E94AA000E94B60078940E946B000E9458
S1130540C8000E94C20080E88093010480910538AD
S113055090910638892B51F0809105389091063896
S11305600E94D601109205381092063880910A38FC
S113057090910B3885369105B0F010920A3810929C
S11305800B3880910938882331F01092093880E0C3
S11305900E94CC0008C081E0809309388091003823
S11305A08F5F0E94CC008091280483FD11C080914C
S11305B0103881110DC080E88093050481E0809398
S11305C01038109211381092123810920F3836C029
S11305D08091280483FF32C08091113890911238A1
S11305E0C39718F180911338882319F00E94580298
S11305F01CC080911338811118C0909100389F5FFE
S11306009093003889E8989F812D112486958695CA
S11306108695282F220F820F282F220F220F820F58
S1130620981B909300380E94AF0180E880930604E1
S1130630109210381092113810921238809110389C
S1130640882399F08091113890911238893E934013
S113065060F080911338811108C0809100388F3F79
S113066021F00E942D020E948D0080910C38882375
S113067009F46CCF80910D3890910E38893B9B40E2
S113068008F464CF0E94A60161CF1F920F920FB6A7
S11306900F9211242F933F934F935F936F937F9304
S11306A08F939F93AF93BF93EF93FF9380911B0816
S11306B0882324F580911D0880931B38809113387A
S11306C0811123C080911938811107C080911B3892
S11306D0813019F48093193811C080911938882316
S11306E069F0109219380E94A60180911B380E946B
S11306F0CC0080911B3881500E945A0180911B08C4
S113070086FF03C083E080931A08FF91EF91BF91A5
S1130710AF919F918F917F916F915F914F913F9195
S11307202F910F900FBE0F901F9018951F920F924C
S11307300FB60F9211242F933F934F935F936F93B0
S11307407F938F939F93AF93BF93EF93FF9381E036
S113075080930B0A80911338882309F464C081E0E4
S11307608093080680910B0680FFFCCF2091100631
S1130770309111068091073890910838E0911C3926
S1130780F0911D39E80FF91F20838091163890915C
S1130790173801968093163890931738809107384C
S11307A09091083801968093073890930838809187
S11307B01638909117388A3F9F4F10F00E945802C4
S11307C080910738909108388115914069F08091A3
S11307D00238882309F452C0809107389091083870
S11307E08E3F910509F04AC01092023880911C395D
S11307F090911D3920911E3A30911F3A20931C3953
S113080030931D3980931E3A90931F3A8091073894
S113081090910838809305389093063810920738E1
S1130820109208382BC020911438309115382E5F5F
S11308303F4F80911A38422F632F0E9439018093D1
S1130840A10680911438909115380196809314383C
S113085090931538209114383091153880911638BA
S1130860909117382817390748F00E9481000E9498
S1130870960080E00E94CC0010921838FF91EF910E
S1130880BF91AF919F918F917F916F915F914F91A4
S11308903F912F910F900FBE0F901F9018951F92AC
S11308A00F920FB60F9211248F939F93EF93FF93A0
S11308B0E0E4FAE0868181608683809110388823A1
S11308C049F0809111389091123801968093113833
S11308D09093123880911338882349F080910A3814
S11308E090910B38019680930A3890930B3880913D
S11308F00C38882349F080910D3890910E38019678
S113090080930D3890930E38FF91EF919F918F91C2
S11109100F900FBE0F901F901895F894FFCF14
S105091EFF00D4
S9030000FC
