S0170000617474696E792D6D65657365656B732E73726563F5
S11300000C943E000C945B000C945B000C945B001D
S11300100C945B000C945B000C945B000C945B00F0
S11300200C941C040C945B000C945B000C945B001B
S11300300C945B000C94E7040C945B000C945B0040
S11300400C945B000C945B000C945B000C945B00C0
S11300500C945B000C945B000C945B000C945B00B0
S11300600C94CB030C945B000C945B000C945B002D
S11300700C945B000C945B000C945B0011241FBE79
S1130080CFEFCDBFDFE3DEBF18E3A0E0B8E3E0E9E4
S1130090FAE002C005900D92A230B107D9F72AE325
S11300A0A2E0B8E301C01D92A232B207E1F70E94B8
S11300B0E6020C9446050C94000088ED84BF10926F
S11300C06000809163008823E1F388ED84BF81E0C0
S11300D0809361000895E0E1F8E084E2848710826F
S11300E083EC81870895E0E0F4E08AE1818384E091
S11300F0828380E18583E0E2F8E081E380831182FA
S113010008958AE180930204109220080895E0E0A3
S1130110FAE0118281E082870895E0E0FAE081E06C
S1130120808382EE94E086A397A30895E0E0FAE04A
S1130130108216A217A20895E0EAF0E083E2808319
S113014083E08183089580E48093050481E48093AF
S1130150A006089580E180932604E0E0F6E0118291
S1130160128289E0868385E080830895E0E4FAE0E2
S1130170118281E0858383E0808388E893E184872A
S113018095870895E0E2F4E088E08283838B089504
S11301908FE080934104089583FF04C091E090931D
S11301A0450403C091E09093460482FF04C092E0AA
S11301B09093450403C092E09093460481FF04C0E9
S11301C094E09093450403C094E09093460480FF28
S11301D004C088E080934504089588E08093460431
S11301E0089580932408809123088823E4F70895D0
S11301F080E00E94F10080912408089580E18093BA
S11302000604089580E1809305040895CF930E9425
S1130210FE0085E00E94F1000E94F800C82F0E94B1
S11302200201C0FDF4CFCF910895CF93DF93C82F7F
S11302300E94FE008BE00E94F1008C2F0E94F100CE
S113024080E00E94F10080E00E94F10080E00E94C2
S1130250F1000E94F800C82FD0E00E94F80020E0CE
S1130260382FC20FD31F0E940201CE01DF91CF911C
S113027008951F93CF93DF93182FD62FC42F0E9476
S1130280FE008BE00E94F100812F0E94F1008D2F6F
S11302900E94F1008C2F0E94F10080E00E94F10086
S11302A00E94F800C82F0E9402018C2FDF91CF9189
S11302B01F910895CF93C82F0E94730081E090E0AE
S11302C00C2E02C0880F991F0A94E2F720911C3863
S11302D030911D3882239323892B09F0C05FC0938A
S11302E01A3881E08093183880911A380E941501D9
S11302F08093163890931738809116389091173858
S1130300019661F41092183810921638109217382A
S11303100E94810080E00E94CC0006C01092143834
S1130320109215380E948D00CF9108950E94020109
S11303300E94FE0086E00E94F1000E9402010895DE
S1130340CF93C82F0E9496010E94FE0088ED0E9460
S1130350F1008C2F0E94F10080E00E94F10080E007
S11303600E94F1000E9402010E940601CF910895AB
S11303708FEF8093003810920C3880E00E94CC00FC
S11303800895809100388F5F0E94CC0010920D3840
S113039010920E3881E080930C380895CF93DF9348
S11303A0C82FD92F0E9402010E9496010E94FE00CC
S11303B082E00E94F10080910038805F0E94F10089
S11303C08D2F0E94F1008C2F0E94F100DF91CF91BC
S11303D008950F931F93CF93DF938C01809103387B
S11303E0909104380E94CE01C0E0D0E00AC0E091B0
S11303F0203AF091213AEC0FFD1F80810E94F10018
S11304002196C017D10798F30E9402018091033806
S113041090910438029721F4109203381092043812
S11304208091033890910438939580930338909386
S11304300438DF91CF911F910F910895CF93DF93EB
S1130440D82FC92F0E9402010E9496010E94FE002B
S113045082E00E94F10080910038805F0E94F100E8
S113046080E00E94F10080E00E94F1008D2F0E9444
S1130470F1008C2F0E94F1000E940201DF91CF91C4
S113048008950E9406018091073890910838892BBD
S113049071F080911E3990911F398093203A909386
S11304A0213A80910738909108380E94E9010E940E
S11304B0060180911638909117380E941E020E94FE
S11304C096000E9481001092133880E00E94CC00B4
S11304D08FEF8093003810921138109212381092D6
S11304E010381092103810920C3810920F3808956A
S11304F081E090E00E942505813A59F060E070E0C7
S113050083E090E00E94410561EA81E090E00E946E
S11305102D05089560911C3870911D3883E090E09A
S11305200E94410508952091003881E090E002C0C6
S1130530880F991F2A95E2F720911C3830911D38B5
S1130540822B932B80931C3890931D380E948A022F
S113055080E00E94CC000E94730080910038805F8C
S11305600E94A00181E08093023822E030E02093D1
S11305700338309304382EE138E320931E39309346
S11305801F3920E239E32093203A3093213A109224
S11305901638109217388093133810920C38109232
S11305A00A3810920B38089580E00DC09FE09093B4
S11305B047042FE33DE093E0215030409040E1F7C1
S11305C000C000008F5F863088F30895F8940E947D
S11305D05D000E9487000E949C000E94A3000E946C
S11305E0AA000E94B60078940E9478020E946B00D0
S11305F00E94C8000E94C20081E0809310381092CB
S113060011381092123809C08091280483FF05C064
S1130610109211381092123807C0809111389091BD
S113062012388838934180F38091113890911238B0
S11306308838934140F010921C3810921D380E9463
S11306408A020E94D402109210381092113810922B
S1130650123880E88093010480910538909106381F
S1130660892B51F080910538909106380E94E90158
S1130670109205381092063880910A3890910B3800
S113068085369105B0F010920A3810920B3880919B
S11306900938882331F01092093880E00E94CC0098
S11306A008C081E080930938809100388F5F0E94F0
S11306B0CC008091280483FD11C0809110388111F1
S11306C00DC080E88093050481E080931038109277
S11306D011381092123810920F3836C080912804C5
S11306E083FF32C08091113890911238C39718F16A
S11306F080911338882319F00E9441021CC0809114
S11307001338811118C0909100389F5F909300387E
S113071089E8989F812D1124869586958695282FA2
S1130720220F820F282F220F220F820F981B9093E3
S113073000380E94C10180E88093060410921038AA
S1130740109211381092123880911038882399F041
S11307508091113890911238893E934060F08091D5
S11307601338811108C0809100388F3F21F00E9416
S113077093020E948D0080910C38882309F46CCF79
S113078080910D3890910E38893B9B4008F464CFDA
S11307900E94B80161CF1F920F920FB60F921124DD
S11307A02F933F934F935F936F937F938F939F9375
S11307B0AF93BF93EF93FF9380911B08882324F595
S11307C080911D0880931B3880911338811123C0B8
S11307D080911938811107C080911B38813019F438
S11307E08093193811C080911938882369F01092C8
S11307F019380E94B80180911B380E94CC00809166
S11308001B3881500E945A0180911B0886FF03C047
S113081083E080931A08FF91EF91BF91AF919F916C
S11308208F917F916F915F914F913F912F910F9095
S11308300FBE0F901F9018951F920F920FB60F9234
S113084011242F933F934F935F936F937F938F93D1
S11308509F93AF93BF93EF93FF9381E080930B0A31
S113086080911338882309F464C081E080930806DA
S113087080910B0680FFFCCF209110063091110669
S11308808091073890910838E0911E39F0911F3912
S1130890E80FF91F2083809116389091173801963C
S11308A080931638909317388091073890910838C0
S11308B00196809307389093083880911638909168
S11308C017388A3F9F4F10F00E94410280910738E9
S11308D0909108388115914069F0809102388823FD
S11308E009F464C080910738909108388E3F9105CF
S11308F009F05CC01092023880911E3990911F3922
S11309002091203A3091213A20931E3930931F3997
S11309108093203A9093213A809107389091083837
S1130920809305389093063810920738109208384F
S11309303DC020911438309115382E5F3F4F80917F
S11309401A3890911A3841E050E002C0440F551F04
S11309509A95E2F760911C3870911D38462357230D
S1130960452B09F0805F422F632F0E943901809349
S1130970A10680911438909115380196809314380B
S11309809093153820911438309115388091163889
S1130990909117382817390748F00E9481000E9467
S11309A0960080E00E94CC0010921838FF91EF91DD
S11309B0BF91AF919F918F917F916F915F914F9173
S11309C03F912F910F900FBE0F901F9018951F927B
S11309D00F920FB60F9211248F939F93EF93FF936F
S11309E0E0E4FAE086818160868380911038882370
S11309F049F0809111389091123801968093113802
S1130A009093123880911338882349F080910A38E2
S1130A1090910B38019680930A3890930B3880910B
S1130A200C38882349F080910D3890910E38019646
S1130A3080930D3890930E38FF91EF919F918F9191
S1130A400F900FBE0F901F90189503D080819927A7
S1130A500895FC01E050FC4E0895262FAF93BF93F8
S1130A60E0E0F0E1328131FDFDCFDC01A050BC4E6D
S1130A702C932DE924BF23E020830196BF91AF91ED
S1130A8008950E942D05272F0C942E05F894FFCF6E
S1050A90FF0061
S9030000FC
