S02B0000646973742F52656C656173652F70726F64756374696F6E2F786D656761313665352D706C756D6275B6
S11300000C94BE010C94DB010C94DB010C942E0DBA
S11300100C94DB010C94DB010C94DB010C94DB01EC
S11300200C94DB010C94DB010C94DB010C943E0476
S11300300C940A0D0C94DB010C94DB010C94DB0191
S11300400C94DB010C94DB010C94DB010C94DB01BC
S11300500C94DB010C94DB010C94DB010C94DB01AC
S11300600C94DB010C94DB010C94DB010C94DB019C
S11300700C94DB010C94DB010C94DB010C94DB018C
S11300800C94DB010C94DB010C94DB010C94DB017C
S11300900C94DB010C94DB010C94520D0C94DB01E9
S11300A00C94DB010C94DB010C94DB010000008058
S11300B06861616168616161686161616861616110
S11300C06D6666666D6666666D6666666D66662DE9
S11300D000800000005C58965C58965C585651931A
S11300E05655565ADD405F5D5A7D00800000000081
S11300F000000000000000000000000000000000FC
S11301000000645F5B5F625F5B5F645F5B5F625FB5
S11301105B5F645F5B5F625F5B5F645F5B5F625FEB
S11301205B5F625D5A5D625D5A5D645D5A5D645DEC
S11301305A5D645F5B5F625F5B5F645F5B5F625FCE
S11301405B5F645F5B5F625F5B5F645F5B5F625FBB
S11301505B5F645F5B5F625F5B5F645F5B5F625FAB
S11301605B5F625D5A5D625D5A5D645D5A5D645DAC
S11301705A5D635F5C57C0A84068A14061A34063B7
S1130180A8A1A84068A14061A34063A89CE3E19CA6
S11301909D9FA1E3A4B0AB406BAE406EAB406BAE91
S11301A0406EAB406BAE406EAB406BEE00C00200E5
S11301B00004010000000000000000000000000036
S11301C0CF004E4F51918F409351D8C058914F8ECC
S11301D040519493409158988F40004E4F5151CFC5
S11301E0004E4F5191404F934051D840C0914F8E93
S11301F0405194405391585351505153558058573E
S11302009590515353555355554095585795904E85
S1130210505153535190904E4C4B4B8C8E504E4CEE
S11302204C8E9053555350505140514F4F405F5B4B
S11302305F625F5B5F645F5B5F625F5B5F645F5BCA
S11302405F625F5B5F645F5B584E4F5151004E4F7E
S1130250515100000075697367766A7165786C7333
S1130260673A2E7A78760300000000000000000050
S1130270000000000000000000000000000000007A
S1130280000000004F4D15521413145656545313C6
S1130290141614120F0D120F1412161416524F0DB9
S11302A0120F141216151213141614531614120FD7
S11302B0141314165456544F4D1552141314565601
S11302C0545313141614120F0D120F14121614167D
S11302D0524F0D120F14121615121314161453162E
S11302E014120F14131416545656561B19561B1970
S11302F0161412161112110F56561B19161B111231
S113030014161D1E1D1B561B19561B1916161412E6
S1130310161B191B561617161B19161112110F56F8
S113032057561B19561B19161412161112110F5673
S1130330561B19161B111214161D1E1D1B561B19B4
S1130340561B1916161412161B191B561617161BB4
S113035019161112110F56540000000012110F004B
S11303600A1112110F0A0605060B0A000F001211DA
S11303700F004A080B0A08050605080011241FBED1
S1130380CFEFCDBFD7E2DEBF11E2A0E0B0E2ECE0F8
S1130390F8E202C005900D92A23BB107D9F722E220
S11303A0A2EBB1E201C01D92A03CB207E1F70E94AA
S11303B0B30C0C9404140C940000CF92DF92FF92BF
S11303C00F931F93CF93DF938AE08093B4218AE045
S11303D090E00E9406128093E3219093E4210E940E
S11303E0DD0D0E947813C0E0D0E084E0C82ED12C4B
S11303F0FF24F3940091E3211091E4210C0F1D1FBD
S11304000E947313B6010E94DE119F2D01C0990F43
S11304108A95EAF7F80190832196CA30D10551F7FD
S1130420DF91CF911F910F91FF90DF90CF900895AE
S1130430EF92FF920F931F93CF93DF938FE08093FC
S1130440B4218FE090E00E9406128093E321909300
S1130450E4210E94DD0D0E947813C0E0D0E08FE01B
S1130460E82EF12C0091E3211091E4210C0F1D1FC3
S11304700E947313B7010E94DE118F5FF80180831D
S11304802196CF30D10571F7DF91CF911F910F9154
S1130490FF90EF9008950E94A5080E94DA0D811143
S11304A02EC0E091B821EC3070F41092B521109276
S11304B0B62181E08E0F8093B821F0E0E25FFF4D1A
S11304C080810C94AD0D8091B5219091B6219C0151
S11304D02F5F3F4F2093B5213093B621069778F0D4
S11304E01092B8211092B5211092B6211092B32126
S11304F01092B2210E940E0560E00C943A0808950F
S11305008091B5219091B6219C012F5F3F4F20939C
S1130510B5213093B621059730F085E50E94E510AA
S113052085E00C943F11089581110FC08DED91E089
S11305308093EB219093EC218BE492E08093E7216C
S11305409093E8218EE190E20EC088E192E08093DE
S1130550EB219093EC2180E892E08093E721909343
S1130560E8218AE190E28093E9219093EA2184E0F2
S113057090E08093E5219093E6210895CF93C82FCE
S11305808091B221823009F49AC030F4882359F062
S1130590813009F449C02BC1833009F4ECC08430A4
S11305A009F4EFC024C18091B321811108C0E09106
S11305B0EB21F091EC21099581E08093B3210E9415
S11305C00E0560E00E943A088091B82190E02091E5
S11305D0E5213091E62128173907A9F40E94DA0DA4
S11305E0811111C00E940E0560E00E943A0881E06A
S11305F08093B2211092B5211092B6211092B821A5
S11306008093B721F4C00E94DA0D8111F0C0E0910B
S1130610E921F091EA218091B82191E0980F90931B
S1130620B821E80FF11DC2C08091B5219091B62187
S11306308530910558F0089778F40E940E0560E023
S11306400E943A088091B5219091B6210196809339
S1130650B5219093B621CBC09091B8218091B72158
S1130660981307C00E940E0560E00E943A0882E0D9
S113067075C00E94DA0D8111BAC08091B821E09151
S1130680E321F091E421E80FF11DC0810E940E05E1
S11306906C2F0E943A08E091E321F091E4218091CB
S11306A0B82191E0980F9093B821E80FF11D808153
S11306B00E94AD0D1092B5211092B62198C00E94EF
S11306C00E056C2F0E943A088091B5219091B621B5
S11306D09C012F5F3F4F2093B5213093B6214A9759
S11306E058F00E94DA0D811107C00E940E0560E0E7
S11306F00E943A0884E032C0CC2309F478C00E94F6
S11307004705882309F473C00E94DA0D81116FC074
S11307101092B5211092B6218091B821E091E32185
S1130720F091E421E80FF11D8081C8131EC08C2FC5
S11307300E94AD0D8091B82191E0980F9093B8215B
S11307402091B721921353C08E5F8093B72190916B
S1130750B421981710F483E001C081E08093B221A2
S11307601092B5211092B62103C084E08093B22187
S11307701092B8213CC0E091E721F091E821CF919B
S113078009940E9481080E94DA0D811130C0E09121
S1130790B821E43078F41092B5211092B62181E0AA
S11307A08E0F8093B821F0E0E65FFF4D8081CF91FA
S11307B00C94AD0D8091B5219091B6219C012F5FD1
S11307C03F4F2093B5213093B621069780F01092C5
S11307D0B8211092B5211092B6211092B321109233
S11307E0B2210E940E0560E0CF910C943A08CF919B
S11307F0089584E98093850410928004E1E8F4E08C
S11308008081886F80831092820410928304E4E8CC
S1130810F4E080818D6C808308954093F02150939F
S1130820F1211092F3211092F4211092F52160939A
S1130830F7217093F821880F81608093860480915A
S1130840F5218130E1F780E008951092F221409380
S1130850F0215093F1211092F3211092F42110927F
S1130860F5216093F7217093F821880F8093860413
S11308708091F5218130E1F780E008951F920F9275
S11308800FB60F9211242F933F934F935F938F933F
S11308909F93EF93FF938091840483FF03C083E0CD
S11308A0809383048091840482FD04C08091840435
S11308B084FF08C083E08093830481E080938304F1
S11308C08093F5218091F521882331F0809184046F
S11308D080648093840479C08091840486FF47C037
S11308E08091840484FD43C08091F2218823C9F05F
S11308F08091EF21882369F08091F6218093870409
S11309008091F3219091F42101968093F3219093A7
S1130910F4218091F9218093870481E08093EF2171
S113092015C02091F7213091F8218091F321909105
S1130930F421AC014F5F5F4F4093F3215093F421B6
S1130940F901E80FF91F8081809387042091F32136
S11309503091F4218091F0219091F12128173907E9
S113096031F483E08093830481E08093F5218091C6
S1130970840487FF2AC02091F7213091F8218091C7
S1130980F3219091F421AC014F5F5F4F4093F32129
S11309905093F421F901E80FF91F20918704208373
S11309A02091F3213091F4218091F0219091F12153
S11309B02817390739F487E08093830481E0809312
S11309C0F52103C082E080938304FF91EF919F910E
S11309D08F915F914F913F912F910F900FBE0F9088
S11309E01F901895CF93DF9300D0CDB7DEB78983DE
S11309F041E050E0BE016F5F7F4F80E20E9425041A
S1130A0041E050E0BE016E5F7F4F80E20E940D0422
S1130A108A810F900F90DF91CF910895CF9380E05A
S1130A200E94F204C82F81E00E94F20490E0982F03
S1130A3088278C0F911DCF910895CF93DF9300D019
S1130A401F92CDB7DEB70E94F90380913A209091AE
S1130A503B20A0913C2089839A83AB8343E050E000
S1130A60BE016F5F7F4F80E20E9425040E940E0545
S1130A708093B9219093BA212396CDBFDEBFDF9135
S1130A80CF9108958091B9219091BA2108950E943F
S1130A900E058F3F2FEF9207B1F02091B9213091CD
S1130AA0BA218217930779F02091B9213091BA21A4
S1130AB08093B9219093BA212817390710F482E062
S1130AC0089581E0089580E0089580FF07C0209193
S1130AD08520309186204091872006C02091912066
S1130AE0309192204091932020938A2230938B223C
S1130AF040938C2220938D2230938E2240938F2218
S1130B0081FF07C0209188203091892040918A205C
S1130B1006C02091912030919220409193202093FF
S1130B2090223093912240939222209393223093E7
S1130B3094224093952282FF07C020918B2030910C
S1130B408C2040918D2006C02091912030919220DC
S1130B504091932020939622309397224093982299
S1130B602093992230939A2240939B2283FF07C0BB
S1130B7080918E2090918F20A091902006C080912A
S1130B80912090919220A091932080939C22909305
S1130B909D22A0939E2280939F229093A022A093B3
S1130BA0A1220895DF92EF92FF920F931F93CF93A8
S1130BB0DF93EC01FDEFFF2E40E050E001E010E098
S1130BC0A0E3EA2EC801042E02C0880F991F0A94DC
S1130BD0E2F78C239D23892B79F04F5F5F4F83E0ED
S1130BE0F80E4031510571F7DF91CF911F910F91AC
S1130BF0FF90EF90DF900895411103C0EDE2DE2EE7
S1130C0001C0DF2C20E030E08D2D820F6E2D0E947C
S1130C10D211892F90E0FC01EE0FFF1F8E0F9F1F52
S1130C20FC01E650FE4DD901AA0FBB1FA20FB31F52
S1130C30A059BF4D8D919D91AC9180839183A283E6
S1130C402F5F3F4F27303105F9F6C7CF709123202E
S1130C50609124205091222081E0850F883018F47F
S1130C608093222015C082E08093222091E0960F89
S1130C70983018F4909324200BC08093242091E0A2
S1130C80970F983018F49093232002C08093232068
S1130C9080E090E0272F362F452FFC01EE0FFF1F39
S1130CA0E80FF91FE650FE4D2083318342830196FD
S1130CB08833910579F768E370E08AEF91E20C9448
S1130CC0C411BF92CF92DF92EF92FF920F931F93C2
S1130CD0CF93DF93EC01C62E00E010E020E3E22E78
S1130CE0F12C3CE0B32ED090BB21C8018D0D911D99
S1130CF0B7010E94DE11AC01802F6B2D0E94D2112E
S1130D00292F30E0DA01AA0FBB1F4A0F5B1FDA015B
S1130D10A650BE4DF901EE0FFF1F2E0F3F1FF90124
S1130D20E45BFF4D2081318142812D933D934C93AF
S1130D3080E3D81202C01092BB210F5F1F4F003313
S1130D40110589F68091BB218F5F8093BB218C2D87
S1130D500E946505CE010E94D20568E370E08AEF27
S1130D6091E2DF91CF911F910F91FF90EF90DF906F
S1130D70CF90BF900C94C4116F927F928F92BF92C8
S1130D80CF92DF92EF92FF920F931F93CF93DF9353
S1130D908091BB21811104C08DED9DE00E947813E8
S1130DA08091BB2180FD07C0809125201816BCF4DA
S1130DB08FEF8093252048E150E020E030E0D0E040
S1130DC0609091207090922080909320A0913D207B
S1130DD0B0913E20C0913F208CE0B82E02C081E04B
S1130DE0E8CFF09025206F2D0F2C000C770B2630C8
S1130DF010F02231E0F0C901860F971FFC01EE0FBD
S1130E00FF1FE80FF91FE650FE4D60827182828257
S1130E10CA01861B970BBC01660F771F860F971FAD
S1130E20FC01E650FE4D6082718282822EC0C901AF
S1130E30860F971FFC01EE0FFF1FE80FF91FE65006
S1130E40FE4DA083B183C283FA01E61BF70B8D2FFD
S1130E506B2D0E94D211692F70E0CF01880F991F6A
S1130E60E80FF91F8F0106501E4DCB01880F991F03
S1130E70680F791FFB01E45BFF4D60817181828102
S1130E80F801608371838283DF5F2F5F3F4F4F5F81
S1130E905F4F2831310509F0A4CF8F2DFF0C990B3A
S1130EA09C012A5F3F4FF901EE0FFF1F2E0F3F1FDA
S1130EB0F901E650FE4D609094207090952080904A
S1130EC096206082718282824196FC01EE0FFF1FA0
S1130ED08E0F9F1FFC01E650FE4D6082718282825C
S1130EE000E310E0C7E1D0E00E947313BE010E944A
S1130EF0DE119801220F331F892B69F0C12CD12CEC
S1130F0080E4E82E200F311FF901E650FE4DC08227
S1130F10D182E28208C0200F311FF901E650FE4D54
S1130F206082718282820F5F1F4F08331105E1F6E0
S1130F308091BB218F5F8093BB2168E370E08AEFCF
S1130F4091E2DF91CF911F910F91FF90EF90DF908D
S1130F50CF90BF908F907F906F900C94C4116F923C
S1130F607F928F92CF92DF92EF929091BB218091EA
S1130F702520913120F48C5F8093252007C0845074
S1130F8080932520903211F41092BB21A0E4B0E0AC
S1130F9020E030E080912520082E000C990BA90157
S1130FA0440F551FBA01680F791F77FF02C0695FAC
S1130FB07F4FE3E075956795EA95E1F7662E712C0E
S1130FC0BD01680F791F77FF02C06D5F7F4F759574
S1130FD0679575956795862E420F531FFA01E65063
S1130FE0FE4D6082718282822F5F3F4F12972831BB
S1130FF0310581F6805C9F4FA0E3B0E0AD01421B58
S1131000530BBC0197FF02C06D5F7F4F75956795C9
S113101075956795C62EBC0197FF02C06F5F7F4F21
S113102075956795D62EB901F4E075956795FA958F
S1131030E1F7E62EFA01EE0FFF1F4E0F5F1FFA01D4
S1131040E650FE4DC082D182E282029721503109DE
S1131050A9F68091BB218F5F8093BB2168E370E088
S11310608AEF91E2EF90DF90CF908F907F906F9016
S11310700C94C411CF92DF92EF92CF93AC01C62FA0
S113108020E030E0ACE0822F6A2F0E94D21190E081
S1131090FC01EE0FFF1F8E0F9F1FFC01EB57FF4D4E
S11310A0908182816181C62EC294C69477E0C72262
S11310B0D92ED294D694E7E0DE22E82EE294E69488
S11310C0F7E0EF22F901EE0FFF1FE20FF31FE650E6
S11310D0FE4DC082D182E2822F5F3F4F2033310523
S11310E091F6CA010E94D2058C2F0E94650568E31F
S11310F070E08AEF91E2CF91EF90DF90CF900C9463
S1131100C4118091BB2191E0980F9093BB2183700F
S113111011F050E001C050E480E090E020E0352F71
S113112040E0FC01EE0FFF1FE80FF91FE650FE4DF3
S113113020833183428301968833910579F768E3EC
S113114070E08AEF91E20C94C411CF92DF92EF9297
S113115020E030E05CE0822F652F0E94D2114091A4
S1131160BB21840F837090E0D901AA0FBB1FA20F8B
S1131170B31FA650BE4DFC01EE0FFF1F8E0F9F1F25
S1131180FC01EB57FF4DC080D180E280CD92DD920F
S1131190EC922F5F3F4F20333105E9F64F5F4093C8
S11311A0BB218091852090918620A09187208093F7
S11311B08A2290938B22A0938C2280938D229093E9
S11311C08E22A0938F228091882090918920A091D3
S11311D08A208093902290939122A09392228093CC
S11311E0932290939422A093952280918B209091A6
S11311F08C20A0918D208093962290939722A09387
S113120098228093992290939A22A0939B22809172
S11312108E2090918F20A091902080939C22909377
S11312209D22A0939E2280939F229093A022A0931C
S1131230A12268E370E08AEF91E2EF90DF90CF9013
S11312400C94C411CF92DF92EF92CF93AC01C62FCE
S113125080E090E0C0904020D0904120E090422077
S1131260FC01EE0FFF1FE80FF91FE650FE4DC08290
S1131270D182E28201968833910591F7A091BB2136
S11312808A2F60E30E94D211C0909420D0909520C0
S1131290E0909620911107C0C092FA21D092FB21D0
S11312A0E092FC212AC08A2F68E10E94D211911198
S11312B007C0C0924222D0924322E09244221DC031
S11312C0892F90E028E130E0281B390BF901EE0F5B
S11312D0FF1F2E0F3F1FF901E650FE4DC082D18241
S11312E0E2824896FC01EE0FFF1F8E0F9F1FFC0148
S11312F0E650FE4DC082D182E282AF5FA093BB2153
S1131300CA010E94D2058C2F0E94650568E370E033
S11313108AEF91E2CF91EF90DF90CF900C94C411BB
S11313206F927F928F92CF92DF92EF92CF93DF935F
S113133080E090E020E430E040E0FC01EE0FFF1F8D
S1131340E80FF91FE650FE4D208331834283019656
S11313508033910579F7C0904320D0904420E090E9
S113136045206090462070904720809048209C0142
S1131370220F331F280F391FF901E650FE4D80FF5D
S113138004C060827182828203C0C082D182E28200
S113139001968833910559F72091BB212D5F209345
S11313A0BB21822F60E30E94D211492F50E0FA0141
S11313B0EE0FFF1F4E0F5F1FFA01E650FE4DC09067
S11313C04920D0904A20E0904B20C082D182E28212
S11313D030E0C9010196C0E3D0E0BE010E94DE11F5
S11313E0FC01EE0FFF1F8E0F9F1FFC01E650FE4D08
S11313F0C082D182E282C9010296BE010E94DE113E
S1131400FC01EE0FFF1F8E0F9F1FFC01E650FE4DE7
S1131410C082D182E28268E370E08AEF91E2DF91D8
S1131420CF91EF90DF90CF908F907F906F900C943E
S1131430C41188ED84BF82E08093500080915100F4
S113144081FFFCCF88ED84BF91E09093400084BF7E
S1131450109241000895E0E0F6E081E0828388E1A3
S1131460808BA0E6B6E080EE11968C9311971696C9
S11314708C93A0E4B6E080E811968C9311971696AD
S11314808C9384E08183089580E880934506E0E0AE
S1131490F6E080EF828388E1848B858B868B878B53
S11314A0089580E1809341068093610684E08093EF
S11314B005060895CF93DF93CDB7DEB7A297CDBFCE
S11314C0DEBF833009F491C040F4813009F472C066
S11314D008F080C00E94710D76C0853009F4DDC02B
S11314E008F490C0863009F43FC18F3E09F04DC125
S11314F00E94510A0E94741189E09DE389A39AA372
S11315008BEE90E089839A8381E090E08B839C83C7
S11315102AEE30E02D833E838F83988725ED30E0DB
S113152029873A8725E130E02B873C8722ED30E09C
S11315302D873E8723E030E02F87388B21ED30E084
S1131540298B3A8B8B8B9C8B20ED30E02D8B3E8B43
S11315508F8B988F80EB90E0898F9A8F80E290E058
S11315608B8F9C8F8CEA90E08D8F9E8F84E090E02F
S11315708F8F98A380E999E09F938F938DB79EB73F
S113158082978DBF9EBFADB7BEB7119682E2FE01B2
S1131590319601900D928A95E1F70E94710FCDBFAB
S11315A0DEBF8BE691E1A296CDBFDEBFDF91CF9186
S11315B00C942B1080E1809341060E94440A0E94FF
S11315C0D20D0E941D05A296CDBFDEBFDF91CF9143
S11315D00C94741180E1809341060E94440A0E9495
S11315E0D20D0E941D0580E00AC080E1809341066F
S11315F00E94440A0E94D20D0E941D0581E00E94AF
S11316009402E1CF0E94510A0E9474118BED95E37C
S113161089A39AA38CE593E089839A838FE190E070
S11316208B839C8388E593E08D839E8384E090E0A4
S11316308F83988784E892E089879A8784ED90E085
S11316408B879C8789E692E08D879E878BE190E06B
S11316508F87988B87E692E0898B9A8B82E090E063
S11316608B8B9C8B86E692E08D8B9E8B81E090E049
S11316708F8B988F85E592E0898F9A8F81E190E036
S11316808B8F9C8F82E592E08D8F9E8F83E090E01C
S11316908F8F98A38CEB96E04BC00E94E2108823B6
S11316A009F473C00E94510A0E94741189E09DE3F9
S11316B089A39AA38EE492E089839A8384E090E0DC
S11316C08B839C838DE492E08D839E8381E090E004
S11316D08F83988720EC31E029873A872DE830E022
S11316E02B873C872EEA31E02D873E8722E130E0CC
S11316F02F87388B2DEA31E0298B3A8B8B8B9C8B8F
S11317002CEA31E02D8B3E8B8F8B988F82E091E019
S1131710898F9A8F8AEA90E08B8F9C8F8CEE90E071
S11317208D8F9E8F86E190E08F8F98A38FEA97E04C
S11317309F938F938DB79EB782978DBF9EBFADB792
S1131740BEB7119682E2FE01319601900D928A9500
S1131750E1F70E94710FCDBFDEBFA296CDBFDEBF01
S1131760DF91CF910C9427100E94EF10882369F029
S11317700E94710D0E9474110E94440AA296CDBF6A
S1131780DEBFDF91CF910C941D05A296CDBFDEBFC5
S1131790DF91CF9108958091080680FD13C02FEF4B
S11317A080E792E0215080409040E1F700C00000C3
S11317B08091080680FD06C08091080680FFFCCF5A
S11317C00C946B110895E0E6F6E0248190E0019614
S11317D035E0880F991F3A95E1F7922F9F71892B75
S11317E0848308952091080630E020953095207F69
S11317F0332784E0359527958A95E1F7C9018170EF
S11318009927AC0193E0440F551F9A95E1F7C9015C
S113181082709927880F991F842BA901447055273A
S113182055954795842B73E0369527957A95E1F77E
S1131830822B0895CF93DF930E94F20BC82F0E944E
S11318404705D82F0E94DA0DCC2311F1DD2301F1D5
S113185081111EC08C2F0E94AD0D8091BC21E82FF8
S1131860F0E0E95DFF4D9081C91310C08F5F809354
S1131870BC219091262089130BC085E50E94F210AB
S11318801092BC218FEE0E943F1102C01092BC2125
S11318908C2FDF91CF910895CF930E94F20BC82F24
S11318A0882369F00E944705882349F0C0933820B3
S11318B042E050E067E370E282E10E9425048C2F4D
S11318C0CF91089580E28093410690E4909342067C
S11318D090E190935606EFE3FFE13197F1F700C0F2
S11318E000009091480696FF02C080E00895EFE35F
S11318F0FFE13197F1F700C0000080934506EFE364
S1131900FFE13197F1F700C000009091480696FF7F
S1131910ECCFEFE3FFE13197F1F700C000008093D3
S11319204606EFE3FFE13197F1F700C00000909124
S1131930480696FDDACFEFE3FFE13197F1F700C0F7
S1131940000080934506EFE3FFE13197F1F700C013
S113195000009091480696FFC8CF80934606809376
S1131960420685E5089588E0809301068093060683
S1131970F8940E94190A87E08093A20078940E9448
S11319802B0A0E941D058091080680FFFCCF0E944F
S1131990620C0E940A110E94FC100E94E30B0E9438
S11319A0FC100E945A0A0E94FF10C8E00E94CB0B50
S11319B08091BD219091BE210A97C0F3C093070680
S11319C00E94FC10843078F48230D8F48823B1F07B
S11319D08130D9F40E941A0CD82F0E9442056D2F31
S11319E00E94610612C0863081F40E944C0CD82FEC
S11319F00E940E056D2F0E94220907C00E94260630
S1131A0004C00E94F20B0E94BE021092BD211092EB
S1131A10BE21CCCF1F920F920FB60F9211242F9399
S1131A203F934F935F936F937F938F939F93AF9362
S1131A30BF93EF93FF930E943310FF91EF91BF91F7
S1131A40AF919F918F917F916F915F914F913F9152
S1131A502F910F900FBE0F901F9018951F920F9209
S1131A600FB60F9211242F933F934F935F936F936D
S1131A707F938F939F93AF93BF93EF93FF930E94B2
S1131A80D80DFF91EF91BF91AF919F918F917F916D
S1131A906F915F914F913F912F910F900FBE0F90D7
S1131AA01F9018951F920F920FB60F9211248F93C7
S1131AB09F938091BD219091BE2101968093BD2179
S1131AC09093BE219F918F910F900FBE0F901F9006
S1131AD01895E0E4F8E081E08183848384E08083E6
S1131AE00895E0E4F9E01182148283E0878387E0BB
S1131AF0808388E391E086A397A3089580EC809384
S1131B008101E0E0F8E080EB94E086A397A387E00E
S1131B108083E0E0F3E081E0818398E09283838333
S1131B2085E08083E0E0F1E080E4808B81E3828BD8
S1131B3085E1848B83E1818B80E8808308958091A3
S1131B40392090E0E0E0F1E0868B978B87E990E222
S1131B50808F918F85E8808B0895CF93DF9391E0F8
S1131B609093BF21E82FF0E0EE0FFF1FE154FF4DEB
S1131B7080819181C0E4D8E088A799A70E949F0D35
S1131B8084E08883DF91CF9108951092BF21E0E033
S1131B90F1E081898061818BE0E4F8E010A211A278
S1131BA0108208950E94690D0E94710D0C947E0D9F
S1131BB00C94C50D8091BF21089580910102806528
S1131BC0809301028091020280618093020210924C
S1131BD003028091040284608093040281E0809374
S1131BE0060280912002816080932002809121026C
S1131BF080618093210285E0809300028091060237
S1131C0080FFFCCF81E080930602809124029091B2
S1131C102502109200020895E0E0F8E01182148297
S1131C2023E02683108286A397A30895E0E4F8E0D6
S1131C3081E08183848384E080830895E0E4F9E093
S1131C4081E08183848384E080830895EF92FF920E
S1131C500F931F93CF93DF93E901D70121E0FC0198
S1131C60208328813981FB01E20FF31F6081F80191
S1131C7020813181420F531FFA01208130E00C9002
S1131C8002C0359527950A94E2F720FD0DC0262F52
S1131C90229526952695237041E050E001C0440F1B
S1131CA02A95EAF7415001C04FE0FC014083E62F3A
S1131CB0EF7351F0F0E0EE0FFF1FEF5CFE4D8081FB
S1131CC091819695879502C080E090E028813981C2
S1131CD02F5F3F4F288339832C912F5F283011F0D9
S1131CE02C9308C01C92F801208131812F5F3F4F53
S1131CF020833183DF91CF911F910F91FF90EF905B
S1131D000895EF92FF920F931F934091A622509152
S1131D10A7226091B8227091B92289EDE82E81E260
S1131D20F82E0AED11E22CED31E288ED91E20E94E9
S1131D30260E80936808909369081F910F91FF9075
S1131D40EF900895EF92FF920F931F934091BA2260
S1131D505091BB226091B6227091B7228AECE82E92
S1131D6081E2F82E0BEC11E22DEC31E289EC91E2E8
S1131D700E94260E80936809909369091F910F9120
S1131D80FF90EF9008958091DF21882381F091E006
S1131D909093D1212091AA223091AB222093B82292
S1131DA03093B9222091B0223091B12212C0909187
S1131DB0DE21992391F01092D1212091A822309113
S1131DC0A9222093B8223093B9222091A4223091E1
S1131DD0A5222093A6223093A7221092D8211092F4
S1131DE0DC211092DD211092DA211092DB21109275
S1131DF0D9219091D021992381F091E09093C2212F
S1131E002091B4223091B5222093B6223093B72288
S1131E102091A2223091A32212C09091CF21992324
S1131E2091F01092C2212091B2223091B3222093DA
S1131E30B6223093B7222091AC223091AD22209368
S1131E40BA223093BB221092C9211092CD21109254
S1131E50CE211092CB211092CC211092CA21811153
S1131E6003C08091DE2181110E94810E8091D021D6
S1131E70811103C08091CF2181110C94A20E089589
S1131E80CF92DF92EF92FF920F931F93CF93DF9342
S1131E901F92CDB7DEB76C017B018A01CA010E9493
S1131EA00612D7018D939C9380E090E080179107F0
S1131EB071F0F601E80FF91FE491E9832981D70154
S1131EC0ED91FC91E80FF91F20830196EFCF0F905D
S1131ED0DF91CF911F910F91FF90EF90DF90CF9002
S1131EE008952F923F924F925F926F927F928F92BA
S1131EF09F92AF92BF92CF92DF92EF92FF920F9395
S1131F001F93CF93DF93CDB7DEB78FA998ADAD887C
S1131F10BE880F89188D8D8C9E8CEF8CF8A04DA0F7
S1131F205EA02FA038A4CDA4DEA46FA478A88093CB
S1131F30AE229093AF228DA99EA90E940C0E0E94FE
S1131F40160E0E941E0E81149104C9F081E0809344
S1131F50DE21A70168EA72E2C4010E94400F4BA18E
S1131F605CA164EA72E289A19AA10E94400FE09206
S1131F70D421F092D521E092D221F092D321A11460
S1131F80B104C9F081E08093DF21A8016AEA72E21A
S1131F90C5010E94400F4B8D5C8D60EB72E2898D10
S1131FA09A8D0E94400F0093D6211093D72100935D
S1131FB0D2211093D321C114D104C9F081E08093BC
S1131FC0CF21A30162EB72E2C6010E94400F4BA92C
S1131FD05CA96CEA72E289A99AA90E94400F6092F6
S1131FE0C5217092C6216092C3217092C42141140C
S1131FF05104C9F081E08093D021A10164EB72E225
S1132000C2010E94400F4BA55CA562EA72E289A559
S11320109AA50E94400F2092C7213092C821209295
S1132020C3213092C421DF91CF911F910F91FF9072
S1132030EF90DF90CF90BF90AF909F908F907F9064
S11320406F905F904F903F902F900C94C30E86E05A
S11320508093000808958093C0219093C12186E065
S113206080930008089581E080930C088091D82122
S1132070811148C0109240081092680810926908B3
S11320802091DC213091DD218091D2219091D321C6
S113209028173907A0F18091D1218823D9F0109213
S11320A0D1218091D4219091D5218093D2219093F4
S11320B0D3218091A8229091A9228093B822909351
S11320C0B9228091A4229091A5228093A622909374
S11320D0A72209C0E091C021F091C121309719F0E5
S11320E01092000809951092D8211092DC211092C8
S11320F0DD211092DA211092DB211092D9210E9465
S1132100810E03C081508093D8218091C92181110F
S113211042C01092400910926809109269092091F6
S1132120CD213091CE218091C3219091C4212817D3
S1132130390770F18091C2218823F1F08091CF2179
S11321408823D1F01092C2218091C5219091C6219B
S11321508093C3219093C4218091B2229091B322A1
S11321608093B6229093B7228091AC229091AD22B5
S11321708093BA229093BB221092C9211092CD2150
S11321801092CE211092CB211092CC211092CA2110
S11321900E94A20E03C081508093C921E091AE2217
S11321A0F091AF2209952FEF83EF91E02150804009
S11321B09040E1F700C0000084E0809340088093E1
S11321C0400908958091E12108958093E12160916F
S11321D0E121611165E582E090E00C948B1380911C
S11321E0E02108958093E0216091E021611165E58B
S11321F083E090E00C948B138091E221089560E0D9
S113220081E090E00C948B1388ED84BF83E080938D
S113221080000895CF93C82F81E090E00E9483133B
S11322208093E2218091E221873040F08091E22185
S11322308F3E21F01092E2210E94FF1082E090E094
S11322400E9483138093E1218091E121853531F04F
S1132250CC2321F08C2F85758093E12183E090E0DD
S11322600E9483138093E0218091E021853529F039
S1132270CC2319F0C575C093E021CF910895853022
S113228091F49091E121953521F09091E0219535DB
S1132290A9F49091E121953591F09091E021953543
S11322A071F486E00CC0863029F49091E0219535D4
S11322B029F405C0873018F08F3E09F080E0682FBC
S11322C081E090E00E948B138091CF0187FDFCCFC9
S11322D00E940411FFCF8091E2218F5F8093E2215D
S11322E08091E2210E943F11A0E0B1E080EB8C9349
S11322F0D1961C92D19781E0D2968C93D297D396A3
S11323001C92D397E0ECF9E0DC96ED93FC93DD9717
S11323109DE6D4969C93A0E6B6E050961C92509706
S113232051968C93519783E053968C9353979BE0EB
S113233011969C93A0E8B1E09BE69C9318961C929E
S1132340189799E616969C9316971E961C9293E1FD
S113235096831782128292EC9483158298E0938379
S1132360E0E6F4E091E1948385838EE9868386E157
S113237086878DE0848784E5808380E5818380E49B
S1132380828380EA83830895E0E0F1E080AF91AF37
S1132390CB01880F991F680F791F66AB77AB84E870
S11323A080AB0895991B79E004C0991F961708F033
S11323B0961B881F7A95C9F78095089597FB072E79
S11323C016F4009407D077FD09D00E94F21107FC9F
S11323D005D03EF4909581959F4F08957095619531
S11323E07F4F0895AA1BBB1B51E107C0AA1FBB1F47
S11323F0A617B70710F0A61BB70B881F991F5A958D
S1132400A9F780959095BC01CD0108950F931F9372
S1132410CF93DF938230910510F482E090E0E09155
S1132420BE22F091BF2220E030E0A0E0B0E030977F
S113243019F1408151810281138148175907C8F06D
S11324408417950769F4109731F012960C9312973C
S113245013961C9327C00093BE221093BF2222C060
S11324602115310519F04217530718F49A01BD01DB
S1132470EF01DF01F801DBCF21153105F9F0281B4D
S1132480390B2430310580F48A819B8161157105F3
S113249021F0FB018283938304C08093BE22909336
S11324A0BF22FE01329644C0FE01E20FF31F819366
S11324B0919322503109288339833AC02091BC2258
S11324C03091BD22232B41F420910220309103202E
S11324D02093BC223093BD22209100203091012012
S11324E02115310541F42DB73EB740910420509198
S11324F00520241B350BE091BC22F091BD22E2178C
S1132500F307A0F42E1B3F0B2817390778F0AC0112
S11325104E5F5F4F2417350748F04E0F5F1F4093FF
S1132520BC225093BD228193919302C0E0E0F0E07D
S1132530CF01DF91CF911F910F910895CF93DF9336
S1132540009709F481C0FC01329712821382A09192
S1132550BE22B091BF22109781F420813181820F75
S1132560931F2091BC223091BD222817390751F5C1
S1132570E093BC22F093BD2267C0ED0120E030E07F
S1132580CE17DF0740F44A815B819E014115510556
S1132590F1F0EA01F5CFC283D38340815181840FE6
S11325A0951FC817D90759F488819981840F951FFD
S11325B00296808391838A819B81828393832115F0
S11325C0310529F4E093BE22F093BF223DC0E90116
S11325D0EA83FB8349915991C40FD51FEC17FD077A
S11325E061F480819181840F951F0296E9018883AB
S11325F09983828193818A839B83E0E0F0E0129641
S11326008D919C911397009719F0FD01DC01F7CF90
S11326108D919C9111979D012E5F3F4F820F931FC7
S11326202091BC223091BD222817390769F43097D4
S113263029F41092BE221092BF2202C01282138289
S1132640A093BC22B093BD22DF91CF9108958F92C5
S11326509F92AF92BF92CF92DF92EF92FF92CF936D
S1132660DF93EC01688179818A819B816115710511
S11326708105910521F464E279ED8BE597E02DE184
S113268033EF41E050E00E94A11349015A019B013C
S1132690AC01A7EAB1E40E94C0136B017C01ACEE6B
S11326A0B4EFA50194010E94CE13DC01CB018C0D83
S11326B09D1DAE1DBF1DB7FF03C00197A109B04802
S11326C088839983AA83BB839F77DF91CF91FF90FF
S11326D0EF90DF90CF90BF90AF909F908F90089530
S11326E00E942713089586E090E20E94271308951C
S11326F0A0E0B0E08093062090930720A0930820E8
S1132700B0930920089503D0808199270895FC018E
S1132710E050F04F0895262FAF93BF93E0ECF1E023
S1132720378537FDFDCFDC01A050B04F2C9325E356
S1132730228728ED31E024BF33870196BF91AF9102
S11327400895052E97FB1EF400940E94B81357FDBC
S113275007D00E94D31307FC03D04EF40C94B81393
S113276050954095309521953F4F4F4F5F4F0895B9
S113277090958095709561957F4F8F4F9F4F0895E9
S11327800E94F513A59F900DB49F900DA49F800DFA
S1132790911D11240895B7FF0C94C0130E94C01317
S11327A0821B930B0895A1E21A2EAA1BBB1BFD01E9
S11327B00DC0AA1FBB1FEE1FFF1FA217B307E4071C
S11327C0F50720F0A21BB30BE40BF50B661F771F74
S11327D0881F991F1A9469F7609570958095909554
S11327E09B01AC01BD01CF010895A29FB001B39F2D
S11327F0C001A39F700D811D1124911DB29F700D06
S10F2800811D1124911D0895F894FFCF50
S113280C0000C0222000010000000B0E0F0F0F0C63
S113281C080508050C08070306030F0E0D0C0C081D
S113282C0501020202FF100F0B090F0B090F0B0914
S113283C04060908090D0F01001A06FFFF00101009
S113284C1020004040400040404040000040000444
S113285C10001010001004004000001000041000C0
S113286C10040010000040000410001010001004AC
S113287C00000002020204040410101004040402F8
S113288C0202000000004000400000000040202034
S113289C00000000101010FF0FA00FD80EAC0D1C80
S11328AC0C280AD0071405F40190012C01C800640B
S11328BC00B404FC0448059805EC054806A8060C6D
S11328CC077807E8076008E0086809F809900A30F7
S11328DC0BD80B900C4C0D180EF00ED00FC410C06E
S11328EC11D012F0131C156016B4171C199C1A3055
S11328FC1CDC1DA41F84218423A025DC273C2AC0B6
S113290C2C682F383234356038B83B483F084304C0
S113291C47404BB84F74547C59CC5E7064686ABCA5
S113292C707077887E14860C8E8096709FECA8FC51
S113293CB2B404FC0448059805EC054806A8060C3A
S113294C077807E8076008E0086809F809900A3076
S113295C0BD80B900C4C0D180EF00ED00FC410C0ED
S113296C11D012F0131C156016B4171C199C1A30D4
S113297C1CDC1DA41F84218423A025DC273C2AC035
S113298C2C682F383234356038B83B483F08430440
S113299C47404BB84F74547C59CC5E7064686ABC25
S11329AC707077887E14860C8E8096709FECA8FCD1
S10529BCB20063
S9030000FC
