S01E0000786D656761313665352D706C756D6275732D66756C6C2E73726563DE
S11300000C9456000C9473000C9473000C947300BD
S11300100C9473000C9473000C9473000C94730090
S11300200C9473000C9473000C9473000C9475007E
S11300300C9473000C9473000C9473000C94730070
S11300400C9473000C9473000C9473000C94730060
S11300500C9473000C9473000C9473000C94730050
S11300600C9473000C9473000C9473000C94730040
S11300700C9473000C9473000C9473000C94730030
S11300800C9473000C9473000C9473000C94730020
S11300900C9473000C9473000C9473000C94730010
S11300A00C9473000C9473000C94730011241FBE01
S11300B0CFEFCDBFD7E2DEBF10E2A0E0B0E2E2E0D6
S11300C0F3E002C005900D92A030B107D9F720E209
S11300D0A0E0B0E201C01D92AE30B207E1F70E9489
S11300E038010C947F010C9400001F920F920FB6FC
S11300F00F9211242F933F934F935F938F939F936A
S1130100EF93FF938091840483FF03C083E0809383
S113011083048091840482FD04C08091840484FF5C
S113012008C0E3E8F4E083E0808381E08083809387
S1130130092080910920882331F0E4E8F4E08081EB
S11301408064808379C08091840486FF47C0809155
S1130150840484FD43C0809106208823C9F08091E3
S11301600320882369F080910A208093870480917A
S113017007209091082001968093072090930820EF
S113018080910D208093870481E08093032015C023
S113019020910B2030910C20809107209091082011
S11301A0AC014F5F5F4F4093072050930820F90143
S11301B0E80FF91F808180938704209107203091F4
S11301C0082080910420909105202817390731F4E4
S11301D083E08093830481E08093092080918404E8
S11301E0882354F520910B2030910C208091072016
S11301F090910820AC014F5F5F4F409307205093CC
S11302000820F901E80FF91F209187042083209129
S11302100720309108208091042090910520281710
S1130220390739F487E08093830481E080930920BF
S113023003C082E080938304FF91EF919F918F919B
S11302405F914F913F912F910F900FBE0F901F9090
S113025018950E944301853019F0863021F005C0BD
S11302600E943D0102C00E9440010E94460108957F
S11302700E944E010E942901FFCF80910120089520
S113028080910020089580910220089560E081E02B
S113029090E00E94690110920220089581E090E0AC
S11302A00E9461018093022082E090E00E9461013B
S11302B08093012083E090E00E94610180930020FC
S11302C0089503D0808199270895FC01E050F04FF0
S11302D00895262FAF93BF93E0ECF1E0378537FD07
S11302E0FDCFDC01A050B04F2C9325E3228728EDED
S11302F031E024BF33870196BF91AF910895F894FC
S1050300FFCF29
S9030000FC
