:100000000C94BE010C94DB010C94DB010C949C0D50
:100010000C94DB010C94DB010C94DB010C94DB01F0
:100020000C94DB010C94DB010C94DB010C94760442
:100030000C94780D0C94DB010C94DB010C94DB0127
:100040000C94DB010C94DB010C94DB010C94DB01C0
:100050000C94DB010C94DB010C94DB010C94DB01B0
:100060000C94DB010C94DB010C94DB010C94DB01A0
:100070000C94DB010C94DB010C94DB010C94DB0190
:100080000C94DB010C94DB010C94DB010C94DB0180
:100090000C94DB010C94DB010C94C00D0C94DB017F
:1000A0000C94DB010C94DB010C94DB01000000805C
:1000B0006861616168616161686161616861616114
:1000C0006D6666666D6666666D6666666D66662DED
:1000D00000800000005C58965C58965C585651931E
:1000E0005655565ADD405F5D5A7D00800000000085
:1000F0000000000000000000000000000000000000
:100100000000645F5B5F625F5B5F645F5B5F625FB9
:100110005B5F645F5B5F625F5B5F645F5B5F625FEF
:100120005B5F625D5A5D625D5A5D645D5A5D645DF0
:100130005A5D645F5B5F625F5B5F645F5B5F625FD2
:100140005B5F645F5B5F625F5B5F645F5B5F625FBF
:100150005B5F645F5B5F625F5B5F645F5B5F625FAF
:100160005B5F625D5A5D625D5A5D645D5A5D645DB0
:100170005A5D635F5C57C0A84068A14061A34063BB
:10018000A8A1A84068A14061A34063A89CE3E19CAA
:100190009D9FA1E3A4B0AB406BAE406EAB406BAE95
:1001A000406EAB406BAE406EAB406BEE00C00200E9
:1001B000000401000000000000000000000000003A
:1001C000CF004E4F51918F409351D8C058914F8ED0
:1001D00040519493409158988F40004E4F5151CFC9
:1001E000004E4F5191404F934051D840C0914F8E97
:1001F0004051944053915853515051535580585742
:100200009590515353555355554095585795904E89
:10021000505153535190904E4C4B4B8C8E504E4CF2
:100220004C8E9053555350505140514F4F405F5B4F
:100230005F625F5B5F645F5B5F625F5B5F645F5BCE
:100240005F625F5B5F645F5B584E4F5151004E4F82
:10025000515100000075697367766A7165786C7337
:10026000673A2E7A78760300000000000000000054
:10027000000000000000000000000000000000007E
:10028000000000004F4D15521413145656545313CA
:10029000141614120F0D120F1412161416524F0DBD
:1002A000120F141216151213141614531614120FDB
:1002B000141314165456544F4D1552141314565605
:1002C000545313141614120F0D120F141216141681
:1002D000524F0D120F141216151213141614531632
:1002E00014120F14131416545656561B19561B1974
:1002F000161412161112110F56561B19161B111235
:1003000014161D1E1D1B561B19561B1916161412EA
:10031000161B191B561617161B19161112110F56FC
:1003200057561B19561B19161412161112110F5677
:10033000561B19161B111214161D1E1D1B561B19B8
:10034000561B1916161412161B191B561617161BB8
:1003500019161112110F56540000000012110F004F
:100360000A1112110F0A0605060B0A000F001211DE
:100370000F004A080B0A08050605080011241FBED5
:10038000CFEFCDBFD7E2DEBF11E2A0E0B0E2EEE3F7
:10039000F8E202C005900D92A03AB107D9F722E227
:1003A000A0EAB1E201C01D92AE3AB207E1F70E94A5
:1003B000220D0C941D140C9400000E943B090E9415
:1003C0004B0E81112FC0E091A621EC3078F41092F1
:1003D000A3211092A42181E08E0F8093A621F0E04A
:1003E000E25FFF4D80810E941B0E08958091A32142
:1003F0009091A4219C012F5F3F4F2093A321309324
:10040000A421069778F01092A6211092A3211092B1
:10041000A4211092A1211092A0210E94460560E023
:100420000E94BE0808958091A3219091A4219C016F
:100430002F5F3F4F2093A3213093A421059730F0E5
:1004400085E50E94181185E00E945F110895E0E0A3
:10045000F2E0818180658183828180618283138261
:1004600084818460848381E0868380A1816080A30D
:1004700081A1806181A385E080838091060280FF55
:10048000FCCFE0E0F2E081E0868384A195A11082B8
:1004900008950F931F93CF938AE08093A2218AE05F
:1004A00090E00E941F128093D1219093D2210E944C
:1004B00027020E949113C0E018C00091D121109131
:1004C000D2210C0F111D0E948C13837090789923F8
:1004D00024F401978C6F9F6F019691E001C0990FF2
:1004E0008A95EAF7F8019083CF5FCA3030F3CF9155
:1004F0001F910F9108950F931F93CF938FE08093D7
:10050000A2218FE090E00E941F128093D12190934E
:10051000D2210E9427020E949113C0E010C00091D6
:10052000D1211091D2210C0F111D0E948C136FE06C
:1005300070E00E94F7118F5FF8018083CF5FCF30AA
:1005400070F3CF911F910F910895811119C089E423
:1005500092E08093D9219093DA218DED91E0809300
:10056000D5219093D6218EE190E28093D72190936C
:10057000D82184E090E08093D3219093D4210895F2
:100580008BE792E08093D9219093DA2183E192E086
:100590008093D5219093D6218AE190E28093D72150
:1005A0009093D82184E090E08093D3219093D4213C
:1005B0000895CF93C82F8091A021823009F4ABC059
:1005C00030F4882359F0813009F44CC046C183309F
:1005D00009F408C1843009F40BC13FC18091A12105
:1005E000811108C0E091D921F091DA21099581E0CB
:1005F0008093A1210E94460560E00E94BE08809180
:10060000A62190E02091D3213091D4218217930725
:10061000A9F40E944B0E811111C00E94460560E0B2
:100620000E94BE0881E08093A0211092A321109225
:10063000A4211092A6218093A5210FC10E944B0EE8
:1006400081110BC1E091D721F091D8218091A62191
:1006500091E0980F9093A621E80FF11D80810E94F0
:100660001B0EFBC08091A3219091A42185309105A0
:1006700030F401968093A3219093A421EEC00897B3
:1006800078F40E94460560E00E94BE088091A32194
:100690009091A42101968093A3219093A421DDC081
:1006A0009091A6218091A52198130FC00E94460524
:1006B00060E00E94BE0882E08093A0211092A321F6
:1006C0001092A4211092A621C8C00E944B0E811145
:1006D000C4C08091A621E091D121F091D221E80FF0
:1006E000F11DC0810E9446056C2F0E94BE08E0915A
:1006F000D121F091D2218091A62191E0980F909381
:10070000A621E80FF11D80810E941B0E1092A321EB
:100710001092A421A2C00E9446056C2F0E94BE0820
:100720008091A3219091A4219C012F5F3F4F2093A2
:10073000A3213093A421459798F00E944B0E81117C
:100740000FC00E94460560E00E94BE0884E08093CE
:10075000A0211092A3211092A4211092A6217DC065
:10076000CC2309F47AC00E947B05882309F475C064
:100770000E944B0E811171C01092A3211092A421EE
:100780008091A621E091D121F091D221E80FF11DB5
:100790008081C81321C08C2F0E941B0E8091A6213E
:1007A0008F5F8093A6219091A521891356C09F5FEA
:1007B0009093A5218091A221891720F483E0809352
:1007C000A02103C081E08093A0211092A321109268
:1007D000A4211092A62141C084E08093A021109210
:1007E000A6213BC0E091D521F091D621099535C0D5
:1007F0000E9409090E944B0E81112FC0E091A62191
:10080000E43078F41092A3211092A42181E08E0F9D
:100810008093A621F0E0E65FFF4D80810E941B0ED1
:100820001CC08091A3219091A4219C012F5F3F4F78
:100830002093A3213093A421069778F01092A6214B
:100840001092A3211092A4211092A1211092A02114
:100850000E94460560E00E94BE08CF91089584E999
:100860008093850410928004E1E8F4E08081886F31
:1008700080831092820410928304E4E8F4E0808183
:100880008D6C808308954093DE215093DF21109278
:10089000E1211092E2211092E3216093E52170930F
:1008A000E62190E0880F991F8160809386048091F3
:1008B000E3218130E1F780E008951092E021409338
:1008C000DE215093DF211092E1211092E22110925B
:1008D000E3216093E5217093E621880F80938604DD
:1008E0008091E3218130E1F780E008951F920F921B
:1008F0000FB60F9211242F933F934F935F938F93D3
:100900009F93EF93FF938091840483FF03C083E060
:10091000809383048091840482FD04C080918404C8
:1009200084FF08C0E3E8F4E083E0808381E0808313
:100930008093E3218091E321882331F0E4E8F4E01F
:1009400080818064808379C08091840486FF47C061
:100950008091840484FD43C08091E0218823C9F004
:100960008091DD21882369F08091E42180938704C0
:100970008091E1219091E22101968093E121909371
:10098000E2218091E7218093870481E08093DD213B
:1009900015C02091E5213091E6218091E1219091CF
:1009A000E221AC014F5F5F4F4093E1215093E22180
:1009B000F901E80FF91F8081809387042091E121DC
:1009C0003091E2218091DE219091DF2128173907B3
:1009D00031F483E08093830481E08093E32180916C
:1009E0008404882354F52091E5213091E6218091FB
:1009F000E1219091E221AC014F5F5F4F4093E121F3
:100A00005093E221F901E80FF91F20918704208318
:100A10002091E1213091E2218091DE219091DF212E
:100A20002817390739F487E08093830481E08093A5
:100A3000E32103C082E080938304FF91EF919F91B3
:100A40008F915F914F913F912F910F900FBE0F901B
:100A50001F901895CF93DF9300D0CDB7DEB78A8370
:100A600041E050E0BE016E5F7F4F80E20E945D0476
:100A700041E050E0BE016F5F7F4F80E20E9443047F
:100A800089810F900F90DF91CF910895CF9380E0EF
:100A90000E942A05C82F81E00E942A0590E0982F25
:100AA00088278C0F911DCF910895CF93DF9300D0AD
:100AB0001F92CDB7DEB70E942F0486E089838FEFA7
:100AC0008A838B8343E050E0BE016F5F7F4F80E2FB
:100AD0000E945D040E9446058093A7219093A8215F
:100AE0002396CDBFDEBFDF91CF9108958091A721DE
:100AF0009091A82108950E9446052091A721309148
:100B0000A8218217930799F02091A7213091A8215D
:100B10002817390730F48093A7219093A82182E009
:100B200008958093A7219093A82181E0089580E003
:100B3000089580FF12C0E8E7F2E2108290E491830A
:100B40001282108291831282EBE7F2E2108291838B
:100B5000128210829183128210C0E8E7F2E21082C2
:100B600011821282108211821282EBE7F2E210826D
:100B70001182128210821182128281FF12C0EEE76E
:100B8000F2E290E4908311821282908311821282A9
:100B9000E1E8F2E290831182128290831182128244
:100BA00010C0EEE7F2E210821182128210821182EE
:100BB0001282E1E8F2E21082118212821082118226
:100BC000128282FF12C0E4E8F2E21082118290E405
:100BD0009283108211829283E7E8F2E210821182FE
:100BE000928310821182928310C0E4E8F2E21082B4
:100BF00011821282108211821282E7E8F2E21082E0
:100C00001182128210821182128283FF12C0EAE8DE
:100C1000F2E280E280838183128280838183128268
:100C2000EDE8F2E2808381831282808381831282E5
:100C30000895EAE8F2E21082118212821082118293
:100C40001282EDE8F2E21082118212821082118289
:100C500012820895CF93DF93BC01D0E042C08D2F64
:100C600090E021E030E00D2E02C0220F331F0A94E5
:100C7000E2F726233723232B99F5DD2329F001976B
:100C8000982F990F890F01C08DE2C0E027C09BEA21
:100C9000899F912D1124929596959770282F30E376
:100CA000939F2019112430E04C2F50E0F901EE0FF2
:100CB000FF1F2E0F3F1FF901E851FE4DDA01AA0F69
:100CC000BB1F4A0F5B1FDA01A25ABF4D2D913D9108
:100CD0004C912083318342838F5FCF5FC730B8F25E
:100CE000DF5FD03108F4BBCFDF91CF910895CF9271
:100CF000DF92EF9220912320C22E90912420D92EB2
:100D000080912220E82E8F5F80932220803188F00E
:100D100084E0809322209F5F90932420903148F0BC
:100D2000809324202F5F20932320203110F0809384
:100D3000232020E00EC0822F90E0FC01EE0FFF1F69
:100D40008E0F9F1FFC01E851FE4DC082D182E282CE
:100D50002F5F283380F368E370E088EE91E20E9411
:100D6000E911EF90DF90CF900895FF920F931F93BA
:100D7000CF93DF93EC01F62E10E036C00091A9214D
:100D8000802F90E0810F911D60E370E00E94F711C9
:100D9000AC019BEA199F912D1124969596959695F5
:100DA000892F880F980F892F880F880F212F281BD4
:100DB00030E0DA01AA0FBB1F4A0F5B1FDA01A8510E
:100DC000BE4DF901EE0FFF1F2E0F3F1FF901E65C2C
:100DD000FF4D2081318142812D933D934C9300330F
:100DE00011F41092A9211F5F103340F28091A921C4
:100DF0008F5F8093A9218F2D0E949905CE010E94BB
:100E00002A0668E370E088EE91E20E94E911DF9122
:100E1000CF911F910F91FF9008956F927F928F92C3
:100E2000CF92DF92EF92CF93DF938091A92180FD43
:100E30000BC080912520181624F48FEF8093252075
:100E400003C081E08093252050E090E077C0963089
:100E500028F0A92FB0E0A231B1057CF1E92FF0E034
:100E600060912520062E000C770BDF01A60FB71F1F
:100E7000ED01CC0FDD1FAC0FBD1FA851BE4D1C9264
:100E800011961C92119712961C9212971C92119611
:100E90001C92119712961C927896E61BF70BBF01D5
:100EA000660F771FE60FF71FE851FE4D1082118283
:100EB000128210821182128240C0C09125200C2E15
:100EC000000CDD0BBD016C0F7D1F20E030E140E127
:100ED000FB01EE0FFF1F6E0F7F1FFB01E851FE4D60
:100EE0002083318342835896AC1BBD0B8BEA589FFD
:100EF000812D1124869586958695682F660F860F1D
:100F0000682F660F660F852F861B682F70E0FD0126
:100F1000EE0FFF1FAE0FBF1FA851BE4DFB01EE0F1E
:100F2000FF1F6E0F7F1FFB01E65CFF4D608071802D
:100F300082806D927D928C925F5F9F5F983108F402
:100F400086CF80912520082E000C990B9C012A5FEA
:100F50003F4FF901EE0FFF1FE20FF31FE851FE4D67
:100F600020E12083218322832083218322834196D1
:100F7000FC01EE0FFF1FE80FF91FE851FE4D208323
:100F80002183228320832183228320E336C0309172
:100F9000A92185E6389F912D1124832F891B8695E1
:100FA000890F82958F7097E1899F3019112433231F
:100FB00099F0822F90E0C12CD12C6894EE24E6F8B1
:100FC000FC01EE0FFF1F8E0F9F1FFC01E851FE4D2D
:100FD000C082D182E28210C0E22FF0E0CF01880F00
:100FE000991FE80FF91FE851FE4D80E1808381834E
:100FF00082838083818382832F5F283340F28091B4
:10100000A9218F5F8093A92168E370E088EE91E2C7
:101010000E94E911DF91CF91EF90DF90CF908F90F8
:101020007F906F9008956F927F928F92CF92DF9210
:10103000EF92CF93DF938091A921813130F4909189
:1010400025209C5F9093252005C0909125209450E9
:1010500090932520803211F41092A921A0E034C091
:101060002A2F30E0A901440F551F80912520682FB9
:10107000880F770B460F571F552314F4495F5F4FB6
:1010800055954795559547955595479580E290E03C
:10109000821B930B880F991F860F971F99230CF4BF
:1010A00003969595879595958795642E712C882E36
:1010B000F901EE0FFF1F2E0F3F1FF901E851FE4D02
:1010C000608271828282AF5FA83150F2A0E03FC09F
:1010D0006A2F70E09B01285E3F4F80E290E0861B04
:1010E000970B880F991F40912520840F911D47FD74
:1010F0009A95FC0199230CF43396F595E795F595AF
:10110000E795AC01992314F44F5F5F4F55954795D0
:1011100088E190E0EC01C61BD70BCE010AF40F96D4
:1011200095958795959587959595879595958795A7
:10113000CE2ED42EE82EF901EE0FFF1F2E0F3F1FEB
:10114000F901E851FE4DC082D182E282AF5FA83141
:1011500008F4BECF8091A9218F5F8093A92168E315
:1011600070E088EE91E20E94E911DF91CF91EF905B
:10117000DF90CF908F907F906F900895CF92DF9205
:10118000EF92CF93C62F40E032C0EBEA4E9FE12DA5
:101190001124E695E695E695242F30E0F0E0BF01B6
:1011A000660F771FE60FF71FED58FF4D71816081C5
:1011B0005281C72EC694C694C694C694C694D62EA1
:1011C000D694D694D694D694D694E52EE694E69406
:1011D000E694E694E694F901EE0FFF1F2E0F3F1FF1
:1011E000F901E851FE4DC082D182E2824F5F403367
:1011F00060F20E942A068C2F0E94990568E370E035
:1012000088EE91E20E94E911CF91EF90DF90CF90AC
:101210000895CF92DF92EF928091A92191E0980FEB
:101220009093A921837049F4C12CD12CE12C6894AE
:10123000DD24D6F8E12C20E012C0C12CD12CE12C09
:10124000FACF822F90E0FC01EE0FFF1F8E0F9F1F41
:10125000FC01E851FE4DC082D182E2822F5F28332B
:1012600080F368E370E088EE91E20E94E911EF906C
:10127000DF90CF900895CF92DF92EF9240E025C0AB
:101280008BEA489F812D11248695869586959091AD
:10129000A921890F8370242F30E090E0D901AA0F93
:1012A000BB1F2A0F3B1FD901A851BE4DFC01EE0FF9
:1012B000FF1F8E0F9F1FFC01ED58FF4DC080D18096
:1012C000E280CD92DD92EC924F5F4033C8F2809184
:1012D000A9218F5F8093A921E8E7F2E2108280E4E0
:1012E00081831282108281831282EBE7F2E2108204
:1012F00081831282108281831282EEE7F2E2808380
:1013000011821282808311821282E1E8F2E28083EC
:1013100011821282808311821282E4E8F2E210824A
:1013200011828283108211828283E7E8F2E21082C6
:1013300011828283108211828283EAE8F2E280E2E3
:10134000808381831282808381831282EDE8F2E2BE
:1013500080838183128280838183128268E370E0BC
:1013600088EE91E20E94E911EF90DF90CF9008950E
:10137000CF93DF93AC01D62F90E011C0292F30E03E
:10138000A0E1B0E2C0E0F901EE0FFF1F2E0F3F1FFA
:10139000F901E851FE4DA083B183C2839F5F98336A
:1013A00068F32091A9218BEA289F812D1124829531
:1013B00086958770922F30E3839F901911249111A5
:1013C0000AC0E8EEF1E280E180838183828380833A
:1013D0008183828339C08BEA289F812D11248295D5
:1013E0008F70922F38E1839F9019112491110AC0B8
:1013F000E0E3F2E280E180838183828380838183E2
:10140000828322C0892F90E068E170E0681B790B2D
:10141000FB01EE0FFF1FE60FF71FE851FE4D30E115
:101420003083318332833083318332834896FC01A9
:10143000EE0FFF1FE80FF91FE851FE4D3083318397
:1014400032833083318332832F5F2093A921CA01F5
:101450000E942A068D2F0E94990568E370E088EEAD
:1014600091E20E94E911DF91CF910895CF92DF922E
:10147000EF92CF93DF9320E013C0822F90E0689427
:10148000CC24C6F8D12CE12CFC01EE0FFF1F8E0FEF
:101490009F1FFC01E851FE4DC082D182E2822F5F86
:1014A000203358F324C020FF11C0822F90E0A0E029
:1014B000B0E4C0E4FC01EE0FFF1F8E0F9F1FFC0184
:1014C000E851FE4DA083B183C28310C0822F90E00B
:1014D00040E450E460E4FC01EE0FFF1F8E0F9F1FFD
:1014E000FC01E851FE4D4083518362832F5F283316
:1014F000D0F22091A9212D5F2093A9218BEA289F6A
:10150000812D1124829586958770422F90E3899FC3
:101510004019112450E080E490E0A0E090E4A0E0C5
:10152000FA01EE0FFF1F4E0F5F1FFA01E851FE4D4B
:1015300080839183A28330E0C9010196C0E3D0E0AB
:10154000BE010E94F7116894CC24C6F8D12CE12C7E
:101550006894DD24D6F8E12CFC01EE0FFF1F8E0FFE
:101560009F1FFC01E851FE4DC082D182E282C90179
:101570000296BE010E94F71120E430E040E030E422
:1015800040E0FC01EE0FFF1F8E0F9F1FFC01E85192
:10159000FE4D20833183428368E370E088EE91E260
:1015A0000E94E911DF91CF91EF90DF90CF900895E5
:1015B00088ED84BF82E0809350008091510081FFCC
:1015C000FCCF88ED84BF91E09093400084BF1092DF
:1015D0004100089587E08093A2000895E0E0F6E0DE
:1015E00081E0828388E1808BA0E6B6E080EE1196F0
:1015F0008C93119716968C93A0E4B6E080E8119630
:101600008C93119716968C9384E08183089580E8DB
:1016100080934506E0E0F6E080EF828388E1848BEA
:10162000858B868B878B08950E945505089580E1F0
:10163000809341068093610684E0809305060895B7
:10164000CF93DF93CDB7DEB7A297CDBFDEBF833098
:1016500081F120F4813091F060F01CC0853009F4F4
:1016600099C0B0F1863009F4F8C08F3E09F403C187
:101670005FC10E94DF0D0E9499115AC180E18093E1
:1016800041060E94070B0E94410E0E94140B0E940B
:1016900099114EC180E1809341060E94070B0E9480
:1016A000410E0E94140B80E00E94A5020E94991135
:1016B0003FC180E1809341060E94070B0E94410ECA
:1016C0000E94140B81E00E94A5020E94991130C172
:1016D0000E94170B0E9499118BED95E389A39AA3A1
:1016E0008CE593E089839A838FE190E08B839C83E0
:1016F00088E593E08D839E8384E090E08F839887D4
:1017000084E892E089879A8784ED90E08B879C87B4
:1017100089E692E08D879E878BE190E08F87988B9A
:1017200087E692E0898B9A8B82E090E08B8B9C8B92
:1017300086E692E08D8B9E8B81E090E08F8B988F78
:1017400085E592E0898F9A8F81E190E08B8F9C8F65
:1017500082E592E08D8F9E8F83E090E08F8F98A33B
:101760008DE097E09F938F938DB79EB782978DBF43
:101770009EBFADB7BEB7119682E2FE0131960190D1
:101780000D928A95E1F70E94C60FCDBFDEBF0E9481
:101790005910CEC00E941511882309F4C9C00E94B7
:1017A000170B0E94991189E09DE389A39AA38EE407
:1017B00092E089839A8384E090E08B839C838DE41C
:1017C00092E08D839E8381E090E08F83988720EC68
:1017D00031E029873A872DE830E02B873C872EEAD5
:1017E00031E02D873E8722E130E02F87388B2DEACC
:1017F00031E0298B3A8B8B8B9C8B2CEA31E02D8B43
:101800003E8B8F8B988F82E091E0898F9A8F8AEA46
:1018100090E08B8F9C8F8CEE90E08D8F9E8F86E179
:1018200090E08F8F98A383E198E09F938F938DB77B
:101830009EB782978DBF9EBFADB7BEB7119682E2AD
:10184000FE01319601900D928A95E1F70E94C60F34
:10185000CDBFDEBF0E9459106BC00E9423118823A8
:1018600009F466C00E94DF0D0E9499110E94070BC7
:101870000E94140B5DC00E94170B0E94991189E011
:101880009DE389A39AA38BEE90E089839A8381E0FC
:1018900090E08B839C832AEE30E02D833E838F8300
:1018A000988725ED30E029873A8725E130E02B87BE
:1018B0003C8722ED30E02D873E8723E030E02F8704
:1018C000388B21ED30E0298B3A8B8B8B9C8B20ED74
:1018D00030E02D8B3E8B8F8B988F80EB90E0898F43
:1018E0009A8F80E290E08B8F9C8F8CEA90E08D8FB6
:1018F0009E8F84E090E08F8F98A386E39AE09F9379
:101900008F938DB79EB782978DBF9EBFADB7BEB781
:10191000119682E2FE01319601900D928A95E1F7CF
:101920000E94C60FCDBFDEBF80E991E10E945D102D
:10193000A296CDBFDEBFDF91CF91089580910806BA
:1019400080FD13C02FEF80E792E02150804090404F
:10195000E1F700C000008091080680FD06C080917C
:10196000080680FFFCCF0E9490110895982FE0E6B2
:10197000F6E08481282F2F71892F90E00196880F3F
:10198000991F82959295907F9827807F9827822B28
:10199000848308958091080690E080959095807FDB
:1019A000992795958795959587959595879595957B
:1019B00087950895CF93DF930E94CA0CC82F0E9489
:1019C0007B05D82F0E944B0ECC2311F1DD2301F1B2
:1019D00081111EC08C2F0E941B0E8091AA21E82F1E
:1019E000F0E0E95DFF4D9081C91310C08F5F8093D7
:1019F000AA219091262089130BC085E50E9426110B
:101A00001092AA218FEE0E945F1102C01092AA21AB
:101A10008C2FDF91CF910895CF930E94CA0CC82FCD
:101A2000882369F00E947B05882349F0C093382001
:101A300042E050E067E370E282E10E945D048C2F97
:101A4000CF910895E0E0F6E088E081838683F89402
:101A50000E94D80A0E94EA0A78940E94EE0A0E9424
:101A600055058091080680FFFCCF0E9440110E941E
:101A700031110E94B60C0E9431110E94200B0E946D
:101A800034110E949E0C8091AB219091AC210A9759
:101A9000C0F388E0809307060E943111843038F447
:101AA0008230A0F4882331F0813039F01CC08630B8
:101AB00091F019C00E94770616C00E94DA0CC82F58
:101AC0000E9476056C2F0E94B5060DC00E94CA0CBC
:101AD0000E94D90208C00E940C0DC82F0E94460522
:101AE0006C2F0E94B8091092AB211092AC21C9CF83
:101AF0001F920F920FB60F9211242F933F934F9383
:101B00005F936F937F938F939F93AF93BF93EF9365
:101B1000FF930E946410FF91EF91BF91AF919F914D
:101B20008F917F916F915F914F913F912F910F9086
:101B30000FBE0F901F9018951F920F920FB60F9225
:101B400011242F933F934F935F936F937F938F93C2
:101B50009F93AF93BF93EF93FF930E94480EFF9123
:101B6000EF91BF91AF919F918F917F916F915F9115
:101B70004F913F912F910F900FBE0F901F9018958E
:101B80001F920F920FB60F9211248F939F93809103
:101B9000AB219091AC2101968093AB219093AC2125
:101BA0009F918F910F900FBE0F901F901895E0E4BA
:101BB000F8E081E08183848384E080830895E0E419
:101BC000F9E01182148283E0878387E0808388E3D1
:101BD00091E086A397A3089580EC80938101E0E0D3
:101BE000F8E080EB94E086A397A387E08083E0E0B1
:101BF000F3E081E0818398E09283838385E08083B2
:101C0000E0E0F1E080E4808B81E3828B85E1848BEE
:101C100083E1818B80E8808308958091392090E072
:101C2000E0E0F1E0868B978B85E890E2808F918FE2
:101C300085E8808B0895CF93DF9391E09093AD2159
:101C4000E82FF0E03796EE0FFF1FE156FF4D808141
:101C50009181C0E4D8E088A799A70E940D0E84E086
:101C60008883DF91CF9108951092AD21E0E0F1E0FB
:101C700081898061818BE0E4F8E010A211A21082DA
:101C800008950E94D70D0E94DF0D0E94EC0D08956B
:101C90000E94340E08958091AD210895E0E0F8E0AF
:101CA0001182148223E02683108286A397A30895CD
:101CB000E0E4F8E081E08183848384E08083089518
:101CC000E0E4F9E081E08183848384E08083089507
:101CD000CF92DF92EF92FF920F931F93CF93DF93F8
:101CE0006C01E901D70181E0F60180838881998147
:101CF000680F791FFB019081892F829586958695C3
:101D0000837061E070E002C0660F771F8A95E2F78A
:101D10006150F80120813181420F531FFA01208167
:101D200030E00C9002C0359527950A94E2F720FD2B
:101D30006FE0F60160839F73892F90E0009751F068
:101D4000880F991FFC01E15EFE4D4081518156953F
:101D5000479502C040E050E0288139812F5F3F4F16
:101D6000288339839C919F5F9C93983039F41C920F
:101D7000F80180819181019680839183CA01DF916E
:101D8000CF911F910F91FF90EF90DF90CF9008952A
:101D9000EF92FF920F931F934091942250919522BE
:101DA0006091A6227091A7220F2EF7ECEF2EF1E2A0
:101DB000FF2EF02D08EC11E22AEC31E286EC91E2E4
:101DC0000E94680E80936808909369081F910F9194
:101DD000FF90EF900895EF92FF920F931F93409121
:101DE000A8225091A9226091A4227091A5220F2EC1
:101DF000F8EBEF2EF1E2FF2EF02D09EB11E22BEBC9
:101E000031E287EB91E20E94680E8093680990931B
:101E100069091F910F91FF90EF9008958091CD2156
:101E2000882399F091E09093BF21209198223091DE
:101E300099222093A6223093A72220919E223091AE
:101E40009F222093942230939522811116C0909165
:101E5000CC21992391F01092BF21209196223091AC
:101E600097222093A6223093A7222091922230918C
:101E7000932220939422309395221092C62110929F
:101E8000CA211092CB211092C8211092C921109220
:101E9000C7219091BE21992399F021E02093B02190
:101EA0002091A2223091A3222093A4223093A52234
:101EB00020919022309191222093A8223093A92240
:101EC000911116C09091BD21992391F01092B021EB
:101ED0002091A0223091A1222093A4223093A52208
:101EE00020919A2230919B222093A8223093A922FC
:101EF0001092B7211092BB211092BC211092B921EF
:101F00001092BA211092B821811103C08091CC2186
:101F100081110E94C80E8091BE21811103C0809161
:101F2000BD2181110E94EB0E0895CF92DF92EF92B6
:101F3000FF920F931F93CF93DF931F92CDB7DEB71E
:101F40006C017B018A01CA010E941F12D7018D9387
:101F50009C9380E090E00DC0F601E80FF91FE4913A
:101F6000E983D701ED91FC91E80FF91F29812083C6
:101F700001968017910780F30F90DF91CF911F9109
:101F80000F91FF90EF90DF90CF9008950F931F93E4
:101F9000CF93DF93CDB7DEB789A59AA580939C2216
:101FA00090939D228FA198A50E944E0E0E94580EDC
:101FB0000E94600E8F8598890097D1F021E02093D0
:101FC000CC2109891A89A80166E972E20E94950F5D
:101FD0004D895E8962E972E28B899C890E94950F26
:101FE0000093C2211093C3210093C0211093C121FB
:101FF0008F8198850097D1F021E02093CD2109852C
:102000001A85A80168E972E20E94950F4D855E85E8
:102010006EE972E28B859C850E94950F0093C42126
:102020001093C5210093C0211093C1218F8D98A1D9
:102030000097D1F021E02093BD2109A11AA1A801A8
:1020400060EA72E20E94950F4DA15EA16AE972E218
:102050008BA19CA10E94950F0093B3211093B421F2
:102060000093B1211093B2218F89988D0097D1F000
:1020700021E02093BE21098D1A8DA80162EA72E247
:102080000E94950F4D8D5E8D60E972E28B8D9C8D67
:102090000E94950F0093B5211093B6210093B121B2
:1020A0001093B2210E940E0FDF91CF911F910F91DB
:1020B000089586E08093000808958093AE21909360
:1020C000AF210E945910089581E080930C088091FF
:1020D000C62181114BC0E0E4F8E0108210A611A6E1
:1020E0002091CA213091CB218091C0219091C121B2
:1020F00028173907C0F18091BF218823D9F01092A9
:10210000BF218091C2219091C3218093C0219093DF
:10211000C12180919622909197228093A62290933C
:10212000A72280919222909193228093942290935F
:1021300095220DC08091AE219091AF21892B39F06D
:1021400010920008E091AE21F091AF210995109214
:10215000C6211092CA211092CB211092C821109250
:10216000C9211092C7210E94C80E03C081508093DC
:10217000C6218091B721811141C0E0E4F9E01082CD
:1021800010A611A62091BB213091BC218091B121D4
:102190009091B2212817390770F18091B0218823DE
:1021A000F1F08091BD218823D1F01092B02180916F
:1021B000B3219091B4218093B1219093B221809169
:1021C000A0229091A1228093A4229093A522809195
:1021D0009A2290919B228093A8229093A9221092F8
:1021E000B7211092BB211092BC211092B9211092FC
:1021F000BA211092B8210E94EB0E03C08150809347
:10220000B721E0919C22F0919D2209952FEF83EF59
:1022100091E0215080409040E1F700C0000084E050
:10222000809340088093400908958091CF210895BC
:102230008093CF216091CF21611165E582E090E02C
:102240000E94A41308958091CE2108958093CE21F9
:102250006091CE21611165E583E090E00E94A413B6
:1022600008958091D021089560E081E090E00E947F
:10227000A413089588ED84BF83E0809380000895BF
:1022800081E090E00E949C138093D0218091D02126
:10229000873040F08091D0218F3E21F01092D021E4
:1022A0000E94341182E090E00E949C138093CF2121
:1022B00083E090E00E949C138093CE2108958530A6
:1022C00091F49091CF21953521F09091CE219535C3
:1022D000B1F49091CF219535B9F09091CE219535FB
:1022E00099F48F5F11C0863029F49091CE219535F5
:1022F00041F40AC0873040F08F3E29F405C080E0E9
:1023000003C080E001C080E0682F81E090E00E947F
:10231000A4138091CF018823E4F30E943A11FFCFE8
:102320008091D0218F5F8093D0218091D0210E9415
:102330005F11A0E0B1E080EB8C93D1961C92D19715
:1023400081E0D2968C93D297D3961C92D397E0ECEF
:10235000F9E0DC96ED93FC93DD979DE6D4969C9393
:10236000A0E6B6E050961C92509751968C935197E8
:1023700083E053968C9353979BE011969C93A0E82F
:10238000B1E09BE69C9318961C92189799E61696D6
:102390009C9316971E961C9293E196831782128245
:1023A00092EC9483158298E09383E0E6F4E091E167
:1023B000948385838EE9868386E186878DE0848792
:1023C00084E5808380E5818380E4828380EA83835F
:1023D0000895E0E0F1E080AF91AFCB01880F991F45
:1023E000680F791F66AB77AB84E880AB089597FBE5
:1023F000072E16F4009407D077FD09D00E940B1227
:1024000007FC05D03EF4909581959F4F08957095F7
:1024100061957F4F0895AA1BBB1B51E107C0AA1FFE
:10242000BB1FA617B70710F0A61BB70B881F991F75
:102430005A95A9F780959095BC01CD0108950F9309
:102440001F93CF93DF938230910510F482E090E0E8
:10245000E091AC22F091AD2220E030E0A0E0B0E0CD
:10246000309719F140815181028113814817590732
:10247000C8F08417950769F4109731F012960C9301
:10248000129713961C9327C00093AC221093AD2291
:1024900022C02115310519F04217530718F49A018B
:1024A000BD01EF01DF01F801DBCF21153105F9F0A6
:1024B000281B390B2430310580F48A819B816115FA
:1024C000710521F0FB018283938304C08093AC22C9
:1024D0009093AD22FE01329644C0FE01E20FF31F3D
:1024E0008193919322503109288339833AC02091F6
:1024F000AA223091AB22232B41F42091022030916B
:1025000003202093AA223093AB2220910020309107
:1025100001202115310541F42DB73EB7409104202B
:1025200050910520241B350BE091AA22F091AB229B
:10253000E217F307A0F42E1B3F0B2817390778F09A
:10254000AC014E5F5F4F2417350748F04E0F5F1FF9
:102550004093AA225093AB228193919302C0E0E072
:10256000F0E0CF01DF91CF911F910F910895CF93AC
:10257000DF93009709F481C0FC0132971282138225
:10258000A091AC22B091AD22109781F420813181CD
:10259000820F931F2091AA223091AB22281739076E
:1025A00051F5E093AA22F093AB2267C0ED0120E041
:1025B00030E0CE17DF0740F44A815B819E01411570
:1025C0005105F1F0EA01F5CFC283D38340815181F7
:1025D000840F951FC817D90759F488819981840FF2
:1025E000951F0296808391838A819B818283938346
:1025F0002115310529F4E093AC22F093AD223DC0C2
:10260000E901EA83FB8349915991C40FD51FEC1767
:10261000FD0761F480819181840F951F0296E90185
:1026200088839983828193818A839B83E0E0F0E0B1
:1026300012968D919C911397009719F0FD01DC0182
:10264000F7CF8D919C9111979D012E5F3F4F820F87
:10265000931F2091AA223091AB222817390769F4E1
:10266000309729F41092AC221092AD2202C012824F
:102670001382A093AA22B093AB22DF91CF91089549
:102680008F929F92AF92BF92CF92DF92EF92FF9282
:10269000CF93DF93EC01688179818A819B816115F9
:1026A00071058105910521F464E279ED8BE597E0F0
:1026B0002DE133EF41E050E00E94BA1349015A0185
:1026C0009B01AC01A7EAB1E40E94D9136B017C0124
:1026D000ACEEB4EFA50194010E94E713DC01CB013D
:1026E0008C0D9D1DAE1DBF1DB7FF03C00197A10935
:1026F000B04888839983AA83BB839F77DF91CF916A
:10270000FF90EF90DF90CF90BF90AF909F908F9011
:1027100008950E944013089586E090E20E944013BD
:102720000895A0E0B0E08093062090930720A09346
:102730000820B0930920089503D080819927089537
:10274000FC01E050F04F0895262FAF93BF93E0ECCB
:10275000F1E0378537FDFDCFDC01A050B04F2C9361
:1027600025E3228728ED31E024BF33870196BF910E
:10277000AF910895052E97FB1EF400940E94D1138B
:1027800057FD07D00E94EC1307FC03D04EF40C94C5
:10279000D11350954095309521953F4F4F4F5F4F46
:1027A000089590958095709561957F4F8F4F9F4FBD
:1027B00008950E940E14A59F900DB49F900DA49FA4
:1027C000800D911D11240895B7FF0C94D9130E9418
:1027D000D913821B930B0895A1E21A2EAA1BBB1BCF
:1027E000FD010DC0AA1FBB1FEE1FFF1FA217B307DD
:1027F000E407F50720F0A21BB30BE40BF50B661FF3
:10280000771F881F991F1A9469F7609570958095B6
:1028100090959B01AC01BD01CF010895A29FB0012D
:10282000B39FC001A39F700D811D1124911DB29F04
:0E283000700D811D1124911D0895F894FFCFA5
:10283E000000AE222000010000000B0E0F0F0F0C47
:10284E00080508050C08070306030F0E0D0C0C08EF
:10285E000501040404FF100F0B090F0B090F0B09E0
:10286E0004060908090D0F01001A004000041000AB
:10287E00101000100400400000100004100010049E
:10288E0000100000400004100010100010040000A2
:10289E0000020202040404101010040404020202D6
:1028AE00000000004000400000000040202000001A
:1028BE000000101010FF0FA00FD80EAC0D1C0C282E
:1028CE000AD0071405F40190012C01C8006400B46D
:1028DE0004FC0448059805EC054806A8060C077884
:1028EE0007E8076008E0086809F809900A300BD875
:1028FE000B900C4C0D180EF00ED00FC410C011D052
:10290E0012F0131C156016B4171C199C1A301CDC1F
:10291E001DA41F84218423A025DC273C2AC02C68FB
:10292E002F383234356038B83B483F0843044740AF
:10293E004BB84F74547C59CC5E7064686ABC70702E
:10294E0077887E14860C8E8096709FECA8FCB2B4AD
:10295E0004FC0448059805EC054806A8060C077803
:10296E0007E8076008E0086809F809900A300BD8F4
:10297E000B900C4C0D180EF00ED00FC410C011D0D1
:10298E0012F0131C156016B4171C199C1A301CDC9F
:10299E001DA41F84218423A025DC273C2AC02C687B
:1029AE002F383234356038B83B483F08430447402F
:1029BE004BB84F74547C59CC5E7064686ABC7070AE
:1029CE0077887E14860C8E8096709FECA8FCB200E1
:00000001FF
