S01E0000786D656761313665352D706C756D6275732D66756C6C2E73726563DE
S11300000C94A5010C94C2010C94C2010C94B90780
S11300100C94C2010C94C2010C94C2010C94C20150
S11300200C94C2010C94C2010C94C2010C940B02F6
S11300300C9495070C94C2010C94C2010C94C20157
S11300400C94C2010C94C2010C94C2010C94C20120
S11300500C94C2010C94C2010C94C2010C94C20110
S11300600C94C2010C94C2010C94C2010C94C20100
S11300700C94C2010C94C2010C94C2010C94C201F0
S11300800C94C2010C94C2010C94C2010C94C201E0
S11300900C94C2010C94C2010C94DD070C94C201AF
S11300A00C94C2010C94C2010C94C201EF06140614
S11300B01E0625062C068C06EA0600000000000039
S11300C0000000000000000000000000000000002C
S11300D0645F5B5F625F5B5F645F5B5F625F5B5F2C
S11300E0645F5B5F625F5B5F645F5B5F625F5B5F1C
S11300F0625D5A5D625D5A5D645D5A5D645D5A5D20
S1130100645F5B5F625F5B5F645F5B5F625F5B5FFB
S1130110645F5B5F625F5B5F645F5B5F625F5B5FEB
S1130120645F5B5F625F5B5F645F5B5F625F5B5FDB
S1130130625D5A5D625D5A5D645D5A5D645D5A5DDF
S1130140635F5C57C0A84068A14061A34063A8A155
S1130150A84068A14061A34063A89CE3E19C9D9FE3
S1130160A1E3A4B0AB406BAE406EAB406BAE406E4F
S1130170AB406BAE406EAB406BEE00C002000004BF
S11301800100000000000000000000000000CF009B
S11301904E4F51918F409351D8C058914F8E40513A
S11301A09493409158988F40004E4F5151CF004E38
S11301B04F5191404F934051D840C0914F8E405180
S11301C094405391585351505153558058579590DA
S11301D0515353555355554095585795904E50513A
S11301E053535190904E4C4B4B8C8E504E4C4C8EE6
S11301F09053555350505140514F4F405F5B5F6295
S11302005F5B5F645F5B5F625F5B5F645F5B5F62FA
S11302105F5B5F645F5B584E4F5151004E4F5151CD
S113022000000075697367766A7165786C73673A64
S11302302E7A787603000000000000000000000021
S113024000000000000000000000000000000000AA
S113025000004F4D155214131456565453131416CC
S113026014120F0D120F1412161416524F0D120FF2
S1130270141216151213141614531614120F141301
S113028014165456544F4D155214131456565453B1
S113029013141614120F0D120F1412161416524FB3
S11302A00D120F14121615121314161453161412D9
S11302B00F14131416545656561B19561B1916149C
S11302C012161112110F56561B19161B1112141661
S11302D01D1E1D1B561B19561B1916161412161B10
S11302E0191B561617161B19161112110F565756AD
S11302F01B19561B19161412161112110F56561BE0
S113030019161B111214161D1E1D1B561B19561BE4
S11303101916161412161B191B561617161B191626
S11303201112110F56540000000012110F000A118F
S113033012110F0A0605060B0A000F0012110F0016
S11303404A080B0A08050605080011241FBECFEF52
S1130350CDBFD7E2DEBF11E2A0E0B0E2E2EAFAE10B
S113036002C005900D92AC35B107D9F722E2ACE595
S1130370B1E201C01D92A435B207E1F70E94520711
S11303800C944F0D0C94000084E980938504109222
S11303908004E1E8F4E08081886F80831092820415
S11303A010928304E4E8F4E080818D6C80830895E6
S11303B040938421509385211092872110928821A3
S11303C01092892160938B2170938C2190E0880F87
S11303D0991F816080938604809189218130E1F79F
S11303E080E00895109286214093842150938521C2
S11303F010928721109288211092892160938B2179
S113040070938C21880F8093860480918921813098
S1130410E1F780E008951F920F920FB60F92112416
S11304202F933F934F935F938F939F93EF93FF93F8
S11304308091840483FF03C083E0809383048091CC
S1130440840482FD04C08091840484FF08C0E3E82E
S1130450F4E083E0808381E080838093892180912C
S11304608921882331F0E4E8F4E08081806480838A
S113047079C08091840486FF47C08091840484FD00
S113048043C0809186218823C9F0809183218823E9
S113049069F080918A2180938704809187219091CB
S11304A088210196809387219093882180918D21C2
S11304B08093870481E08093832115C020918B2150
S11304C030918C218091872190918821AC014F5FDC
S11304D05F4F4093872150938821F901E80FF91F5A
S11304E08081809387042091872130918821809195
S11304F08421909185212817390731F483E0809372
S1130500830481E08093892180918404882354F5B5
S113051020918B2130918C21809187219091882189
S1130520AC014F5F5F4F4093872150938821F901BD
S1130530E80FF91F209187042083209187213091AF
S1130540882180918421909185212817390739F4D5
S113055087E08093830481E08093892103C082E053
S113056080938304FF91EF919F918F915F914F91BD
S11305703F912F910F900FBE0F901F901895CF931E
S1130580DF9300D0CDB7DEB78A8341E050E0BE01EF
S11305906E5F7F4F80E20E94F20141E050E0BE01B5
S11305A06F5F7F4F80E20E94D80189810F900F9086
S11305B0DF91CF910895CF9380E00E94BF02C82FAE
S11305C081E00E94BF0290E0982F88278C0F911D34
S11305D0CF910895CF93DF9300D01F92CDB7DEB7AC
S11305E00E94C40186E089838FEF8A838B8343E072
S11305F050E0BE016F5F7F4F80E20E94F2010E94D3
S1130600DB0280935C2190935D212396CDBFDEBFF6
S1130610DF91CF91089580915C2190915D2108959F
S11306200E94DB0220915C2130915D2182179307A7
S113063099F020915C2130915D212817390730F41D
S113064080935C2190935D2182E0089580935C21E6
S113065090935D2181E0089580E0089560FF0CC0CF
S1130660FC01E057FF4F108220E42183128233966D
S11306701082218312820AC0FC01E057FF4F1082CE
S113068011821282339610821182128261FF0CC091
S113069020E4FC01EA56FF4F208311821282339634
S11306A02083118212820AC0FC01EA56FF4F108295
S11306B011821282339610821182128262FF0CC060
S11306C0FC01E456FF4F1082118220E4228333960A
S11306D01082118222830AC0FC01E456FF4F10826B
S11306E011821282339610821182128263FF0CC02F
S11306F0FC01EE55FF4F20E22083218312823396C2
S11307002083218312820895FC01EE55FF4F10824D
S11307101182128233961082118212820895CF922E
S1130720DF92EF92CF93DF93AC01D0E042C08D2FE4
S113073090E021E030E00D2E02C0220F331F0A9416
S1130740E2F726233723232B99F5DD2329F001979C
S1130750982F990F890F01C08DE2C0E027C09BEA52
S1130760899F912D1124929596959770282F30E3A7
S1130770939F2019112430E0D901AA0FBB1F2A0F1F
S11307803B1FDA01A20FB31F2C2F30E0F901EE0F4B
S1130790FF1F2E0F3F1FF901E45DFF4DC080D18084
S11307A0E280CD92DD92EC928F5FCF5FC730B8F2DA
S11307B0DF5FD03108F4BBCFDF91CF91EF90DF90B2
S11307C0CF9008956F927F928F92CF92DF92EF92A3
S11307D01F93CF93DF93EC016B01E42E40E035C00F
S11307E010915E21812F90E0840F911D60E370E0F1
S11307F00E94E20BDC01AA0FBB1F8A0F9B1FDE01C4
S1130800A80FB91F9BEA499F912D1124969596959F
S11308109695892F880F980F892F880F880F242F7A
S1130820281B30E0F901EE0FFF1F2E0F3F1FF901C7
S1130830E85FFF4D6080718082806D927D928C9222
S1130840103311F410925E214F5F403348F28091CF
S11308505E218F5F80935E216E2DCE010E942E0358
S1130860B601CE010E948F03DF91CF911F91EF90CB
S1130870DF90CF908F907F906F900895CF92DF920A
S1130880EF9220915E2120FD0BC0209106201216CC
S113089024F42FEF2093062003C021E020930620A8
S11308A050E040E06BC0463028F0242F30E0223185
S11308B031052CF1E42FF0E020910620022E000CEB
S11308C0330BDF01A20FB31FBD01660F771FA60F05
S11308D0B71FA80FB91F1C9211961C92119712965C
S11308E01C927896E21BF30B9F01220F331FE20F39
S11308F0F31FE80FF91F1082118212823EC060912B
S11309000620062E000C770BF901E60FF71FDF0116
S1130910AA0FBB1FEA0FFB1FE80FF91F1082A0E10B
S1130920A183A283285E3F4F261B370BF901EE0FEC
S1130930FF1F2E0F3F1FFC01E20FF31F2BEA529FF4
S1130940212D1124269526952695322F330F230F1A
S1130950322F330F330F252F231B30E0D901AA0F79
S1130960BB1F2A0F3B1FD901A85FBF4DCD90DD905F
S1130970EC90C082D182E2825F5F4F5F483108F41D
S113098092CF20910620022E000C330BA9014A5F5E
S11309905F4FFA01EE0FFF1FE40FF51FE80FF91F79
S11309A040E14083418342832F5E3F4FF901EE0FC4
S11309B0FF1FE20FF31FE80FF91F408341834283B7
S11309C040E32EC050915E2125E6529F312D112423
S11309D0252F231B2695230F22952F7037E1239F64
S11309E050191124552371F0E42FF0E09F01220FD8
S11309F0331FE20FF31FE80FF91F1082118220E466
S1130A0022830DC0E42FF0E09F01220F331FE20F79
S1130A10F31FE80FF91F20E12083218322834F5F16
S1130A20483380F280915E218F5F80935E21EF9046
S1130A30DF90CF900895CF93DF9320915E212131F1
S1130A4030F4309106203C5F3093062005C030918D
S1130A500620345030930620203211F410925E2187
S1130A60A0E02FC0CA2FD0E0AE01440F551FFA01F9
S1130A70EC0FFD1FE80FF91F20910620622F220FB3
S1130A80770B460F571F552314F4495F5F4F559555
S1130A904795559547955595479520E230E02C1B91
S1130AA03D0B220F331F260F371F332314F42D5F02
S1130AB03F4F35952795359527954083118222839D
S1130AC0AF5FA83178F2C0E038C0AC2FB0E0FD01D0
S1130AD078969F01220F331FE20FF31FE80FF91FCF
S1130AE020E230E02A1B3B0B220F331F40910620EB
S1130AF0642F440F770B260F371F332314F42D5F15
S1130B003F4F359527953595279548E150E04A1B89
S1130B105B0B440F551F460F571F552314F4415FB9
S1130B205F4F5595479555954795559547955595D7
S1130B304795208321834283CF5FC83130F280916F
S1130B405E218F5F80935E21DF91CF9108950E9493
S1130B501B0B843029F48EE891E20E943E0404C009
S1130B608EE891E20E941B0568E370E08EE891E252
S1130B700E94D40B089588ED84BF82E080935000D6
S1130B808091510081FFFCCF88ED84BF91E0909368
S1130B90400084BF10924100089587E08093A20032
S1130BA00895E0E0F6E081E0828388E1808BA0E6AE
S1130BB0B6E080EE11968C93119716968C93A0E470
S1130BC0B6E080E811968C93119716968C9384E086
S1130BD08183089580E880934506E0E0F6E080EFA5
S1130BE0828388E1848B858B868B878B08950E9412
S1130BF0EA02089580E1809341068093610684E0CF
S1130C00809305060895CF93DF93CDB7DEB7A297FF
S1130C10CDBFDEBF90E08730910508F0E0C0FC0155
S1130C20EA5AFF4F0C94F60B80E1809341060E9430
S1130C30EA050E9459080E94F705D1C00E94EA05FE
S1130C400E9459080E94F705CAC00E94EA050E9442
S1130C5059080E94F705C3C00E94FA058BED95E37D
S1130C6089A39AA38AE293E089839A838FE190E02F
S1130C708B839C8386E293E08D839E8384E090E063
S1130C808F83988782E592E089879A8784ED90E044
S1130C908B879C8787E392E08D879E878BE190E02A
S1130CA08F87988B85E392E0898B9A8B82E090E022
S1130CB08B8B9C8B84E392E08D8B9E8B81E090E008
S1130CC08F8B988F83E292E0898F9A8F81E190E0F5
S1130CD08B8F9C8F80E292E08D8F9E8F83E090E0DB
S1130CE08F8F98A387EA95E09F938F938DB79EB7D4
S1130CF082978DBF9EBFADB7BEB7119682E2FE014B
S1130D00319601900D928A95E1F70E94DB09CDBFDF
S1130D10DEBF0E946E0A63C00E94150B0E94FA0592
S1130D2089E09DE389A39AA38CE192E089839A8365
S1130D3084E090E08B839C838BE192E08D839E839F
S1130D4081E090E08F8398872EE831E029873A8705
S1130D502DE830E02B873C872CE731E02D873E8758
S1130D6022E130E02F87388B2BE731E0298B3A8B57
S1130D708B8B9C8B2AE731E02D8B3E8B8F8B988F4E
S1130D8080ED90E0898F9A8F8AEA90E08B8F9C8F18
S1130D908AEB90E08D8F9E8F86E190E08F8F98A3F1
S1130DA087EA95E09F938F938DB79EB782978DBF07
S1130DB09EBFADB7BEB7119682E2FE013196019097
S1130DC00D928A95E1F70E94DB09CDBFDEBF0E9438
S1130DD06E0A05C00E94180B81110E94EA05A296B2
S1130DE0CDBFDEBFDF91CF9108958091080680FDCD
S1130DF013C02FEF80E792E0215080409040E1F74C
S1130E0000C000008091080680FD06C0809108069D
S1130E1080FFFCCF0E94480B0895982FE0E6F6E08F
S1130E208481282F2F71892F90E00196880F991FB4
S1130E3082959295907F9827807F9827822B848330
S1130E4008958091080690E080959095807F992779
S1130E509595879595958795959587959595879576
S1130E600895CF93DF930E942107C82F0E94100397
S1130E70D82FCC2379F0882369F080915F218111E8
S1130E8009C088E08093070681E080935F218C2F5E
S1130E900E943808D11102C010925F218C2FDF917B
S1130EA0CF910895E0E0F6E088E081838683F894AA
S1130EB00E94BB050E94CD0578940E94D1050E9432
S1130EC0EA028091080680FFFCCF0E942A0B0E9450
S1130ED01B0B0E940D070E941B0B0E9403060E941D
S1130EE01E0B0E94840B0E94F5060E941B0B81308E
S1130EF0D1F70E943107C82F809160219091612120
S1130F000A9788F30E940B034C2FBC018EE891E2F0
S1130F100E94E20368E370E08EE891E20E94D40B41
S1130F201092602110926121DECF1F920F920FB6B2
S1130F300F9211242F933F934F935F936F937F935B
S1130F408F939F93AF93BF93EF93FF930E94720A83
S1130F50FF91EF91BF91AF919F918F917F916F918D
S1130F605F914F913F912F910F900FBE0F901F9063
S1130F7018951F920F920FB60F9211242F933F933F
S1130F804F935F936F937F938F939F93AF93BF938D
S1130F90EF93FF930E946008FF91EF91BF91AF918F
S1130FA09F918F917F916F915F914F913F912F917D
S1130FB00F900FBE0F901F9018951F920F920FB6AF
S1130FC00F9211248F939F938091602190916121BE
S1130FD0019680936021909361219F918F910F904E
S1130FE00FBE0F901F901895E0E4F8E081E0818334
S1130FF0848384E080830895E0E4F9E0118214821C
S113100083E0878387E0808388E391E086A397A3C6
S1131010089580EC80938101E0E0F8E080EB94E0B7
S113102086A397A387E08083E0E0F3E081E08183F7
S113103098E09283838385E08083E0E0F1E080E4BC
S1131040808B81E3828B85E1848B83E1818B80E8D3
S1131050808308958091072090E0E0E0F1E0868BA2
S1131060978B81E490E2808F918F85E8808B08953F
S1131070CF93DF93E82FF0E03796EE0FFF1FE55A8A
S1131080FF4D80819181C0E4D8E088A799A70E9490
S11310902A0884E08883DF91CF910895E0E0F1E0AD
S11310A081898061818BE0E4F8E010A211A21082B2
S11310B008950E94F4070E94FC070E9409080895FD
S11310C00E944E080895E0E0F8E01182148223E0C3
S11310D02683108286A397A30895E0E4F8E081E0D4
S11310E08183848384E080830895E0E4F9E081E0EF
S11310F08183848384E080830895CF92DF92EF928A
S1131100FF920F931F93CF93DF936C01E901D701F3
S113111081E0F601808388819981680F791FFB0142
S11311209081892F829586958695837061E070E021
S113113002C0660F771F8A95E2F76150F80120819B
S11311403181420F531FFA01208130E00C9002C01C
S1131150359527950A94E2F720FD6FE0F601608348
S11311609F73892F90E0009751F0880F991FFC011D
S1131170E552FF4D408151815695479502C040E0AC
S113118050E0288139812F5F3F4F288339839C9118
S11311909F5F9C93983039F41C92F801808191816F
S11311A0019680839183CA01DF91CF911F910F91A2
S11311B0FF90EF90DF90CF900895EF92FF920F93FE
S11311C01F9340913A2250913B2260914C2270919E
S11311D04D220F2EF9E7EF2EF1E2FF2EF02D0AE754
S11311E011E22CE731E288E791E20E947D088093C6
S11311F06808909369081F910F91FF90EF900895EC
S1131200EF92FF920F931F9340914E2250914F22E1
S113121060914A2270914B220F2EFAE6EF2EF1E2F2
S1131220FF2EF02D0BE611E22DE631E289E691E284
S11312300E947D0880936809909369091F910F911A
S1131240FF90EF90089580917F21882399F091E099
S11312509093712120913E2230913F2220934C2281
S113126030934D22209144223091452220933A22FA
S113127030933B22811116C090917E21992391F0E5
S11312801092712120913C2230913D2220934C22D6
S113129030934D22209138223091392220933A22E2
S11312A030933B221092782110927C2110927D2160
S11312B010927A2110927B211092792190917021C1
S11312C0992399F021E020936221209148223091C2
S11312D0492220934A2230934B2220913622309186
S11312E0372220934E2230934F22911116C09091B1
S11312F06F21992391F0109262212091462230911E
S1131300472220934A2230934B222091402230914D
S1131310412220934E2230934F2210926921109241
S11313206D2110926E2110926B2110926C211092FB
S11313306A21811103C080917E2181110E94DD0800
S113134080917021811103C080916F2181110E94CD
S113135000090895CF92DF92EF92FF920F931F93AB
S1131360CF93DF931F92CDB7DEB76C017B018A0167
S1131370CA010E94100CD7018D939C9380E090E0E9
S11313800DC0F601E80FF91FE491E983D701ED914F
S1131390FC91E80FF91F298120830196801791079A
S11313A080F30F90DF91CF911F910F91FF90EF90F9
S11313B0DF90CF9008950F931F93CF93DF93CDB712
S11313C0DEB789A59AA580934222909343228FA1E8
S11313D098A50E9463080E946D080E9475088F8575
S11313E098890097D1F021E020937E2109891A89F8
S11313F0A8016CE372E20E94AA094D895E8968E340
S113140072E28B899C890E94AA090093742110932B
S1131410752100937221109373218F819885009711
S1131420D1F021E020937F2109851A85A8016EE37C
S113143072E20E94AA094D855E8564E472E28B859E
S11314409C850E94AA09009376211093772100932A
S11314507221109373218F8D98A10097D1F021E010
S113146020936F2109A11AA1A80166E472E20E94E7
S1131470AA094DA15EA160E472E28BA19CA10E9425
S1131480AA090093652110936621009363211093A8
S113149064218F89988D0097D1F021E020937021E9
S11314A0098D1A8DA80168E472E20E94AA094D8D83
S11314B05E8D66E372E28B8D9C8D0E94AA09009377
S11314C067211093682100936321109364210E9483
S11314D02309DF91CF911F910F91089586E08093A6
S11314E00008089581E080930C088091782181118F
S11314F03DC0E0E4F8E0108210A611A620917C2102
S113150030917D21809172219091732128173907A0
S113151050F1809171218823D1F010927121809132
S113152074219091752180937221909373218091FD
S11315303C2290913D2280934C2290934D228091A5
S113154038229091392280933A2290933B22109230
S1131550782110927C2110927D2110927A21109290
S11315607B21109279210E94DD0803C08150809371
S1131570782180916921811141C0E0E4F9E0108271
S113158010A611A620916D2130916E2180916321C6
S1131590909164212817390770F180916221882382
S11315A0F1F080916F218823D1F010926221809113
S11315B065219091662180936321909364218091A9
S11315C046229091472280934A2290934B22809105
S11315D040229091412280934E2290934F22109268
S11315E0692110926D2110926E2110926B2110923C
S11315F06C2110926A210E94000903C081508093DB
S11316006921E0914222F091432209952FEF83EF63
S113161091E0215080409040E1F700C0000084E058
S11316208093400880934009089580918121089512
S113163080918021089580918221089560E081E065
S113164090E00E94390D089588ED84BF83E0809373
S11316508000089581E090E00E94310D8093822102
S113166080918221873020F0109282210E941E0BEB
S113167082E090E00E94310D8093812185E5809382
S1131680812183E090E00E94310D809380210895B0
S1131690809182218F5F8093822180918221853085
S11316A0C9F480918121853539F080918021853577
S11316B019F0109282211FC0809181218535D9F0C3
S11316C0809180218535B9F4809182218F5F809348
S11316D0822111C080918221863039F48091802149
S11316E0853549F01092822106C08091822187308D
S11316F010F0109282216091822181E090E00E949A
S1131700390D0E94240B0895A0E0B1E080EB8C9386
S1131710D1961C92D19781E0D2968C93D297D3968E
S11317201C92D397E0ECF9E0DC96ED93FC93DD9703
S11317309DE6D4969C93A0E6B6E050961C925097F2
S113174051968C93519783E053968C9353979BE0D7
S113175011969C93A0E8B1E09BE69C9318961C928A
S1131760189799E616969C9316971E961C9293E1E9
S113177096831782128292EC9483158298E0938365
S1131780E0E6F4E091E1948385838EE9868386E143
S113179086878DE0848784E5808380E5818380E487
S11317A0828380EA83830895E0E0F1E080AF91AF23
S11317B0CB01880F991F680F791F66AB77AB84E85C
S11317C080AB089597FB072E16F4009407D077FD9D
S11317D009D00E94FC0B07FC05D03EF4909581953E
S11317E09F4F0895709561957F4F0895EE0FFF1FE9
S11317F00590F491E02D0994AA1BBB1B51E107C08D
S1131800AA1FBB1FA617B70710F0A61BB70B881F8C
S1131810991F5A95A9F780959095BC01CD0108951B
S11318200F931F93CF93DF938230910510F482E0DE
S113183090E0E0915222F091532220E030E0A0E0C9
S1131840B0E0309719F1408151810281138148172A
S11318505907C8F08417950769F4109731F0129668
S11318600C93129713961C9327C000935222109343
S1131870532222C02115310519F04217530718F4D9
S11318809A01BD01EF01DF01F801DBCF211531051C
S1131890F9F0281B390B2430310580F48A819B81AF
S11318A06115710521F0FB018283938304C0809349
S11318B0522290935322FE01329644C0FE01E20F5D
S11318C0F31F8193919322503109288339833AC0BD
S11318D02091502230915122232B41F42091022057
S11318E030910320209350223093512220910020E4
S11318F0309101202115310541F42DB73EB74091B7
S1131900042050910520241B350BE0915022F091C6
S11319105122E217F307A0F42E1B3F0B28173907B7
S113192078F0AC014E5F5F4F2417350748F04E0F37
S11319305F1F40935022509351228193919302C090
S1131940E0E0F0E0CF01DF91CF911F910F91089576
S1131950CF93DF93009709F481C0FC013297128280
S11319601382A0915222B0915322109781F42081C6
S11319703181820F931F20915022309151222817D8
S1131980390751F5E0935022F093512267C0ED01DD
S113199020E030E0CE17DF0740F44A815B819E01EE
S11319A041155105F1F0EA01F5CFC283D38340819B
S11319B05181840F951FC817D90759F488819981DB
S11319C0840F951F0296808391838A819B818283F1
S11319D093832115310529F4E0935222F093532285
S11319E03DC0E901EA83FB8349915991C40FD51F96
S11319F0EC17FD0761F480819181840F951F029695
S1131A00E90188839983828193818A839B83E0E0BF
S1131A10F0E012968D919C911397009719F0FD01B7
S1131A20DC01F7CF8D919C9111979D012E5F3F4F63
S1131A30820F931F20915022309151222817390789
S1131A4069F4309729F4109252221092532202C062
S1131A5012821382A0935022B0935122DF91CF912E
S1131A60089503D0808199270895FC01E050F04F38
S1131A700895262FAF93BF93E0ECF1E0378537FD4F
S1131A80FDCFDC01A050B04F2C9325E3228728ED35
S1131A9031E024BF33870196BF91AF910895F89444
S1051AA0FFCF72
S1131AA2000054222000FF1A00400004100010100D
S1131AB20010040040000010000410001004001084
S1131AC20000400004100010100010040000000286
S1131AD202020404041010100404040202020000AE
S1131AE200FF0FA00FD80EAC0D1C0C280AD007144F
S1131AF205F40190012C01C8006400B404FC0448FC
S1131B02059805EC054806A8060C077807E807605F
S1131B1208E0086809F809900A300BD80B900C4CBD
S1131B220D180EF00ED00FC410C011D012F0131CF9
S1131B32156016B4171C199C1A301CDC1DA41F84D2
S1131B42218423A025DC273C2AC02C682F38323478
S1131B52356038B83B483F08430447404BB84F749C
S1131B62547C59CC5E7064686ABC707077887E1449
S1131B72860C8E8096709FECA8FCB2B404FC0448D8
S1131B82059805EC054806A8060C077807E80760DF
S1131B9208E0086809F809900A300BD80B900C4C3D
S1131BA20D180EF00ED00FC410C011D012F0131C79
S1131BB2156016B4171C199C1A301CDC1DA41F8452
S1131BC2218423A025DC273C2AC02C682F383234F8
S1131BD2356038B83B483F08430447404BB84F741C
S1131BE2547C59CC5E7064686ABC707077887E14C9
S10F1BF2860C8E8096709FECA8FCB2005C
S9030000FC
