S01E0000786D656761313665352D706C756D6275732D66756C6C2E73726563DE
S11300000C94A5010C94C2010C94C2010C94BC097B
S11300100C94C2010C94C2010C94C2010C94C20150
S11300200C94C2010C94C2010C94C2010C942003E0
S11300300C9498090C94C2010C94C2010C94C20152
S11300400C94C2010C94C2010C94C2010C94C20120
S11300500C94C2010C94C2010C94C2010C94C20110
S11300600C94C2010C94C2010C94C2010C94C20100
S11300700C94C2010C94C2010C94C2010C94C201F0
S11300800C94C2010C94C2010C94C2010C94C201E0
S11300900C94C2010C94C2010C94E0090C94C201AA
S11300A00C94C2010C94C2010C94C201FC08150802
S11300B01F082C0836089608F70800000000000006
S11300C0000000000000000000000000000000002C
S11300D0645F5B5F625F5B5F645F5B5F625F5B5F2C
S11300E0645F5B5F625F5B5F645F5B5F625F5B5F1C
S11300F0625D5A5D625D5A5D645D5A5D645D5A5D20
S1130100645F5B5F625F5B5F645F5B5F625F5B5FFB
S1130110645F5B5F625F5B5F645F5B5F625F5B5FEB
S1130120645F5B5F625F5B5F645F5B5F625F5B5FDB
S1130130625D5A5D625D5A5D645D5A5D645D5A5DDF
S1130140635F5C57C0A84068A14061A34063A8A155
S1130150A84068A14061A34063A89CE3E19C9D9FE3
S1130160A1E3A4B0AB406BAE406EAB406BAE406E4F
S1130170AB406BAE406EAB406BEE00C002000004BF
S11301800100000000000000000000000000CF009B
S11301904E4F51918F409351D8C058914F8E40513A
S11301A09493409158988F40004E4F5151CF004E38
S11301B04F5191404F934051D840C0914F8E405180
S11301C094405391585351505153558058579590DA
S11301D0515353555355554095585795904E50513A
S11301E053535190904E4C4B4B8C8E504E4C4C8EE6
S11301F09053555350505140514F4F405F5B5F6295
S11302005F5B5F645F5B5F625F5B5F645F5B5F62FA
S11302105F5B5F645F5B584E4F5151004E4F5151CD
S113022000000075697367766A7165786C73673A64
S11302302E7A787603000000000000000000000021
S113024000000000000000000000000000000000AA
S113025000004F4D155214131456565453131416CC
S113026014120F0D120F1412161416524F0D120FF2
S1130270141216151213141614531614120F141301
S113028014165456544F4D155214131456565453B1
S113029013141614120F0D120F1412161416524FB3
S11302A00D120F14121615121314161453161412D9
S11302B00F14131416545656561B19561B1916149C
S11302C012161112110F56561B19161B1112141661
S11302D01D1E1D1B561B19561B1916161412161B10
S11302E0191B561617161B19161112110F565756AD
S11302F01B19561B19161412161112110F56561BE0
S113030019161B111214161D1E1D1B561B19561BE4
S11303101916161412161B191B561617161B191626
S11303201112110F56540000000012110F000A118F
S113033012110F0A0605060B0A000F0012110F0016
S11303404A080B0A08050605080011241FBECFEF52
S1130350CDBFD7E2DEBF11E2A0E0B0E2E6E3F0E217
S113036002C005900D92AA37B107D9F722E2AAE795
S1130370B1E201C01D92AB37B207E1F70E94550903
S11303800C9419100C940000CF9380917A21882347
S113039019F0813089F188C00E94F00360E00E9466
S11303A0330780917E218830B1F40E946B0A811159
S11303B012C00E94F00360E00E94330781E0809342
S11303C07A2110927B2110927C2110927E2184E06C
S11303D080937D2169C00E946B0A811165C0E09100
S11303E07E2181E08E0F80937E21F0E0E65FFF4D59
S11303F080810E943B0A58C080917B2190917C218E
S11304008530910530F4019680937B2190937C2173
S11304104BC0089778F40E94F00360E00E94330711
S113042080917B2190917C21019680937B219093F4
S11304307C213AC090917E2180917D2198130FC038
S11304400E94F00360E00E94330782E080937A21E7
S113045010927B2110927C2110927E2125C00E9453
S11304606B0A811121C080917E21E091A621F09137
S1130470A721E80FF11DC0810E94F0036C2F0E9498
S11304803307E091A621F091A72180917E2191E08C
S1130490980F90937E21E80FF11D80810E943B0A02
S11304A010927B2110927C21CF910895E0E0F2E03C
S11304B081818065818382818061828313828481CA
S11304C08460848381E0868380A1816080A381A18C
S11304D0806181A385E080838091060280FFFCCF48
S11304E0E0E0F2E081E0868384A195A11082089582
S11304F00F931F93CF938AE090E00E941B0E80938A
S1130500A6219093A7210E9456020E948D0FC0E05D
S113051018C00091A6211091A7210C0F111D0E9453
S1130520880F83709078992324F401978C6F9F6FC0
S1130530019691E001C0990F8A95EAF7F80190833A
S1130540CF5FCA3030F3CF911F910F9108950F936D
S11305501F93CF938FE090E00E941B0E8093A621FF
S11305609093A7210E9456020E948D0FC0E010C0F4
S11305700091A6211091A7210C0F111D0E94880F34
S11305806FE070E00E94ED0D8F5FF8018083CF5F14
S1130590CF3070F3CF911F910F910895811103C053
S11305A00E94780208950E94A70208950E94C4013F
S11305B0089584E98093850410928004E1E8F4E0CE
S11305C08081886F80831092820410928304E4E80F
S11305D0F4E080818D6C808308954093AB21509327
S11305E0AC211092AE211092AF211092B0216093F1
S11305F0B2217093B32190E0880F991F816080939A
S113060086048091B0218130E1F780E00895109252
S1130610AD214093AB215093AC211092AE211092A6
S1130620AF211092B0216093B2217093B321880F4F
S1130630809386048091B0218130E1F780E00895B1
S11306401F920F920FB60F9211242F933F934F9343
S11306505F938F939F93EF93FF938091840483FF21
S113066003C083E0809383048091840482FD04C0EA
S11306708091840484FF08C0E3E8F4E083E080838D
S113068081E080838093B0218091B021882331F070
S1130690E4E8F4E080818064808379C080918404FC
S11306A086FF47C08091840484FD43C08091AD21BE
S11306B08823C9F08091AA21882369F08091B1210F
S11306C0809387048091AE219091AF21019680930D
S11306D0AE219093AF218091B4218093870481E06F
S11306E08093AA2115C02091B2213091B321809129
S11306F0AE219091AF21AC014F5F5F4F4093AE218B
S11307005093AF21F901E80FF91F8081809387048A
S11307102091AE213091AF218091AB219091AC21F9
S11307202817390731F483E08093830481E08093B0
S1130730B02180918404882354F52091B221309112
S1130740B3218091AE219091AF21AC014F5F5F4FF7
S11307504093AE215093AF21F901E80FF91F209186
S1130760870420832091AE213091AF218091AB2169
S11307709091AC212817390739F487E080938304DA
S113078081E08093B02103C082E080938304FF91D1
S1130790EF919F918F915F914F913F912F910F9086
S11307A00FBE0F901F901895CF93DF9300D0CDB755
S11307B0DEB78A8341E050E0BE016E5F7F4F80E286
S11307C00E94070341E050E0BE016F5F7F4F80E26B
S11307D00E94ED0289810F900F90DF91CF910895CF
S11307E0CF9380E00E94D403C82F81E00E94D403F9
S11307F090E0982F88278C0F911DCF910895CF9367
S1130800DF9300D01F92CDB7DEB70E94D90286E0F5
S113081089838FEF8A838B8343E050E0BE016F5F4F
S11308207F4F80E20E9407030E94F00380937F21A0
S1130830909380212396CDBFDEBFDF91CF910895A1
S113084080917F219091802108950E94F00320914E
S11308507F21309180218217930799F020917F2185
S1130860309180212817390730F480937F219093A9
S1130870802182E0089580937F219093802181E0FC
S1130880089580E0089580FF13C020915C2030918A
S11308905D2040915E202093452230934622409370
S11308A04722209348223093492240934A2212C07F
S11308B02091502030915120409152202093452284
S11308C03093462240934722209348223093492272
S11308D040934A2281FF13C02091592030915A201D
S11308E040915B2020934B2230934C2240934D2225
S11308F020934E2230934F224093502212C02091D5
S11309005020309151204091522020934B2230931B
S11309104C2240934D2220934E2230934F224093F9
S1130920502282FF13C020915620309157204091CD
S113093058202093512230935222409353222093E3
S11309405422309355224093562212C020915020B5
S113095030915120409152202093512230935222C1
S1130960409353222093542230935522409356228D
S113097083FF13C08091532090915420A09155205F
S11309808093572290935822A093592280935A22FD
S113099090935B22A0935C220895809150209091C3
S11309A05120A09152208093572290935822A093D3
S11309B0592280935A2290935B22A0935C2208953B
S11309C0CF93DF93BC01D0E042C08D2F90E021E0B3
S11309D030E00D2E02C0220F331F0A94E2F72623C3
S11309E03723232B99F5DD2329F00197982F990FAD
S11309F0890F01C08DE2C0E027C09BEA899F912D39
S1130A001124929596959770282F30E3939F20197F
S1130A10112430E04C2F50E0F901EE0FFF1F2E0F90
S1130A203F1FF901EB54FE4DDA01AA0FBB1F4A0F19
S1130A305B1FDA01A85CBF4D2D913D914C91208341
S1130A40318342838F5FCF5FC730B8F2DF5FD0312D
S1130A5008F4BBCFDF91CF910895FF920F931F93BA
S1130A60CF93DF93EC01F62E10E036C00091812184
S1130A70802F90E0810F911D60E370E00E94ED0DE6
S1130A80AC019BEA199F912D112496959695969504
S1130A90892F880F980F892F880F880F212F281BE3
S1130AA030E0DA01AA0FBB1F4A0F5B1FDA01AB5417
S1130AB0BE4DF901EE0FFF1F2E0F3F1FF901EC5E33
S1130AC0FF4D2081318142812D933D934C9300331E
S1130AD011F4109281211F5F103340F28091812123
S1130AE08F5F809381218F2D0E944304CE010E9449
S1130AF0E00468E370E085EB91E20E94DF0DDF9192
S1130B00CF911F910F91FF9008956F927F928F92D2
S1130B10CF92DF92EF92CF93DF938091812180FD7A
S1130B200BC080911220181624F48FEF80931220AA
S1130B3003C081E08093122030E020E070C02630B2
S1130B4028F0A22FB0E0A231B1054CF1822F90E041
S1130B50A09112200A2E000CBB0BFC01EA0FFB1F14
S1130B60EF01CC0FDD1FEC0FFD1FEB54FE4D609029
S1130B705020709051208090522060827182828235
S1130B8048968A1B9B0BFC01EE0FFF1F8E0F9F1FC5
S1130B90FC01EB54FE4D6082718282823FC0C091A1
S1130BA012200C2E000CDD0BCD018C0F9D1F40E09C
S1130BB050E160E1FC01EE0FFF1F8E0F9F1FFC014F
S1130BC0EB54FE4D4083518362835896AC1BBD0B9E
S1130BD08BEA389F812D1124869586958695982FCA
S1130BE0990F890F982F990F990F832F891B90E0E4
S1130BF0FD01EE0FFF1FAE0FBF1FAB54BE4DFC0136
S1130C00EE0FFF1F8E0F9F1FFC01EC5EFF4D6080F7
S1130C10718082806D927D928C923F5F2F5F28312C
S1130C2008F48DCF80911220082E000C990B9C01A2
S1130C302A5F3F4FF901EE0FFF1F2E0F3F1FF901EF
S1130C40EB54FE4D20914D2030914E2040914F2089
S1130C502083318342834196FC01EE0FFF1F8E0FE8
S1130C609F1FFC01EB54FE4D20833183428320E31C
S1130C7039C03091812185E6389F912D1124832F2D
S1130C80891B8695890F82958F7097E1899F30190A
S1130C901124332399F0822F90E0C12CD12C689435
S1130CA0EE24E6F8FC01EE0FFF1F8E0F9F1FFC01E0
S1130CB0EB54FE4DC082D182E28213C0822F90E0B9
S1130CC0FC01EE0FFF1F8E0F9F1FFC01EB54FE4D26
S1130CD080914D2090914E20A0914F20808391834C
S1130CE0A2832F5F283328F2809181218F5F809324
S1130CF0812168E370E085EB91E20E94DF0DDF91D2
S1130D00CF91EF90DF90CF908F907F906F90089568
S1130D106F927F928F92CF92DF92EF92CF93DF9375
S1130D2080918121813130F4909112209C5F9093C5
S1130D30122005C09091122094509093122080327A
S1130D4011F410928121A0E034C02A2F30E0A901CF
S1130D50440F551F80911220682F880F770B460F80
S1130D60571F552314F4495F5F4F55954795559583
S1130D7047955595479580E290E0821B930B880F29
S1130D80991F860F971F99230CF4039695958795C1
S1130D9095958795642E712C882EF901EE0FFF1F0F
S1130DA02E0F3F1FF901EB54FE4D60827182828247
S1130DB0AF5FA83150F2A0E03FC06A2F70E09B0102
S1130DC0285E3F4F80E290E0861B970B880F991FA7
S1130DD040911220840F911D47FD9A95FC0199239F
S1130DE00CF43396F595E795F595E795AC019923C1
S1130DF014F44F5F5F4F5595479588E190E0EC01FF
S1130E00C61BD70BCE010AF40F9695958795959539
S1130E1087959595879595958795CE2ED42EE82E12
S1130E20F901EE0FFF1F2E0F3F1FF901EB54FE4D8A
S1130E30C082D182E282AF5FA83108F4BECF809134
S1130E4081218F5F8093812168E370E085EB91E2DB
S1130E500E94DF0DDF91CF91EF90DF90CF908F90C4
S1130E607F906F9008952F923F924F926F927F924E
S1130E708F92CF92DF92EF92CF93DF93AC01D62F74
S1130E8090E013C0292F30E06894222421F8312CFB
S1130E90412CF901EE0FFF1F2E0F3F1FF901EB54F8
S1130EA0FE4D2082318242829F5F9C3058F30FC0F6
S1130EB0A0E0B2E0C0E0F901EE0FFF1F2E0F3F1FCC
S1130EC0F901EB54FE4DA083B183C2839F5F292FA8
S1130ED030E02831310564F311C0612C712C689421
S1130EE0882481F8F901EE0FFF1F2E0F3F1FF9012F
S1130EF0EB54FE4D6082718282829F5F292F30E025
S1130F002432310554F311C0CC24C394DD24D3948A
S1130F10E12CF901EE0FFF1F2E0F3F1FF901EB54D7
S1130F20FE4DC082D182E2829F5F292F30E02033C0
S1130F30310554F3CA010E94E0048D2F0E9443043A
S1130F4068E370E085EB91E20E94DF0DDF91CF91C1
S1130F50EF90DF90CF908F907F906F904F903F9065
S1130F602F9008950E94260D843019F40E9485055F
S1130F7008950E948806089588ED84BF82E08093D6
S1130F8050008091510081FFFCCF88ED84BF91E037
S1130F909093400084BF10924100089587E08093AD
S1130FA0A2000895E0E0F6E081E0828388E1808B8E
S1130FB0A0E6B6E080EE11968C93119716968C936A
S1130FC0A0E4B6E080E811968C93119716968C9362
S1130FD084E08183089580E880934506E0E0F6E0AC
S1130FE080EF828388E1848B858B868B878B089541
S1130FF00E94FF03089580E1809341068093610677
S113100084E0809305060895CF93DF93CDB7DEB7D0
S1131010A297CDBFDEBF90E08730910508F0ECC009
S1131020FC01EA5AFF4F0C94010E80E180934106C3
S11310300E94EB070E94610A0E94F807DDC080E16C
S1131040809341060E94EB070E94610A0E94F80700
S113105080E00E94CE02D0C00E94EB070E94610A89
S11310600E94F80781E00E94CE02C6C00E94FB07DE
S11310708BED95E389A39AA38AE293E089839A830B
S11310808FE190E08B839C8386E293E08D839E8343
S113109084E090E08F83988782E592E089879A873D
S11310A084ED90E08B879C8787E392E08D879E8711
S11310B08BE190E08F87988B85E392E0898B9A8B04
S11310C082E090E08B8B9C8B84E392E08D8B9E8BF3
S11310D081E090E08F8B988F83E292E0898F9A8FE2
S11310E081E190E08B8F9C8F80E292E08D8F9E8FC8
S11310F083E090E08F8F98A382EB97E09F938F9388
S11311008DB79EB782978DBF9EBFADB7BEB7119600
S113111082E2FE01319601900D928A95E1F70E94D8
S1131120E60BCDBFDEBF0E94790C66C00E94200D85
S1131130882309F461C00E94FB0789E09DE389A329
S11311409AA38CE192E089839A8384E090E08B8374
S11311509C838BE192E08D839E8381E090E08F837A
S113116098872EE831E029873A872DE830E02B87ED
S11311703C872CE731E02D873E8722E130E02F8742
S1131180388B2BE731E0298B3A8B8B8B9C8B2AE7AE
S113119031E02D8B3E8B8F8B988F80ED90E0898F83
S11311A09A8F8AEA90E08B8F9C8F8AEB90E08D8FE8
S11311B09E8F86E190E08F8F98A382EB97E09F93B8
S11311C08F938DB79EB782978DBF9EBFADB7BEB7C5
S11311D0119682E2FE01319601900D928A95E1F713
S11311E00E94E60BCDBFDEBF0E94790C05C00E94B1
S11311F0230D81110E94EB07A296CDBFDEBFDF91C4
S1131200CF9108958091080680FD13C02FEF80E7E9
S113121092E0215080409040E1F700C000008091AE
S1131220080680FD06C08091080680FFFCCF0E945E
S1131230530D0895982FE0E6F6E08481282F2F714E
S1131240892F90E00196880F991F82959295907F3F
S11312509827807F9827822B84830895809108069D
S113126090E080959095807F9927959587959595A1
S1131270879595958795959587950895CF93DF9351
S11312800E942E09C82F0E942504D82F0E946B0AA1
S1131290CC2339F0DD2329F0811103C08C2F0E9467
S11312A03B0A8C2FDF91CF910895E0E0F6E088E0CF
S11312B081838683F8940E94BC070E94CE077894A9
S11312C00E94D2070E94FF038091080680FFFCCF92
S11312D00E94350D0E94260D0E941A090E94260DB7
S11312E00E9404080E94290D0E948F0D0E94020989
S11312F080918221909183210A97C0F388E08093A2
S113130007060E94260D813019F0823051F00BC07F
S11313100E943E09C82F0E9420046C2F0E942D05B4
S113132002C00E94D6021092822110928321DECF45
S11313301F920F920FB60F9211242F933F934F9346
S11313405F936F937F938F939F93AF93BF93EF9329
S1131350FF930E947D0CFF91EF91BF91AF919F91FC
S11313608F917F916F915F914F913F912F910F904A
S11313700FBE0F901F9018951F920F920FB60F92E9
S113138011242F933F934F935F936F937F938F9386
S11313909F93AF93BF93EF93FF930E94680AFF91CB
S11313A0EF91BF91AF919F918F917F916F915F91D9
S11313B04F913F912F910F900FBE0F901F90189552
S11313C01F920F920FB60F9211248F939F938091C7
S11313D0822190918321019680938221909383218D
S11313E09F918F910F900FBE0F901F901895E0E47E
S11313F0F8E081E08183848384E080830895E0E4DD
S1131400F9E01182148283E0878387E0808388E394
S113141091E086A397A3089580EC80938101E0E096
S1131420F8E080EB94E086A397A387E08083E0E074
S1131430F3E081E0818398E09283838385E0808375
S1131440E0E0F1E080E4808B81E3828B85E1848BB2
S113145083E1818B80E8808308958091132090E05C
S1131460E0E0F1E0868B978B8FE590E2808F918F9F
S113147085E8808B0895CF93DF9391E09093842146
S1131480E82FF0E03796EE0FFF1FE758FF4D8081FD
S11314909181C0E4D8E088A799A70E942D0A84E02E
S11314A08883DF91CF91089510928421E0E0F1E0E8
S11314B081898061818BE0E4F8E010A211A210829E
S11314C008950E94F7090E94FF090E940C0A0895DA
S11314D00E94540A0895809184210895E0E0F8E080
S11314E01182148223E02683108286A397A3089591
S11314F0E0E4F8E081E08183848384E080830895DC
S1131500E0E4F9E081E08183848384E080830895CA
S1131510CF92DF92EF92FF920F931F93CF93DF93BB
S11315206C01E901D70181E0F6018083888199810A
S1131530680F791FFB019081892F82958695869586
S1131540837061E070E002C0660F771F8A95E2F74E
S11315506150F80120813181420F531FFA0120812B
S113156030E00C9002C0359527950A94E2F720FDEF
S11315706FE0F60160839F73892F90E0009751F02C
S1131580880F991FFC01E750FF4D4081518156950A
S1131590479502C040E050E0288139812F5F3F4FDA
S11315A0288339839C919F5F9C93983039F41C92D3
S11315B0F80180819181019680839183CA01DF9132
S11315C0CF911F910F91FF90EF90DF90CF900895EE
S11315D0EF92FF920F931F934091612250916222E8
S11315E060917322709174220F2EFCE9EF2EF1E2C8
S11315F0FF2EF02D0DE911E22FE931E28BE991E2A2
S11316000E94880A80936808909369081F910F913B
S1131610FF90EF900895EF92FF920F931F934091E4
S113162075225091762260917122709172220F2E50
S1131630FDE8EF2EF1E2FF2EF02D0EE811E220E995
S113164031E28CE891E20E94880A809368099093C1
S113165069091F910F91FF90EF9008958091A22145
S1131660882399F091E09093942120916522309100
S11316706622209373223093742220916B2230913E
S11316806C222093612230936222811116C09091C2
S1131690A121992391F010929421209163223091F9
S11316A06422209373223093742220915F2230911C
S11316B06022209361223093622210929B21109227
S11316C09F211092A02110929D2110929E21109290
S11316D09C2190919321992399F021E020938521D5
S11316E020916F22309170222093712230937222C4
S11316F020915D2230915E222093752230937622D0
S1131700911116C090919221992391F01092852104
S113171020916D2230916E22209371223093722297
S1131720209167223091682220937522309376228B
S113173010928C21109290211092912110928E215E
S113174010928F2110928D21811103C08091A121CB
S113175081110E94E80A80919321811103C0809134
S1131760922181110E940B0B0895CF92DF92EF9288
S1131770FF920F931F93CF93DF931F92CDB7DEB7E2
S11317806C017B018A01CA010E941B0ED7018D9353
S11317909C9380E090E00DC0F601E80FF91FE491FE
S11317A0E983D701ED91FC91E80FF91F298120838A
S11317B001968017910780F30F90DF91CF911F91CD
S11317C00F91FF90EF90DF90CF9008950F931F93A8
S11317D0CF93DF93CDB7DEB789A59AA5809369220D
S11317E090936A228FA198A50E946E0A0E94780A9B
S11317F00E94800A8F8598890097D1F021E0209378
S1131800A12109891A89A80163E672E20E94B50B35
S11318104D895E896FE572E28B899C890E94B50BC4
S1131820009397211093982100939521109396216A
S11318308F8198850097D1F021E02093A22109851A
S11318401A85A80165E672E20E94B50B4D855E8596
S11318506BE672E28B859C850E94B50B00939921FF
S113186010939A2100939521109396218F8D98A11E
S11318700097D1F021E02093922109A11AA1A80197
S11318806DE672E20E94B50B4DA15EA167E672E2BD
S11318908BA19CA10E94B50B0093882110938921F0
S11318A000938621109387218F89988D0097D1F01A
S11318B021E020939321098D1A8DA8016FE672E22D
S11318C00E94B50B4D8D5E8D6DE572E28B8D9C8D06
S11318D00E94B50B00938A2110938B2100938621DB
S11318E0109387210E942E0BDF91CF911F910F91AE
S11318F0089586E080930008089581E080930C08A1
S113190080919B2181113DC0E0E4F8E0108210A693
S113191011A620919F213091A02180919521909131
S113192096212817390750F1809194218823D1F00A
S113193010929421809197219091982180939521E0
S113194090939621809163229091642280937322D4
S11319509093742280915F229091602280936122FF
S11319609093622210929B2110929F211092A021A9
S113197010929D2110929E2110929C210E94E80AAF
S113198003C0815080939B2180918C21811141C09F
S1131990E0E4F9E0108210A611A620919021309184
S11319A0912180918621909187212817390770F120
S11319B0809185218823F1F0809192218823D1F0B0
S11319C0109285218091882190918921809386218C
S11319D09093872180916D2290916E228093712241
S11319E0909372228091672290916822809375224D
S11319F09093762210928C21109290211092912132
S1131A0010928E2110928F2110928D210E940B0B27
S1131A1003C0815080938C21E0916922F0916A2265
S1131A2009952FEF83EF91E0215080409040E1F73A
S1131A3000C0000084E0809340088093400908952A
S1131A408091A42108958091A32108958091A521D6
S1131A50089560E081E090E00E94A00F089588ED71
S1131A6084BF83E080938000089581E090E00E9429
S1131A70980F8093A5218091A521873020F01092A2
S1131A80A5210E94290D82E090E00E94980F809386
S1131A90A42185E58093A42183E090E00E94980F1F
S1131AA08093A32108958091A5218F5F8093A52120
S1131AB08091A5218530C9F48091A421853539F020
S1131AC08091A321853519F01092A5211FC0809122
S1131AD0A4218535D9F08091A3218535B9F480916D
S1131AE0A5218F5F8093A52111C08091A521863007
S1131AF039F48091A321853549F01092A52106C0BF
S1131B008091A521873010F01092A5216091A52124
S1131B1081E090E00E94A00F0E942F0DFFCFA0E073
S1131B20B1E080EB8C93D1961C92D19781E0D29650
S1131B308C93D297D3961C92D397E0ECF9E0DC9681
S1131B40ED93FC93DD979DE6D4969C93A0E6B6E0D6
S1131B5050961C92509751968C93519783E05396CC
S1131B608C9353979BE011969C93A0E8B1E09BE67D
S1131B709C9318961C92189799E616969C93169720
S1131B801E961C9293E196831782128292EC9483A0
S1131B90158298E09383E0E6F4E091E194838583F1
S1131BA08EE9868386E186878DE0848784E5808359
S1131BB080E5818380E4828380EA83830895E0E082
S1131BC0F1E080AF91AFCB01880F991F680F791FA7
S1131BD066AB77AB84E880AB089597FB072E16F4C9
S1131BE0009407D077FD09D00E94070E07FC05D0AA
S1131BF03EF4909581959F4F0895709561957F4F20
S1131C000895EE0FFF1F0590F491E02D0994AA1B8F
S1131C10BB1B51E107C0AA1FBB1FA617B70710F0D3
S1131C20A61BB70B881F991F5A95A9F78095909505
S1131C30BC01CD0108950F931F93CF93DF9382309E
S1131C40910510F482E090E0E0917922F0917A22FB
S1131C5020E030E0A0E0B0E0309719F140815181FC
S1131C600281138148175907C8F08417950769F44E
S1131C70109731F012960C93129713961C9327C069
S1131C800093792210937A2222C02115310519F08C
S1131C904217530718F49A01BD01EF01DF01F8015F
S1131CA0DBCF21153105F9F0281B390B2430310520
S1131CB080F48A819B816115710521F0FB01828387
S1131CC0938304C08093792290937A22FE01329602
S1131CD044C0FE01E20FF31F819391932250310916
S1131CE0288339833AC02091772230917822232B9C
S1131CF041F42091022030910320209377223093E5
S1131D00782220910020309101202115310541F4E1
S1131D102DB73EB74091042050910520241B350B6C
S1131D20E0917722F0917822E217F307A0F42E1BBA
S1131D303F0B2817390778F0AC014E5F5F4F24172B
S1131D40350748F04E0F5F1F409377225093782257
S1131D508193919302C0E0E0F0E0CF01DF91CF9155
S1131D601F910F910895CF93DF93009709F481C0D9
S1131D70FC01329712821382A0917922B0917A22C7
S1131D80109781F420813181820F931F2091772253
S1131D90309178222817390751F5E0937722F09390
S1131DA0782267C0ED0120E030E0CE17DF0740F471
S1131DB04A815B819E0141155105F1F0EA01F5CF9D
S1131DC0C283D38340815181840F951FC817D907DB
S1131DD059F488819981840F951F02968083918399
S1131DE08A819B81828393832115310529F4E093B1
S1131DF07922F0937A223DC0E901EA83FB83499179
S1131E005991C40FD51FEC17FD0761F480819181AE
S1131E10840F951F0296E9018883998382819381B7
S1131E208A839B83E0E0F0E012968D919C91139756
S1131E30009719F0FD01DC01F7CF8D919C9111976A
S1131E409D012E5F3F4F820F931F20917722309187
S1131E5078222817390769F4309729F410927922E7
S1131E6010927A2202C012821382A0937722B09336
S1131E707822DF91CF9108958F929F92AF92BF9273
S1131E80CF92DF92EF92FF92CF93DF93EC016881C0
S1131E9079818A819B81611571058105910521F400
S1131EA064E279ED8BE597E02DE133EF41E050E01A
S1131EB00E94B60F49015A019B01AC01A7EAB1E4A3
S1131EC00E94D50F6B017C01ACEEB4EFA501940127
S1131ED00E94E30FDC01CB018C0D9D1DAE1DBF1DC7
S1131EE0B7FF03C00197A109B04888839983AA83E7
S1131EF0BB839F77DF91CF91FF90EF90DF90CF90DE
S1131F00BF90AF909F908F9008950E943C0F0895CA
S1131F1086E090E20E943C0F0895A0E0B0E0809338
S1131F20062090930720A0930820B09309200895D9
S1131F3003D0808199270895FC01E050F04F089563
S1131F40262FAF93BF93E0ECF1E0378537FDFDCF4B
S1131F50DC01A050B04F2C9325E3228728ED31E01B
S1131F6024BF33870196BF91AF910895052E97FB47
S1131F701EF400940E94CD0F57FD07D00E94E80F75
S1131F8007FC03D04EF40C94CD0F5095409530953A
S1131F9021953F4F4F4F5F4F0895909580957095D1
S1131FA061957F4F8F4F9F4F08950E940A10A59F00
S1131FB0900DB49F900DA49F800D911D1124089540
S1131FC0B7FF0C94D50F0E94D50F821B930B089575
S1131FD0A1E21A2EAA1BBB1BFD010DC0AA1FBB1F29
S1131FE0EE1FFF1FA217B307E407F50720F0A21B9B
S1131FF0B30BE40BF50B661F771F881F991F1A9408
S113200069F760957095809590959B01AC01BD0131
S1132010CF010895A29FB001B39FC001A39F700D8B
S1132020811D1124911DB29F700D811D1124911DDC
S10920300895F894FFCFAF
S113203600007B222000010000000D0A07030C08A3
S11320460501FF1A004000041000101000100400DF
S113205640000010000410001004001000004000AE
S11320660410001010001004000000020202040410
S113207604101010040404020202000000101010E0
S1132086000000202000000040400000004000FF47
S11320960FA00FD80EAC0D1C0C280AD0071405F49B
S11320A60190012C01C8006400B404FC044805989E
S11320B605EC054806A8060C077807E8076008E05B
S11320C6086809F809900A300BD80B900C4C0D18C7
S11320D60EF00ED00FC410C011D012F0131C1560F0
S11320E616B4171C199C1A301CDC1DA41F842184E9
S11320F623A025DC273C2AC02C682F3832343560CF
S113210638B83B483F08430447404BB84F74547CA7
S113211659CC5E7064686ABC707077887E14860CCD
S11321268E8096709FECA8FCB2B404FC0448059813
S113213605EC054806A8060C077807E8076008E0DA
S1132146086809F809900A300BD80B900C4C0D1846
S11321560EF00ED00FC410C011D012F0131C15606F
S113216616B4171C199C1A301CDC1DA41F84218468
S113217623A025DC273C2AC02C682F38323435604E
S113218638B83B483F08430447404BB84F74547C27
S113219659CC5E7064686ABC707077887E14860C4D
S10D21A68E8096709FECA8FCB20036
S9030000FC
