:100000000C94F2000C940F010C940F010C946804F2
:100010000C940F010C940F010C940F010C940F0120
:100020000C940F010C940F010C940F010C945801C7
:100030000C9444040C940F010C940F010C940F01C8
:100040000C940F010C940F010C940F010C940F01F0
:100050000C940F010C940F010C940F010C940F01E0
:100060000C940F010C940F010C940F010C940F01D0
:100070000C940F010C940F010C940F010C940F01C0
:100080000C940F010C940F010C940F010C940F01B0
:100090000C940F010C940F010C948C040C940F0120
:1000A0000C940F010C940F010C940F01A603220372
:1000B0002C0333033A039A03A1030000007569730C
:1000C00067766A7165786C73673A2E7A7876030082
:1000D0000000000000000000000000000000000020
:1000E0000000000000000000000000004F4D15520D
:1000F0001413145656545313141614120F0D120FD2
:100100001412161416524F0D120F14121615121344
:10011000141614531614120F141314165456544F65
:100120004D15521413145656545313141614120F1B
:100130000D120F1412161416524F0D120F14121620
:10014000151213141614531614120F1413141654F4
:100150005656561B19561B19161412161112110F4A
:1001600056561B19161B111214161D1E1D1B561B4D
:1001700019561B1916161412161B191B561617168C
:100180001B19161112110F5657561B19561B19160B
:100190001412161112110F56561B19161B11121498
:1001A000161D1E1D1B561B19561B1916161412164A
:1001B0001B191B561617161B19161112110F565420
:1001C0000000000012110F000A1112110F0A06059B
:1001D000060B0A000F0012110F004A080B0A08054F
:1001E0000605080011241FBECFEFCDBFD7E2DEBF4A
:1001F00011E2A0E0B0E2EAEFF3E102C005900D9257
:10020000A232B107D9F722E2A2E2B1E201C01D9207
:10021000A830B207E1F70E9408040C94FB090C9483
:10022000000084E98093850410928004E1E8F4E002
:100230008081886F80831092820410928304E4E8A6
:10024000F4E080818D6C8083089540934A2150931F
:100250004B2110924D2110924E2110924F2160930C
:1002600051217093522190E0880F991F81608093F3
:10027000860480914F218130E1F780E0089510924B
:100280004C2140934A2150934B2110924D211092C2
:100290004E2110924F216093512170935221880F6B
:1002A0008093860480914F218130E1F780E00895AA
:1002B0001F920F920FB60F9211242F933F934F93DB
:1002C0005F938F939F93EF93FF938091840483FFB9
:1002D00003C083E0809383048091840482FD04C082
:1002E0008091840484FF08C0E3E8F4E083E0808325
:1002F00081E0808380934F2180914F21882331F0CA
:10030000E4E8F4E080818064808379C08091840493
:1003100086FF47C08091840484FD43C080914C21B6
:100320008823C9F080914921882369F08091502168
:100330008093870480914D2190914E210196809366
:100340004D2190934E21809153218093870481E029
:100350008093492115C020915121309152218091E3
:100360004D2190914E21AC014F5F5F4F40934D2145
:1003700050934E21F901E80FF91F80818093870483
:1003800020914D2130914E2180914A2190914B2115
:100390002817390731F483E08093830481E0809348
:1003A0004F2180918404882354F52091512130916C
:1003B000522180914D2190914E21AC014F5F5F4FB2
:1003C00040934D2150934E21F901E80FF91F2091E0
:1003D0008704208320914D2130914E2180914A2124
:1003E00090914B212817390739F487E080938304D3
:1003F00081E080934F2103C082E080938304FF91CA
:10040000EF919F918F915F914F913F912F910F901D
:100410000FBE0F901F901895CF93DF9300D0CDB7EC
:10042000DEB78A8341E050E0BE016E5F7F4F80E21D
:100430000E943F0141E050E0BE016F5F7F4F80E2CC
:100440000E94250189810F900F90DF91CF9108952F
:10045000CF9380E00E940C02C82F81E00E940C0222
:1004600090E0982F88278C0F911DCF910895CF93FE
:10047000DF9300D01F92CDB7DEB70E94110186E056
:1004800089838FEF8A838B8343E050E0BE016F5FE7
:100490007F4F80E20E943F010E9428028093222128
:1004A000909323212396CDBFDEBFDF91CF91089596
:1004B0000E94280220912221309123218217930744
:1004C00099F020912221309123212817390730F407
:1004D000809322219093232182E00895809322210A
:1004E0009093232181E0089580E0089540E03FC08B
:1004F000242F30E0F901EE0FFF1FE20FF31FEC5A3B
:10050000FE4D11821082128280912421B901680F60
:10051000711DCB0163E070E00E948E08813091056F
:1005200081F082309105C1F0892B01F5F901EE0FC0
:10053000FF1F2E0F3F1FF901EC5AFE4D80E481830F
:1005400015C0F901EE0FFF1F2E0F3F1FF901EC5AE6
:10055000FE4D80E480830AC0F901EE0FFF1F2E0FCD
:100560003F1FF901EC5AFE4D80E482834F5F423316
:1005700008F4BECF809124218F5F809324210895B9
:100580000E94760262E370E084E591E20E948008B6
:10059000089588ED84BF82E08093500080915100DF
:1005A00081FFFCCF88ED84BF91E09093400084BF31
:1005B00010924100089587E08093A2000895E0E042
:1005C000F6E081E0828388E1808BA0E6B6E080EEF1
:1005D00011968C93119716968C93A0E4B6E080E860
:1005E00011968C93119716968C9384E081830895CD
:1005F00080E880934506E0E0F6E080EF828388E1C2
:10060000848B858B868B878B08950E943702089593
:1006100080E1809341068093610684E08093050623
:100620000895CF93DF93CDB7DEB7A297CDBFDEBFDE
:1006300090E08730910508F089C0FC01EA5AFF4F2D
:100640000C94A20880E1809341060E94F8020E9467
:1006500008050E9405037AC00E94F8020E9408055E
:100660000E94050373C00E94F8020E9408050E94C0
:1006700005036CC00E9408038BED95E389A39AA340
:1006800084EC91E089839A838FE190E08B839C8353
:1006900080EC91E08D839E8384E090E08F83988747
:1006A0008CEE90E089879A8784ED90E08B879C8719
:1006B00081ED90E08D879E878BE190E08F87988B0E
:1006C0008FEC90E0898B9A8B82E090E08B8B9C8BF7
:1006D0008EEC90E08D8B9E8B81E090E08F8B988FDD
:1006E0008DEB90E0898F9A8F81E190E08B8F9C8FCA
:1006F0008AEB90E08D8F9E8F83E090E08F8F98A3A0
:1007000080EC92E09F938F938DB79EB782978DBFB9
:100710009EBFADB7BEB7119682E2FE013196019041
:100720000D928A95E1F70E948A06CDBFDEBF0E9436
:100730001D070CC00E94C407882341F00E940803D3
:1007400005C00E94C70781110E94F802A296CDBF82
:10075000DEBFDF91CF9108958091080680FD13C020
:100760002FEF80E792E0215080409040E1F700C0F9
:1007700000008091080680FD06C08091080680FF79
:10078000FCCF0E94F4070895982FE0E6F6E08481FC
:10079000282F2F71892F90E00196880F991F82953D
:1007A0009295907F9827807F9827822B8483089545
:1007B0008091080690E080959095807F9927959587
:1007C000879595958795959587959595879508959E
:1007D000CF93DF930E94D803D82F0E945802C82FCE
:1007E000DD2379F0882369F080912521811109C0EA
:1007F00088E08093070681E0809325218D2F0E9459
:10080000E704C11102C010922521DF91CF91089514
:10081000E0E0F6E088E081838683F8940E94C902D4
:100820000E94DB0278940E94DF020E9437028091CE
:10083000080680FFFCCF0E94D9070E94CA070E94C9
:10084000C4030E94CA070E9411030E94CD070E94A0
:1008500030080E94AC030E94CA078130D1F70E9481
:10086000E80380912621909127210A9790F30E9416
:10087000760262E370E084E591E20E9480081092C3
:10088000262110922721E5CF1F920F920FB60F92CB
:1008900011242F933F934F935F936F937F938F9385
:1008A0009F93AF93BF93EF93FF930E942107FF9114
:1008B000EF91BF91AF919F918F917F916F915F91D8
:1008C0004F913F912F910F900FBE0F901F90189551
:1008D0001F920F920FB60F9211242F933F934F93B5
:1008E0005F936F937F938F939F93AF93BF93EF9398
:1008F000FF930E940F05FF91EF91BF91AF919F91E0
:100900008F917F916F915F914F913F912F910F90B8
:100910000FBE0F901F9018951F920F920FB60F9257
:1009200011248F939F9380912621909127210196E6
:1009300080932621909327219F918F910F900FBE36
:100940000F901F901895E0E4F8E081E081838483A4
:1009500084E080830895E0E4F9E01182148283E06A
:10096000878387E0808388E391E086A397A3089537
:1009700080EC80938101E0E0F8E080EB94E086A3D6
:1009800097A387E08083E0E0F3E081E0818398E053
:100990009283838385E08083E0E0F1E080E4808BD4
:1009A00081E3828B85E1848B83E1818B80E8808386
:1009B00008958091062090E0E0E0F1E0868B978B2F
:1009C00087E090E2808F918F85E8808B0895CF93A8
:1009D000DF93E82FF0E03796EE0FFF1FEF5DFF4D3E
:1009E00080819181C0E4D8E088A799A70E94D904AA
:1009F00084E08883DF91CF910895E0E0F1E0818980
:100A00008061818BE0E4F8E010A211A210820895C9
:100A10000E94A3040E94AB040E94B80408950E949F
:100A2000FD040895E0E0F8E01182148223E02683BB
:100A3000108286A397A30895E0E4F8E081E0818323
:100A4000848384E080830895E0E4F9E081E0818399
:100A5000848384E080830895CF92DF92EF92FF92A7
:100A60000F931F93CF93DF936C01E901D70181E0CE
:100A7000F601808388819981680F791FFB0190813D
:100A8000892F829586958695837061E070E002C01B
:100A9000660F771F8A95E2F76150F8012081318156
:100AA000420F531FFA01208130E00C9002C03595AF
:100AB00027950A94E2F720FD6FE0F60160839F73AB
:100AC000892F90E0009751F0880F991FFC01EF5596
:100AD000FF4D408151815695479502C040E050E05E
:100AE000288139812F5F3F4F288339839C919F5FF5
:100AF0009C93983039F41C92F80180819181019681
:100B000080839183CA01DF91CF911F910F91FF9054
:100B1000EF90DF90CF900895EF92FF920F931F9385
:100B20004091EE215091EF216091002270910122BD
:100B30000F2EFFE3EF2EF1E2FF2EF02D00E411E285
:100B400022E431E28EE391E20E942C058093680852
:100B5000909369081F910F91FF90EF900895EF9285
:100B6000FF920F931F9340910222509103226091B4
:100B7000FE217091FF210F2EF0E3EF2EF1E2FF2E08
:100B8000F02D01E311E223E331E28FE291E20E94D2
:100B90002C0580936809909369091F910F91FF902C
:100BA000EF90089580914521882399F091E09093EA
:100BB00037212091F2213091F321209300223093AC
:100BC00001222091F8213091F9212093EE213093D8
:100BD000EF21811116C090914421992391F0109238
:100BE00037212091F0213091F12120930022309380
:100BF00001222091EC213091ED212093EE213093C0
:100C0000EF2110923E211092422110924321109226
:100C100040211092412110923F2190913621992339
:100C200099F021E0209328212091FC213091FD2191
:100C30002093FE213093FF212091EA213091EB2176
:100C40002093022230930322911116C090913521F6
:100C5000992391F0109228212091FA213091FB21C3
:100C60002093FE213093FF212091F4213091F52132
:100C7000209302223093032210922F2110923321CD
:100C80001092342110923121109232211092302191
:100C9000811103C08091442181110E948C058091B3
:100CA0003621811103C08091352181110E94AF0549
:100CB0000895CF92DF92EF92FF920F931F93CF93FD
:100CC000DF931F92CDB7DEB76C017B018A01CA01A9
:100CD0000E94BC08D7018D939C9380E090E00DC0EA
:100CE000F601E80FF91FE491E983D701ED91FC913A
:100CF000E80FF91F2981208301968017910780F35F
:100D00000F90DF91CF911F910F91FF90EF90DF90A7
:100D1000CF9008950F931F93CF93DF93CDB7DEB796
:100D200089A59AA58093F6219093F7218FA198A584
:100D30000E9412050E941C050E9424058F85988937
:100D40000097D1F021E02093442109891A89A80154
:100D500060EF71E20E9459064D895E896CEE71E286
:100D60008B899C890E94590600933A2110933B215C
:100D700000933821109339218F8198850097D1F005
:100D800021E02093452109851A85A80162EF71E2CF
:100D90000E9459064D855E8568EF71E28B859C85C2
:100DA0000E94590600933C2110933D210093382165
:100DB000109339218F8D98A10097D1F021E02093D5
:100DC000352109A11AA1A8016AEF71E20E94590612
:100DD0004DA15EA164EF71E28BA19CA10E94590616
:100DE00000932B2110932C210093292110932A2169
:100DF0008F89988D0097D1F021E020933621098DBD
:100E00001A8DA8016CEF71E20E9459064D8D5E8D1E
:100E10006AEE71E28B8D9C8D0E94590600932D2104
:100E200010932E210093292110932A210E94D2058C
:100E3000DF91CF911F910F91089586E08093000874
:100E4000089581E080930C0880913E2181113DC07E
:100E5000E0E4F8E0108210A611A620914221309122
:100E6000432180913821909139212817390750F179
:100E7000809137218823D1F01092372180913A2137
:100E800090913B2180933821909339218091F021DA
:100E90009091F12180930022909301228091EC2186
:100EA0009091ED218093EE219093EF2110923E21BD
:100EB0001092422110924321109240211092412120
:100EC00010923F210E948C0503C0815080933E21E7
:100ED00080912F21811141C0E0E4F9E0108210A639
:100EE00011A62091332130913421809129219091B4
:100EF0002A212817390770F1809128218823F1F0E1
:100F0000809135218823D1F01092282180912B21C6
:100F100090912C218093292190932A218091FA216C
:100F20009091FB218093FE219093FF218091F421E9
:100F30009091F521809302229093032210922F2109
:100F400010923321109234211092312110923221CB
:100F5000109230210E94AF0503C0815080932F2151
:100F6000E091F621F091F72109952FEF83EF91E0C1
:100F7000215080409040E1F700C0000084E0809361
:100F800040088093400908958091472108958091F9
:100F90004621089580914821089560E081E090E025
:100FA0000E94E509089588ED84BF83E08093800066
:100FB000089581E090E00E94DD09809348218091AE
:100FC0004821873020F0109248210E94CD0782E00E
:100FD00090E00E94DD098093472183E090E00E9429
:100FE000DD09809346210895809148218F5F809389
:100FF0004821809148218530C9F480914721853569
:1010000039F080914621853519F0109248211FC092
:10101000809147218535D9F0809146218535B9F4F5
:10102000809148218F5F8093482111C08091482191
:10103000863039F480914621853549F01092482157
:1010400006C080914821873010F0109248216091AD
:10105000482181E090E00E94E5090E94D3070895AD
:10106000A0E0B1E080EB8C93D1961C92D19781E007
:10107000D2968C93D297D3961C92D397E0ECF9E05A
:10108000DC96ED93FC93DD979DE6D4969C93A0E6C9
:10109000B6E050961C92509751968C93519783E0EE
:1010A00053968C9353979BE011969C93A0E8B1E0E4
:1010B0009BE69C9318961C92189799E616969C931B
:1010C00016971E961C9293E196831782128292ECD9
:1010D0009483158298E09383E0E6F4E091E19483B1
:1010E00085838EE9868386E186878DE0848784E523
:1010F000808380E5818380E4828380EA838308950E
:10110000E0E0F1E080AF91AFCB01880F991F680F4D
:10111000791F66AB77AB84E880AB089597FB072E09
:1011200016F4009407D077FD09D00E94A80807FCA8
:1011300005D03EF4909581959F4F089570956195E7
:101140007F4F0895EE0FFF1F0590F491E02D099455
:10115000AA1BBB1B51E107C0AA1FBB1FA617B707DD
:1011600010F0A61BB70B881F991F5A95A9F78095F9
:101170009095BC01CD0108950F931F93CF93DF93FA
:101180008230910510F482E090E0E0910622F09127
:10119000072220E030E0A0E0B0E0309719F1408174
:1011A00051810281138148175907C8F084179507A8
:1011B00069F4109731F012960C93129713961C93C2
:1011C00027C0009306221093072222C02115310563
:1011D00019F04217530718F49A01BD01EF01DF011E
:1011E000F801DBCF21153105F9F0281B390B24302C
:1011F000310580F48A819B816115710521F0FB0125
:101200008283938304C08093062290930722FE0179
:10121000329644C0FE01E20FF31F81939193225056
:101220003109288339833AC0209104223091052264
:10123000232B41F42091022030910320209304229B
:101240003093052220910020309101202115310595
:1012500041F42DB73EB74091042050910520241B46
:10126000350BE0910422F0910522E217F307A0F478
:101270002E1B3F0B2817390778F0AC014E5F5F4FEC
:101280002417350748F04E0F5F1F409304225093F8
:1012900005228193919302C0E0E0F0E0CF01DF915D
:1012A000CF911F910F910895CF93DF93009709F489
:1012B00081C0FC01329712821382A0910622B09164
:1012C0000722109781F420813181820F931F209192
:1012D0000422309105222817390751F5E0930422A2
:1012E000F093052267C0ED0120E030E0CE17DF0764
:1012F00040F44A815B819E0141155105F1F0EA01FC
:10130000F5CFC283D38340815181840F951FC817C5
:10131000D90759F488819981840F951F029680839B
:1013200091838A819B81828393832115310529F4DE
:10133000E0930622F09307223DC0E901EA83FB8394
:1013400049915991C40FD51FEC17FD0761F48081B5
:101350009181840F951F0296E90188839983828188
:1013600093818A839B83E0E0F0E012968D919C91BB
:101370001397009719F0FD01DC01F7CF8D919C9137
:1013800011979D012E5F3F4F820F931F20910422E2
:10139000309105222817390769F4309729F4109203
:1013A00006221092072202C012821382A093042206
:1013B000B0930522DF91CF91089503D080819927C2
:1013C0000895FC01E050F04F0895262FAF93BF938E
:1013D000E0ECF1E0378537FDFDCFDC01A050B04FE8
:1013E0002C9325E3228728ED31E024BF3387019633
:0A13F000BF91AF910895F894FFCF6C
:1013FA000000082220001AFF0FA00FD80EAC0D1C07
:10140A000C280AD0071405F40190012C01C80064C5
:10141A0000B404FC0448059805EC054806A8060C27
:10142A00077807E8076008E0086809F809900A30B1
:10143A000BD80B900C4C0D180EF00ED00FC410C028
:10144A0011D012F0131C156016B4171C199C1A300F
:10145A001CDC1DA41F84218423A025DC273C2AC070
:10146A002C682F383234356038B83B483F0843047B
:10147A0047404BB84F74547C59CC5E7064686ABC60
:10148A00707077887E14860C8E8096709FECA8FC0C
:10149A00B2B404FC0448059805EC054806A8060CF5
:1014AA00077807E8076008E0086809F809900A3031
:1014BA000BD80B900C4C0D180EF00ED00FC410C0A8
:1014CA0011D012F0131C156016B4171C199C1A308F
:1014DA001CDC1DA41F84218423A025DC273C2AC0F0
:1014EA002C682F383234356038B83B483F084304FB
:1014FA0047404BB84F74547C59CC5E7064686ABCE0
:10150A00707077887E14860C8E8096709FECA8FC8B
:02151A00B2001D
:00000001FF
