S01E0000786D656761313665352D706C756D6275732D66756C6C2E73726563DE
S11300000C94BE010C94DB010C94DB010C94140DD4
S11300100C94DB010C94DB010C94DB010C94DB01EC
S11300200C94DB010C94DB010C94DB010C9476043E
S11300300C94F00C0C94DB010C94DB010C94DB01AC
S11300400C94DB010C94DB010C94DB010C94DB01BC
S11300500C94DB010C94DB010C94DB010C94DB01AC
S11300600C94DB010C94DB010C94DB010C94DB019C
S11300700C94DB010C94DB010C94DB010C94DB018C
S11300800C94DB010C94DB010C94DB010C94DB017C
S11300900C94DB010C94DB010C94380D0C94DB0103
S11300A00C94DB010C94DB010C94DB010000008058
S11300B06861616168616161686161616861616110
S11300C06D6666666D6666666D6666666D66662DE9
S11300D000800000005C58965C58965C585651931A
S11300E05655565ADD405F5D5A7D00800000000081
S11300F000000000000000000000000000000000FC
S11301000000645F5B5F625F5B5F645F5B5F625FB5
S11301105B5F645F5B5F625F5B5F645F5B5F625FEB
S11301205B5F625D5A5D625D5A5D645D5A5D645DEC
S11301305A5D645F5B5F625F5B5F645F5B5F625FCE
S11301405B5F645F5B5F625F5B5F645F5B5F625FBB
S11301505B5F645F5B5F625F5B5F645F5B5F625FAB
S11301605B5F625D5A5D625D5A5D645D5A5D645DAC
S11301705A5D635F5C57C0A84068A14061A34063B7
S1130180A8A1A84068A14061A34063A89CE3E19CA6
S11301909D9FA1E3A4B0AB406BAE406EAB406BAE91
S11301A0406EAB406BAE406EAB406BEE00C00200E5
S11301B00004010000000000000000000000000036
S11301C0CF004E4F51918F409351D8C058914F8ECC
S11301D040519493409158988F40004E4F5151CFC5
S11301E0004E4F5191404F934051D840C0914F8E93
S11301F0405194405391585351505153558058573E
S11302009590515353555355554095585795904E85
S1130210505153535190904E4C4B4B8C8E504E4CEE
S11302204C8E9053555350505140514F4F405F5B4B
S11302305F625F5B5F645F5B5F625F5B5F645F5BCA
S11302405F625F5B5F645F5B584E4F5151004E4F7E
S1130250515100000075697367766A7165786C7333
S1130260673A2E7A78760300000000000000000050
S1130270000000000000000000000000000000007A
S1130280000000004F4D15521413145656545313C6
S1130290141614120F0D120F1412161416524F0DB9
S11302A0120F141216151213141614531614120FD7
S11302B0141314165456544F4D1552141314565601
S11302C0545313141614120F0D120F14121614167D
S11302D0524F0D120F14121615121314161453162E
S11302E014120F14131416545656561B19561B1970
S11302F0161412161112110F56561B19161B111231
S113030014161D1E1D1B561B19561B1916161412E6
S1130310161B191B561617161B19161112110F56F8
S113032057561B19561B19161412161112110F5673
S1130330561B19161B111214161D1E1D1B561B19B4
S1130340561B1916161412161B191B561617161BB4
S113035019161112110F56540000000012110F004B
S11303600A1112110F0A0605060B0A000F001211DA
S11303700F004A080B0A08050605080011241FBED1
S1130380CFEFCDBFD7E2DEBF11E2A0E0B0E2E4E3FD
S1130390F7E202C005900D92A039B107D9F722E225
S11303A0A0E9B1E201C01D92AE39B207E1F70E94A3
S11303B09B0C0C9498130C9400000E944D090E940D
S11303C0C30D81112FC0E0919621EC3078F4109286
S11303D093211092942181E08E0F80939621F0E076
S11303E0E25FFF4D80810E94930D089580919321D7
S11303F0909194219C012F5F3F4F20939321309340
S11304009421069778F010929621109293211092DD
S1130410942110929121109290210E94460560E04F
S11304200E94D008089580919321909194219C0179
S11304302F5F3F4F2093932130939421059730F001
S113044085E50E94901085E00E94DA100895E0E0AE
S1130450F2E081818065818382818061828313825D
S113046084818460848381E0868380A1816080A309
S113047081A1806181A385E080838091060280FF51
S1130480FCCFE0E0F2E081E0868384A195A11082B4
S113049008950F931F93CF9383E08093922183E079
S11304A090E00E949A118093C1219093C2210E94EE
S11304B027020E940C13C0E018C00091C1211091C2
S11304C0C2210C0F111D0E94071383709078992389
S11304D024F401978C6F9F6F019691E001C0990FEE
S11304E08A95EAF7F8019083CF5FC33030F3CF9158
S11304F01F910F9108950F931F93CF9383E08093DF
S1130500922183E090E00E949A118093C1219093FC
S1130510C2210E9427020E940C13C0E010C0009167
S1130520C1211091C2210C0F111D0E9407136FE00D
S113053070E00E9472118F5FF8018083CF5FC33037
S113054070F3CF911F910F910895811119C089E41F
S113055092E08093C9219093CA218DED91E080931C
S1130560C5219093C6218EE190E28093C721909398
S1130570C82184E090E08093C3219093C42108951E
S11305808BE792E08093C9219093CA2183E192E0A2
S11305908093C5219093C6218AE190E28093C7217C
S11305A09093C82184E090E08093C3219093C42168
S11305B00895CF93C82F80919021823009F4ABC065
S11305C030F4882359F0813009F44CC046C183309B
S11305D009F408C1843009F40BC13FC18091912111
S11305E0811108C0E091C921F091CA21099581E0E7
S11305F0809391210E94460560E00E94D00880917A
S1130600962190E02091C3213091C4218217930751
S1130610A9F40E94C30D811111C00E94460560E037
S11306200E94D00881E0809390211092932110922F
S1130630942110929621809395210FC10E94C30D9D
S113064081110BC1E091C721F091C82180919621BD
S113065091E0980F90939621E80FF11D80810E94FC
S1130660930DFBC080919321909194218530910545
S113067030F401968093932190939421EEC00897CF
S113068078F40E94460560E00E94D008809193218E
S11306909091942101968093932190939421DDC0AD
S11306A0909196218091952198130FC00E94460540
S11306B060E00E94D00882E0809390211092932100
S11306C01092942110929621C8C00E94C30D8111EA
S11306D0C4C080919621E091C121F091C221E80F1C
S11306E0F11DC0810E9446056C2F0E94D008E09144
S11306F0C121F091C2218091962191E0980F9093AD
S11307009621E80FF11D80810E94930D1092932190
S113071010929421A2C00E9446056C2F0E94D0081A
S113072080919321909194219C012F5F3F4F2093BE
S1130730932130939421459798F00E94C30D811121
S11307400FC00E94460560E00E94D00884E08093B8
S113075090211092932110929421109296217DC0A1
S1130760CC2309F47AC00E947B05882309F475C060
S11307700E94C30D811171C0109293211092942193
S113078080919621E091C121F091C221E80FF11DE1
S11307908081C81321C08C2F0E94930D80919621D3
S11307A08F5F8093962190919521891356C09F5F06
S11307B09093952180919221891720F483E080936E
S11307C0902103C081E08093902110929321109294
S11307D094211092962141C084E08093902110923C
S11307E096213BC0E091C521F091C621099535C001
S11307F00E941B090E94C30D81112FC0E091962114
S1130800E43078F4109293211092942181E08E0FB9
S113081080939621F0E0E65FFF4D80810E94930D66
S11308201CC080919321909194219C012F5F3F4F94
S11308302093932130939421069778F01092962177
S11308401092932110929421109291211092902150
S11308500E94460560E00E94D008CF91089584E983
S11308608093850410928004E1E8F4E08081886F2D
S113087080831092820410928304E4E8F4E080817F
S11308808D6C808308954093CE215093CF21109294
S1130890D1211092D2211092D3216093D52170934B
S11308A0D62190E0880F991F8160809386048091FF
S11308B0D3218130E1F780E008951092D021409354
S11308C0CE215093CF211092D1211092D221109297
S11308D0D3216093D5217093D621880F8093860409
S11308E08091D3218130E1F780E008951F920F9227
S11308F00FB60F9211242F933F934F935F938F93CF
S11309009F93EF93FF938091840483FF03C083E05C
S1130910809383048091840482FD04C080918404C4
S113092084FF08C0E3E8F4E083E0808381E080830F
S11309308093D3218091D321882331F0E4E8F4E03B
S113094080818064808379C08091840486FF47C05D
S11309508091840484FD43C08091D0218823C9F010
S11309608091CD21882369F08091D42180938704DC
S11309708091D1219091D22101968093D12190939D
S1130980D2218091D7218093870481E08093CD2167
S113099015C02091D5213091D6218091D1219091FB
S11309A0D221AC014F5F5F4F4093D1215093D221AC
S11309B0F901E80FF91F8081809387042091D121E8
S11309C03091D2218091CE219091CF2128173907DF
S11309D031F483E08093830481E08093D321809178
S11309E08404882354F52091D5213091D621809117
S11309F0D1219091D221AC014F5F5F4F4093D1211F
S1130A005093D221F901E80FF91F20918704208324
S1130A102091D1213091D2218091CE219091CF216A
S1130A202817390739F487E08093830481E08093A1
S1130A30D32103C082E080938304FF91EF919F91BF
S1130A408F915F914F913F912F910F900FBE0F9017
S1130A501F901895CF93DF9300D0CDB7DEB78A836C
S1130A6041E050E0BE016E5F7F4F80E20E945D0472
S1130A7041E050E0BE016F5F7F4F80E20E9443047B
S1130A8089810F900F90DF91CF910895CF9380E0EB
S1130A900E942A05C82F81E00E942A0590E0982F21
S1130AA088278C0F911DCF910895CF93DF9300D0A9
S1130AB01F92CDB7DEB70E942F0486E089838FEFA3
S1130AC08A838B8343E050E0BE016F5F7F4F80E2F7
S1130AD00E945D040E94460580939721909398217B
S1130AE02396CDBFDEBFDF91CF91089580919721EA
S1130AF09091982108950E94460520919721309164
S1130B0098218217930799F0209197213091982189
S1130B102817390730F4809397219093982182E025
S1130B200895809397219093982181E0089580E01F
S1130B30089580FF12C0E8E6F2E2108290E4918307
S1130B401282108291831282EBE6F2E21082918388
S1130B50128210829183128210C0E8E6F2E21082BF
S1130B6011821282108211821282EBE6F2E210826A
S1130B701182128210821182128281FF12C0EEE66B
S1130B80F2E290E4908311821282908311821282A5
S1130B90E1E7F2E290831182128290831182128241
S1130BA010C0EEE6F2E210821182128210821182EB
S1130BB01282E1E7F2E21082118212821082118223
S1130BC0128282FF12C0E4E7F2E21082118290E402
S1130BD09283108211829283E7E7F2E210821182FB
S1130BE0928310821182928310C0E4E7F2E21082B1
S1130BF011821282108211821282E7E7F2E21082DD
S1130C001182128210821182128283FF12C0EAE7DB
S1130C10F2E280E280838183128280838183128264
S1130C20EDE7F2E2808381831282808381831282E2
S1130C300895EAE7F2E21082118212821082118290
S1130C401282EDE7F2E21082118212821082118286
S1130C5012820895CF93DF93BC01D0E042C08D2F60
S1130C6090E021E030E00D2E02C0220F331F0A94E1
S1130C70E2F726233723232B99F5DD2329F0019767
S1130C80982F990F890F01C08DE2C0E027C09BEA1D
S1130C90899F912D1124929596959770282F30E372
S1130CA0939F2019112430E04C2F50E0F901EE0FEE
S1130CB0FF1F2E0F3F1FF901E852FE4DDA01AA0F64
S1130CC0BB1F4A0F5B1FDA01A15BBF4D2D913D9104
S1130CD04C912083318342838F5FCF5FC730B8F25A
S1130CE0DF5FD03108F4BBCFDF91CF91089540E0AE
S1130CF03FC0242F30E0F901EE0FFF1FE20FF31F76
S1130D00E852FE4D11821082128280919921B9011C
S1130D10680F711DCB0163E070E00E947211813095
S1130D20910581F082309105C1F0892B01F5F9011B
S1130D30EE0FFF1F2E0F3F1FF901E852FE4D80E416
S1130D40818315C0F901EE0FFF1F2E0F3F1FF9011C
S1130D50E852FE4D80E480830AC0F901EE0FFF1FC4
S1130D602E0F3F1FF901E852FE4D80E482834F5F4E
S1130D70483308F4BECF809199218F5F80939921E5
S1130D8068E370E088ED91E20E9464110895FF9297
S1130D900F931F93CF93DF93EC01F62E10E036C030
S1130DA000919921802F90E0810F911D60E370E004
S1130DB00E947211AC019BEA199F912D1124969502
S1130DC096959695892F880F980F892F880F880FED
S1130DD0212F281B30E0DA01AA0FBB1F4A0F5B1F2B
S1130DE0DA01A852BE4DF901EE0FFF1F2E0F3F1F6F
S1130DF0F901E55DFF4D2081318142812D933D93C1
S1130E004C93003311F4109299211F5F103340F278
S1130E10809199218F5F809399218F2D0E9499054C
S1130E20CE010E942A0668E370E088ED91E20E94F8
S1130E306411DF91CF911F910F91FF9008956F92EC
S1130E407F928F92CF92DF92EF92CF93DF93809134
S1130E50992180FD0BC080912220181624F48FEF75
S1130E608093222003C081E08093222050E090E010
S1130E7077C0963028F0A92FB0E0A231B1057CF1FB
S1130E80E92FF0E060912220062E000C770BDF01A1
S1130E90A60FB71FED01CC0FDD1FAC0FBD1FA8526D
S1130EA0BE4D1C9211961C92119712961C92129789
S1130EB01C9211961C92119712961C927896E61B1E
S1130EC0F70BBF01660F771FE60FF71FE852FE4DC1
S1130ED010821182128210821182128240C0C0914B
S1130EE022200C2E000CDD0BBD016C0F7D1F20E0B9
S1130EF030E140E1FB01EE0FFF1F6E0F7F1FFB018E
S1130F00E852FE4D2083318342835896AC1BBD0BBF
S1130F108BEA589F812D1124869586958695682F96
S1130F20660F860F682F660F660F852F861B682F46
S1130F3070E0FD01EE0FFF1FAE0FBF1FA852BE4DA4
S1130F40FB01EE0FFF1F6E0F7F1FFB01E55DFF4DE1
S1130F506080718082806D927D928C925F5F9F5FD2
S1130F60983108F486CF80912220082E000C990B2A
S1130F709C012A5F3F4FF901EE0FFF1FE20FF31FA1
S1130F80E852FE4D20E120832183228320832183A4
S1130F9022834196FC01EE0FFF1FE80FF91FE85270
S1130FA0FE4D20832183228320832183228320E317
S1130FB036C03091992185E6389F912D1124832FD5
S1130FC0891B8695890F82958F7097E1899F3019C7
S1130FD01124332399F0822F90E0C12CD12C6894F2
S1130FE0EE24E6F8FC01EE0FFF1F8E0F9F1FFC019D
S1130FF0E852FE4DC082D182E28210C0E22FF0E0BE
S1131000CF01880F991FE80FF91FE852FE4D80E1C8
S11310108083818382838083818382832F5F2833CB
S113102040F2809199218F5F8093992168E370E069
S113103088ED91E20E946411DF91CF91EF90DF90EF
S1131040CF908F907F906F9008956F927F928F9240
S1131050CF92DF92EF92CF93DF93809199218131E8
S113106030F4909122209C5F9093222005C09091AF
S11310702220945090932220803211F410929921CE
S1131080A0E034C02A2F30E0A901440F551F8091FD
S11310902220682F880F770B460F571F552314F40F
S11310A0495F5F4F55954795559547955595479594
S11310B080E290E0821B930B880F991F860F971F85
S11310C099230CF403969595879595958795642EA9
S11310D0712C882EF901EE0FFF1F2E0F3F1FF9010F
S11310E0E852FE4D608271828282AF5FA83150F275
S11310F0A0E03FC06A2F70E09B01285E3F4F80E272
S113110090E0861B970B880F991F40912220840F33
S1131110911D47FD9A95FC0199230CF43396F5959E
S1131120E795F595E795AC01992314F44F5F5F4F6C
S11311305595479588E190E0EC01C61BD70BCE018D
S11311400AF40F9695958795959587959595879526
S113115095958795CE2ED42EE82EF901EE0FFF1F1C
S11311602E0F3F1FF901E852FE4DC082D182E28268
S1131170AF5FA83108F4BECF809199218F5F80932F
S1131180992168E370E088ED91E20E946411DF9197
S1131190CF91EF90DF90CF908F907F906F900895D4
S11311A0CF92DF92EF92CF93C62F40E032C0EBEAAA
S11311B04E9FE12D1124E695E695E695242F30E027
S11311C0F0E0BF01660F771FE60FF71FEC59FF4DE4
S11311D0718160815281C72EC694C694C694C69408
S11311E0C694D62ED694D694D694D694D694E52E78
S11311F0E694E694E694E694E694F901EE0FFF1F74
S11312002E0F3F1FF901E852FE4DC082D182E282C7
S11312104F5F403360F20E942A068C2F0E9499058A
S113122068E370E088ED91E20E946411CF91EF9041
S1131230DF90CF900895CF92DF92EF928091992121
S113124091E0980F90939921837049F4C12CD12C8B
S1131250E12C6894DD24D6F8E12C20E012C0C12CE6
S1131260D12CE12CFACF822F90E0FC01EE0FFF1F6E
S11312708E0F9F1FFC01E852FE4DC082D182E28294
S11312802F5F283380F368E370E088ED91E20E94D9
S11312906411EF90DF90CF900895CF92DF92EF9298
S11312A040E025C08BEA489F812D112486958695C0
S11312B0869590919921890F8370242F30E090E0D6
S11312C0D901AA0FBB1F2A0F3B1FD901A852BE4D3B
S11312D0FC01EE0FFF1F8E0F9F1FFC01EC59FF4D09
S11312E0C080D180E280CD92DD92EC924F5F40339A
S11312F0C8F2809199218F5F80939921E8E6F2E208
S1131300108280E481831282108281831282EBE650
S1131310F2E2108281831282108281831282EEE6CD
S1131320F2E2808311821282808311821282E1E7C9
S1131330F2E2808311821282808311821282E4E7B6
S1131340F2E2108211828283108211828283E7E7A3
S1131350F2E2108211828283108211828283EAE790
S1131360F2E280E28083818312828083818312820D
S1131370EDE7F2E28083818312828083818312828B
S113138068E370E088ED91E20E946411EF90DF90D1
S1131390CF9008950895CF92DF92EF92CF93DF9389
S11313A020E013C0822F90E06894CC24C6F8D12C9E
S11313B0E12CFC01EE0FFF1F8E0F9F1FFC01E85272
S11313C0FE4DC082D182E2822F5F203358F324C0C5
S11313D020FF11C0822F90E0A0E0B0E4C0E4FC0143
S11313E0EE0FFF1F8E0F9F1FFC01E852FE4DA083DE
S11313F0B183C28310C0822F90E040E450E460E4E3
S1131400FC01EE0FFF1F8E0F9F1FFC01E852FE4DE3
S11314104083518362832F5F2833D0F22091992136
S11314202D5F209399218BEA289F812D1124829589
S113143086958770422F90E3899F4019112450E0CC
S113144080E490E0A0E090E4A0E0FA01EE0FFF1F3A
S11314504E0F5F1FFA01E852FE4D80839183A283F1
S113146030E0C9010196C0E3D0E0BE010E947211D0
S11314706894CC24C6F8D12CE12C6894DD24D6F8E9
S1131480E12CFC01EE0FFF1F8E0F9F1FFC01E852A1
S1131490FE4DC082D182E282C9010296BE010E9441
S11314A0721120E430E040E030E440E0FC01EE0F53
S11314B0FF1F8E0F9F1FFC01E852FE4D20833183D6
S11314C0428368E370E088ED91E20E946411DF9149
S11314D0CF91EF90DF90CF90089588ED84BF82E0A4
S11314E0809350008091510081FFFCCF88ED84BF30
S11314F091E09093400084BF10924100089587E0EA
S11315008093A2000895E0E0F6E081E0828388E120
S1131510808BA0E6B6E080EE11968C931197169618
S11315208C93A0E4B6E080E811968C9311971696FC
S11315308C9384E08183089580E880934506E0E0FD
S1131540F6E080EF828388E1848B858B868B878BA2
S113155008950E945505089580E180934106809383
S1131560610684E0809305060895CF93DF93CDB799
S1131570DEB7A297CDBFDEBF833071F120F4813096
S113158081F060F01AC0853009F497C0A0F186306C
S113159009F4F6C08F3E09F4FDC059C10E9414112C
S11315A056C180E1809341060E949C0A0E94B90DB5
S11315B00E94A90A0E9414114AC180E18093410645
S11315C00E949C0A0E94B90D0E94A90A80E00E9410
S11315D0A5020E9414113BC180E1809341060E9440
S11315E09C0A0E94B90D0E94A90A81E00E94A502EA
S11315F00E9414112CC10E94AC0A0E9414118BED9C
S113160095E389A39AA38CE593E089839A838FE178
S113161090E08B839C8388E593E08D839E8384E0B4
S113162090E08F83988784E892E089879A8784ED95
S113163090E08B879C8789E692E08D879E878BE17B
S113164090E08F87988B87E692E0898B9A8B82E073
S113165090E08B8B9C8B86E692E08D8B9E8B81E059
S113166090E08F8B988F85E592E0898F9A8F81E146
S113167090E08B8F9C8F82E592E08D8F9E8F83E02C
S113168090E08F8F98A38FE197E09F938F938DB70E
S11316909EB782978DBF9EBFADB7BEB7119682E24B
S11316A0FE01319601900D928A95E1F70E943E0F5A
S11316B0CDBFDEBF0E94D10FCAC00E948D10882307
S11316C009F4C5C00E94AC0A0E94141189E09DE38C
S11316D089A39AA38EE492E089839A8384E090E0BC
S11316E08B839C838DE492E08D839E8381E090E0E4
S11316F08F83988720EC31E029873A872DE830E002
S11317002B873C872EEA31E02D873E8722E130E0AB
S11317102F87388B2DEA31E0298B3A8B8B8B9C8B6E
S11317202CEA31E02D8B3E8B8F8B988F82E091E0F9
S1131730898F9A8F8AEA90E08B8F9C8F8CEE90E051
S11317408D8F9E8F86E190E08F8F98A385E298E03D
S11317509F938F938DB79EB782978DBF9EBFADB772
S1131760BEB7119682E2FE01319601900D928A95E0
S1131770E1F70E943E0FCDBFDEBF0E94D10F67C0CC
S11317800E949B10882309F462C00E9414110E94D5
S11317909C0A5DC00E94AC0A0E94141189E09DE37A
S11317A089A39AA38BEE90E089839A8381E090E0E9
S11317B08B839C832AEE30E02D833E838F8398872E
S11317C025ED30E029873A8725E130E02B873C87F7
S11317D022ED30E02D873E8723E030E02F87388BE1
S11317E021ED30E0298B3A8B8B8B9C8B20ED30E004
S11317F02D8B3E8B8F8B988F80EB90E0898F9A8F07
S113180080E290E08B8F9C8F8CEA90E08D8F9E8F8E
S113181084E090E08F8F98A38BEC99E09F938F9353
S11318208DB79EB782978DBF9EBFADB7BEB71196D9
S113183082E2FE01319601900D928A95E1F70E94B1
S11318403E0FCDBFDEBF8BE091E10E94D50FA29683
S1131850CDBFDEBFDF91CF9108958091080680FD52
S113186013C02FEF80E792E0215080409040E1F7D1
S113187000C000008091080680FD06C08091080623
S113188080FFFCCF0E940B110895982FE0E6F6E04C
S11318908481282F2F71892F90E00196880F991F3A
S11318A082959295907F9827807F9827822B8483B6
S11318B008958091080690E080959095807F9927FF
S11318C095958795959587959595879595958795FC
S11318D00895CF93DF930E94590CC82F0E947B0573
S11318E0D82F0E94C30DCC2311F1DD2301F1811106
S11318F01EC08C2F0E94930D80919A21E82FF0E056
S1131900EC5DFF4D9081C91310C08F5F80939A21C5
S11319109091232089130BC085E50E949E1010929C
S11319209A218FEE0E94DA1002C010929A218C2F15
S1131930DF91CF910895E0E0F6E088E0818386832B
S1131940F8940E946D0A0E947F0A78940E94830A88
S11319500E9455058091080680FFFCCF0E94B810B4
S11319600E94A9100E94450C0E94A9100E94B50A69
S11319700E94AC100E942D0C80919B2190919C217F
S11319800A97C0F388E0809307060E94A910843068
S113199038F4823098F4882331F0813031F01BC060
S11319A0863089F018C00E9477060E94690CC82FFF
S11319B00E9476056C2F0E94C7060DC00E94590C28
S11319C00E94D90208C00E94690CC82F0E947605A3
S11319D06C2F0E94CA0910929B2110929C21CACF9D
S11319E01F920F920FB60F9211242F933F934F9390
S11319F05F936F937F938F939F93AF93BF93EF9373
S1131A00FF930E94DC0FFF91EF91BF91AF919F91E3
S1131A108F917F916F915F914F913F912F910F9093
S1131A200FBE0F901F9018951F920F920FB60F9232
S1131A3011242F933F934F935F936F937F938F93CF
S1131A409F93AF93BF93EF93FF930E94C00DFF91B9
S1131A50EF91BF91AF919F918F917F916F915F9122
S1131A604F913F912F910F900FBE0F901F9018959B
S1131A701F920F920FB60F9211248F939F93809110
S1131A809B2190919C21019680939B2190939C2172
S1131A909F918F910F900FBE0F901F901895E0E4C7
S1131AA0F8E081E08183848384E080830895E0E426
S1131AB0F9E01182148283E0878387E0808388E3DE
S1131AC091E086A397A3089580EC80938101E0E0E0
S1131AD0F8E080EB94E086A397A387E08083E0E0BE
S1131AE0F3E081E0818398E09283838385E08083BF
S1131AF0E0E0F1E080E4808B81E3828B85E1848BFC
S1131B0083E1818B80E88083089580912A2090E08E
S1131B10E0E0F1E0868B978B86E790E2808F918FEF
S1131B2085E8808B0895CF93DF9391E090939D2176
S1131B30E82FF0E03796EE0FFF1FE057FF4D80814E
S1131B409181C0E4D8E088A799A70E94850D84E01C
S1131B508883DF91CF91089510929D21E0E0F1E018
S1131B6081898061818BE0E4F8E010A211A21082E7
S1131B7008950E944F0D0E94570D0E94640D089510
S1131B800E94AC0D089580919D210895E0E0F8E055
S1131B901182148223E02683108286A397A30895DA
S1131BA0E0E4F8E081E08183848384E08083089525
S1131BB0E0E4F9E081E08183848384E08083089514
S1131BC0CF92DF92EF92FF920F931F93CF93DF9305
S1131BD06C01E901D70181E0F60180838881998154
S1131BE0680F791FFB019081892F829586958695D0
S1131BF0837061E070E002C0660F771F8A95E2F798
S1131C006150F80120813181420F531FFA01208174
S1131C1030E00C9002C0359527950A94E2F720FD38
S1131C206FE0F60160839F73892F90E0009751F075
S1131C30880F991FFC01E05FFE4D4081518156954C
S1131C40479502C040E050E0288139812F5F3F4F23
S1131C50288339839C919F5F9C93983039F41C921C
S1131C60F80180819181019680839183CA01DF917B
S1131C70CF911F910F91FF90EF90DF90CF90089537
S1131C80EF92FF920F931F934091842250918522EB
S1131C9060919622709197220F2EF7EBEF2EF1E2CE
S1131CA0FF2EF02D08EB11E22AEB31E286EB91E2F4
S1131CB00E94E00D80936808909369081F910F912A
S1131CC0FF90EF900895EF92FF920F931F9340912E
S1131CD098225091992260919422709195220F2E0E
S1131CE0F8EAEF2EF1E2FF2EF02D09EA11E22BEAD9
S1131CF031E287EA91E20E94E00D809368099093B3
S1131D0069091F910F91FF90EF9008958091BD2173
S1131D10882399F091E09093AF212091882230910B
S1131D208922209396223093972220918E223091FB
S1131D308F222093842230938522811116C09091A2
S1131D40BC21992391F01092AF21209186223091E9
S1131D5087222093962230939722209182223091D9
S1131D60832220938422309385221092B6211092EC
S1131D70BA211092BB211092B8211092B92110926D
S1131D80B7219091AE21992399F021E02093A021CD
S1131D902091922230919322209394223093952281
S1131DA0209180223091812220939822309399228D
S1131DB0911116C09091AD21992391F01092A02118
S1131DC02091902230919122209394223093952255
S1131DD020918A2230918B22209398223093992249
S1131DE01092A7211092AB211092AC211092A9213C
S1131DF01092AA211092A821811103C08091BC21C4
S1131E0081110E94400E8091AE21811103C0809106
S1131E10AD2181110E94630E0895CF92DF92EF925B
S1131E20FF920F931F93CF93DF931F92CDB7DEB72B
S1131E306C017B018A01CA010E949A11D7018D931A
S1131E409C9380E090E00DC0F601E80FF91FE49147
S1131E50E983D701ED91FC91E80FF91F29812083D3
S1131E6001968017910780F30F90DF91CF911F9116
S1131E700F91FF90EF90DF90CF9008950F931F93F1
S1131E80CF93DF93CDB7DEB789A59AA580938C2233
S1131E9090938D228FA198A50E94C60D0E94D00D0B
S1131EA00E94D80D8F8598890097D1F021E0209366
S1131EB0BC2109891A89A80166E872E20E940D0F03
S1131EC04D895E8962E872E28B899C890E940D0FBC
S1131ED00093B2211093B3210093B0211093B12148
S1131EE08F8198850097D1F021E02093BD21098549
S1131EF01A85A80168E872E20E940D0F4D855E857F
S1131F006EE872E28B859C850E940D0F0093B421CC
S1131F101093B5210093B0211093B1218F8D98A116
S1131F200097D1F021E02093AD2109A11AA1A801C5
S1131F3060E972E20E940D0F4DA15EA16AE872E2AF
S1131F408BA19CA10E940D0F0093A3211093A421A7
S1131F500093A1211093A2218F89988D0097D1F02D
S1131F6021E02093AE21098D1A8DA80162E972E265
S1131F700E940D0F4D8D5E8D60E872E28B8D9C8DFD
S1131F800E940D0F0093A5211093A6210093A12177
S1131F901093A2210E94860EDF91CF911F910F9181
S1131FA0089586E080930008089580939E2190937D
S1131FB09F210E94D10F089581E080930C088091A5
S1131FC0B62181114BC0E0E4F8E0108210A611A6FE
S1131FD02091BA213091BB218091B0219091B121FF
S1131FE028173907C0F18091AF218823D9F01092C6
S1131FF0AF218091B2219091B3218093B02190932D
S1132000B121809186229091872280939622909389
S113201097228091822290918322809384229093AC
S113202085220DC080919E2190919F21892B39F0AA
S113203010920008E0919E21F0919F210995109241
S1132040B6211092BA211092BB211092B82110929D
S1132050B9211092B7210E94400E03C08150809391
S1132060B6218091A721811141C0E0E4F9E01082FA
S113207010A611A62091AB213091AC218091A12111
S11320809091A2212817390770F18091A02188230B
S1132090F1F08091AD218823D1F01092A02180919C
S11320A0A3219091A4218093A1219093A2218091B6
S11320B090229091912280939422909395228091E2
S11320C08A2290918B228093982290939922109245
S11320D0A7211092AB211092AC211092A921109249
S11320E0AA211092A8210E94630E03C081508093FC
S11320F0A721E0918C22F0918D2209952FEF83EF97
S113210091E0215080409040E1F700C0000084E05D
S1132110809340088093400908958091BF210895D9
S11321208093BF216091BF21611165E582E090E059
S11321300E941F1308958091BE2108958093BE21AB
S11321406091BE21611165E583E090E00E941F1358
S113215008958091C021089560E081E090E00E949C
S11321601F13089588ED84BF83E080938000089551
S113217081E090E00E9417138093C0218091C021D8
S1132180873040F08091C0218F3E21F01092C02111
S11321900E94AC1082E090E00E9417138093BF214C
S11321A085E58093BF2183E090E00E94171380931C
S11321B0BE210895853091F49091BF21953521F089
S11321C09091BE219535B1F49091BF219535B9F028
S11321D09091BE21953599F48F5F11C0863029F412
S11321E09091BE21953541F40AC0873040F08F3E6E
S11321F029F405C080E003C080E001C080E0682FBE
S113220081E090E00E941F138091CF018823E4F3C2
S11322100E94B210FFCF8091C0218F5F8093C021B4
S11322208091C0210E94DA10A0E0B1E080EB8C9391
S1132230D1961C92D19781E0D2968C93D297D39663
S11322401C92D397E0ECF9E0DC96ED93FC93DD97D8
S11322509DE6D4969C93A0E6B6E050961C925097C7
S113226051968C93519783E053968C9353979BE0AC
S113227011969C93A0E8B1E09BE69C9318961C925F
S1132280189799E616969C9316971E961C9293E1BE
S113229096831782128292EC9483158298E093833A
S11322A0E0E6F4E091E1948385838EE9868386E118
S11322B086878DE0848784E5808380E5818380E45C
S11322C0828380EA83830895E0E0F1E080AF91AFF8
S11322D0CB01880F991F680F791F66AB77AB84E831
S11322E080AB089597FB072E16F4009407D077FD72
S11322F009D00E94861107FC05D03EF49095819583
S11323009F4F0895709561957F4F0895AA1BBB1B3D
S113231051E107C0AA1FBB1FA617B70710F0A61BE1
S1132320B70B881F991F5A95A9F780959095BC0102
S1132330CD0108950F931F93CF93DF9382309105BE
S113234010F482E090E0E0919C22F0919D2220E044
S113235030E0A0E0B0E0309719F140815181028172
S1132360138148175907C8F08417950769F4109723
S113237031F012960C93129713961C9327C0009376
S11323809C2210939D2222C02115310519F0421779
S1132390530718F49A01BD01EF01DF01F801DBCF07
S11323A021153105F9F0281B390B2430310580F44F
S11323B08A819B816115710521F0FB0182839383DE
S11323C004C080939C2290939D22FE01329644C0C7
S11323D0FE01E20FF31F8193919322503109288368
S11323E039833AC020919A2230919B22232B41F4C5
S11323F0209102203091032020939A2230939B2233
S113240020910020309101202115310541F42DB790
S11324103EB74091042050910520241B350BE091D8
S11324209A22F0919B22E217F307A0F42E1B3F0B94
S11324302817390778F0AC014E5F5F4F2417350732
S113244048F04E0F5F1F40939A2250939B22819332
S1132450919302C0E0E0F0E0CF01DF91CF911F91B2
S11324600F910895CF93DF93009709F481C0FC0185
S1132470329712821382A0919C22B0919D221097D0
S113248081F420813181820F931F20919A2230910F
S11324909B222817390751F5E0939A22F0939B2247
S11324A067C0ED0120E030E0CE17DF0740F44A8139
S11324B05B819E0141155105F1F0EA01F5CFC2831C
S11324C0D38340815181840F951FC817D90759F4CC
S11324D088819981840F951F0296808391838A81D4
S11324E09B81828393832115310529F4E0939C22F7
S11324F0F0939D223DC0E901EA83FB834991599100
S1132500C40FD51FEC17FD0761F480819181840FFE
S1132510951F0296E90188839983828193818A8336
S11325209B83E0E0F0E012968D919C9113970097C5
S113253019F0FD01DC01F7CF8D919C9111979D015C
S11325402E5F3F4F820F931F20919A2230919B223E
S11325502817390769F4309729F410929C221092B5
S11325609D2202C012821382A0939A22B0939B22CE
S1132570DF91CF9108958F929F92AF92BF92CF92A5
S1132580DF92EF92FF92CF93DF93EC016881798120
S11325908A819B81611571058105910521F464E2AD
S11325A079ED8BE597E02DE133EF41E050E00E94B7
S11325B0351349015A019B01AC01A7EAB1E40E9419
S11325C054136B017C01ACEEB4EFA50194010E949D
S11325D06213DC01CB018C0D9D1DAE1DBF1DB7FF29
S11325E003C00197A109B04888839983AA83BB8358
S11325F09F77DF91CF91FF90EF90DF90CF90BF90C6
S1132600AF909F908F9008950E94BB12089586E02A
S113261090E20E94BB120895A0E0B0E080930620EF
S113262090930720A0930820B0930920089503D025
S1132630808199270895FC01E050F04F0895262FDA
S1132640AF93BF93E0ECF1E0378537FDFDCFDC01BC
S1132650A050B04F2C9325E3228728ED31E024BF0E
S113266033870196BF91AF910895052E97FB1EF411
S113267000940E944C1357FD07D00E94671307FC77
S113268003D04EF40C944C135095409530952195FD
S11326903F4F4F4F5F4F089590958095709561958A
S11326A07F4F8F4F9F4F08950E948913A59F900DD0
S11326B0B49F900DA49F800D911D11240895B7FF20
S11326C00C9454130E945413821B930B0895A1E29B
S11326D01A2EAA1BBB1BFD010DC0AA1FBB1FEE1F98
S11326E0FF1FA217B307E407F50720F0A21BB30BE3
S11326F0E40BF50B661F771F881F991F1A9469F75F
S113270060957095809590959B01AC01BD01CF01BA
S11327100895A29FB001B39FC001A39F700D811DB6
S11327201124911DB29F700D811D1124911D0895D6
S1072730F894FFCF47
S113273400009E222000010000000B0E0F0F0F0C5E
S1132744080508050C08070306030F0E0D0C0C08F6
S11327540501FF060F0B090F0B091A0040000410B2
S113276400101000100400400000100004100010B9
S113277404001000004000041000101000100400B5
S113278400000202020404041010100404040202EF
S1132794020000000040004000000000402020002F
S11327A4000000101010FF0FA00FD80EAC0D1C0C6D
S11327B4280AD0071405F40190012C01C800640010
S11327C4B404FC0448059805EC054806A8060C075F
S11327D47807E8076008E0086809F809900A300BEC
S11327E4D80B900C4C0D180EF00ED00FC410C01161
S11327F4D012F0131C156016B4171C199C1A301C43
S1132804DC1DA41F84218423A025DC273C2AC02C9E
S1132814682F383234356038B83B483F084304479E
S1132824404BB84F74547C59CC5E7064686ABC7075
S11328347077887E14860C8E8096709FECA8FCB208
S1132844B404FC0448059805EC054806A8060C07DE
S11328547807E8076008E0086809F809900A300B6B
S1132864D80B900C4C0D180EF00ED00FC410C011E0
S1132874D012F0131C156016B4171C199C1A301CC2
S1132884DC1DA41F84218423A025DC273C2AC02C1E
S1132894682F383234356038B83B483F084304471E
S11328A4404BB84F74547C59CC5E7064686ABC70F5
S11328B47077887E14860C8E8096709FECA8FCB288
S9030000FC
